:020000040800F2
:10000000A40C0020D926000829270008B502000802
:1000100029270008292700082927000800000000D8
:100020000000000000000000000000002927000878
:100030002927000800000000F7010008E925000852
:100040002927000829270008292700082927000850
:1000500029270008292700082F1600084516000840
:100060005B1600087116000887160008292700088B
:100070002927000829270008292700082927000820
:100080002927000829270008292700082927000810
:100090002927000829270008292700089D1600089D
:1000A00029270008292700082927000829270008F0
:1000B00029270008292700082927000829270008E0
:1000C00029270008292700082927000829270008D0
:1000D00029270008C120000829270008292700082F
:1000E000CF1600082927000829270008292700081B
:1000F00029270008292700082927000829270008A0
:10010000292700082927000829270008292700088F
:10011000292700082927000829270008292700087F
:10012000292700082927000829270008292700086F
:10013000292700082927000829270008292700085F
:10014000292700082927000829270008292700084F
:10015000292700082927000829270008292700083F
:10016000292700082927000829270008292700082F
:100170002927000829270008292700080000000077
:10018000292700082927000810B5054C237833B922
:10019000044B13B10448AFF300800123237010BD5A
:1001A000A80C002000000000A8A9010808B5034B16
:1001B0001BB103490348AFF3008008BD00000000F5
:1001C000AC0C0020A8A90108EFF3108072B67047AC
:1001D00080F310887047464A1368012B04D04FF013
:1001E00001031360434A1060434A116043484FF0D3
:1001F000805101607047EFF3108272B63C4801688D
:1002000051B34FF0000101603A48016891B1EFF33A
:1002100009811EF0100F08BF21ED108B21E9F00FAE
:100220004FF000041EF0100F08BF012441F8044DE8
:100230000068016030490968096808C9B1E8F00F31
:10024000002B18BFB1EC108B81F309884EF0100E13
:10025000002B18BF2EF0100E82F310884EF0040E03
:10026000704725490860EFF3148222F0040282F3FC
:10027000148820494FF0000008601D494FF001002C
:1002800008601F481F49D0F8002041EA02010160C0
:100290001A484FF0805101601B480068006800BF99
:1002A00080F3088861B662B6BFF34F8FBFF36F8FDC
:1002B000704700BFEFF308801EF0040F01D0EFF38A
:1002C000098020E9F00F40F804ED40F804ED1EF03D
:1002D000040F02D080F3098801E080F3088800B59C
:1002E00008F004FE5DF804EB4EF0040E70470000C9
:1002F000D0580020C8580020CC58002004ED00E061
:1003000020ED00E00000FFFF08ED00E0000000002D
:1003100000000000000000000000000000000000DD
:10032000A2EB0300704700BF02780B78012A28BFB8
:100330009A42F5D16DE9044540EA0104CDE902672E
:100340006FF0000C4FEA447212B380EA010414F01B
:10035000070F6AD100F0070420F0070004F003053E
:1003600021F007014FEAC505F0E8042314F0040F5B
:10037000F1E804670CFA05F462EA040266EA04068E
:100380000AD063EA0403624667EA0407664603E0AC
:10039000F0E80423F1E8046782FA4CF582EA0604E7
:1003A000A4FA8CF46CBB83FA4CF583EA0705A5FA32
:1003B0008CF595B950E9022351E9026782FA4CF5B0
:1003C00082EA0604A4FA8CF483FA4CF583EA070562
:1003D000A5FA8CF52543DBD09CB92DBAB5FA85F486
:1003E00024F0070427FA04F1DDE9026723FA04F395
:1003F00003F0FF0001F0FF01FDE80445A0EB010060
:10040000704724BAB4FA84F424F0070426FA04F1FD
:10041000DDE9026722FA04F202F0FF0001F0FF01B9
:10042000FDE80445A0EB0100704714F0030F3CD138
:1004300010F0030428D150F8082B51F8083B82FA39
:100440004CF582EA0305A5FA8CF55DB950F8042C49
:1004500051F8043C82FA4CF582EA0305A5FA8CF5C2
:10046000002DE8D02DBAB5FA85F424F0070423FA5C
:1004700004F122FA04F202F0FF0001F0FF01FDE8AE
:100480000445A0EB010070474FEAC40420F00300CC
:1004900050F8082B21F0030151F8083B0CFA04F442
:1004A00062EA040263EA0403C9E710F003041AD005
:1004B000A1EB040120F00300E40750F8042B06D060
:1004C0000FD28B785FFAA2F4E41A06D12BB1CB7865
:1004D0005FFAB2F4E41A00D11BB920465DF8104B64
:1004E000704701F1040150F8042BCC0721F00301FF
:1004F00051F8043B48D824D222F07F4482FA4CF5CC
:1005000094EA1325A5FA8CF50AD165B951F8043B94
:1005100084EA0204B4EB036F0ED150F8042BEBE72E
:100520004FEA132355E035F07F454DD10878FDE8BB
:100530000445C0F1000070474FEA126203F0FF0368
:1005400047E002EA1C4482FA4CF594EA1345A5FA06
:100550008CF50AD165B951F8043B84EA0204B4EB86
:10056000034F0CD150F8042BEBE74FEA134330E074
:1005700015EA1C4528D10B884FEA124229E04FEAC0
:10058000124203EA1C4324E002F0FF0482FA4CF515
:1005900094EA1365A5FA8CF50AD165B951F8043BC4
:1005A00084EA0204B4EB032F09D150F8042BEBE7E3
:1005B0004FEA13630DE015F0FF0F05D10B684FEA0A
:1005C000122223F07F4304E04FF00000FDE80445D1
:1005D000704712BA1BBA82FA4CF482EA0304A4FAF6
:1005E0008CF5B5FA85F402FA04F203FA04F34FEA43
:1005F0001260FDE80445A0EB1360704700000000A6
:1006000090F800F06DE9024520F007016FF0000C52
:1006100010F0070491F820F040F049804FF00004FA
:100620006FF00700D1E9002391F840F000F10800D5
:1006300082FA4CF2A4FA8CF283FA4CF3A2FA8CF30D
:100640004BBBD1E9022382FA4CF200F10800A4FA74
:100650008CF283FA4CF3A2FA8CF3E3B9D1E90423C8
:1006600082FA4CF200F10800A4FA8CF283FA4CF3FF
:10067000A2FA8CF37BB9D1E9062301F1200182FAB9
:100680004CF200F10800A4FA8CF283FA4CF3A2FABF
:100690008CF3002BC6D0002A04BF04301A4612BACD
:1006A000B2FA82F2FDE8024500EBD2007047D1E9D0
:1006B000002304F00305C4F100004FEAC50514F05F
:1006C000040F91F840F00CFA05F562EA05021CBF30
:1006D00063EA050362464FF00004A9E753B94AB93B
:1006E000002908BF00281CBF4FF0FF314FF0FF303A
:1006F00000F074B9ADF1080C6DE904CE00F006F815
:10070000DDF804E0DDE9022304B070472DE9F0478D
:10071000089D04468E46002B4DD18A42944669D9E5
:10072000B2FA82F252B101FA02F3C2F1200120FAC8
:1007300001F10CFA02FC41EA030E94404FEA1C4816
:10074000210CBEFBF8F61FFA8CF708FB16E341EA12
:10075000034306FB07F199420AD91CEB030306F198
:10076000FF3080F01F81994240F21C81023E6344B9
:100770005B1AA4B2B3FBF8F008FB103344EA03445D
:1007800000FB07F7A7420AD91CEB040400F1FF3372
:1007900080F00A81A74240F207816444023840EAAF
:1007A0000640E41B00261DB1D4400023C5E90043E8
:1007B0003146BDE8F0878B4209D9002D00F0EF806B
:1007C0000026C5E9000130463146BDE8F087B3FA9E
:1007D00083F6002E4AD18B4202D3824200F2F98086
:1007E000841A61EB030301209E46002DE0D0C5E989
:1007F000004EDDE702B9FFDEB2FA82F2002A40F0D5
:100800009280A1EB0C014FEA1C471FFA8CFE0126D7
:10081000200CB1FBF7F307FB131140EA01410EFB7B
:1008200003F0884208D91CEB010103F1FF3802D222
:10083000884200F2CB804346091AA4B2B1FBF7F01C
:1008400007FB101144EA01440EFB00FEA64508D93F
:100850001CEB040400F1FF3102D2A64500F2BB807C
:100860000846A4EB0E0440EA03409CE7C6F12007CB
:10087000B34022FA07FC4CEA030C20FA07F401FA11
:1008800006F31C43F9404FEA1C4900FA06F3B1FB9A
:10089000F9F8200C1FFA8CFE09FB181140EA0141FF
:1008A00008FB0EF0884202FA06F20BD91CEB01019C
:1008B00008F1FF3A80F08880884240F28580A8F1F4
:1008C00002086144091AA4B2B1FBF9F009FB101146
:1008D00044EA014100FB0EFE8E4508D91CEB0101E4
:1008E00000F1FF346CD28E456AD90238614440EA87
:1008F0000840A0FB0294A1EB0E01A142C846A64607
:1009000056D353D05DB1B3EB080261EB0E0101FA8F
:1009100007F722FA06F3F1401F43C5E900710026EC
:100920003146BDE8F087C2F12003D8400CFA02FC42
:1009300021FA03F3914001434FEA1C471FFA8CFE52
:10094000B3FBF7F007FB10360B0C43EA064300FB42
:100950000EF69E4204FA02F408D91CEB030300F1E0
:10096000FF382FD29E422DD9023863449B1B89B297
:10097000B3FBF7F607FB163341EA034106FB0EF320
:100980008B4208D91CEB010106F1FF3816D28B42CD
:1009900014D9023E6144C91A46EA004638E72E4699
:1009A000284605E70646E3E61846F8E64B45A9D291
:1009B000B9EB020864EB0C0E0138A3E74646EAE700
:1009C000204694E74046D1E7D0467BE7023B6144AE
:1009D00032E7304609E76444023842E7704700BF17
:1009E00080B500AF4FF47A7013F028FFFAE70000EB
:1009F00080B582B000AF78604FF0FF3109480EF04B
:100A0000B9FE094B1946094810F02FF80649084865
:100A100011F0D0FE03480EF0BDFE642013F00EFF6F
:100A2000EAE700BF7C0D002000000020C40C00207D
:100A30008C5F010880B584B000AF786007F10C03CB
:100A40004FF0FF3219460C4810F060F90346002BB6
:100A50000DD14FF0FF3109480FF0A6FAFB68194697
:100A6000074811F0A7FE05480FF0AEFAE6E764204C
:100A700013F0E4FEE2E700BFC40C0020A40D002048
:100A80009C5F010880B584B002AF0023009320234F
:100A9000194A1A491A480FF0FFFD0023012219498B
:100AA00019480EF0A3FC0022184919480FF044F829
:100AB000052301930A2300934FF480630022154914
:100AC000154813F0EBFD7860052301930A2300938A
:100AD0004FF4806300221149114813F0DFFD3860A4
:100AE000786813F063FD386813F060FD0123184641
:100AF0000837BD4680BD00BFFC0C0020AC5F01087C
:100B0000C40C0020B05F01087C0D0020B45F010818
:100B1000A40D0020F1090008BC5F0108350A000897
:100B2000C45F010880B582B000AF78604FF0FF313C
:100B300009480EF01FFE0A220849094810F054FB2C
:100B40000649084811F036FE03480EF023FE6420E3
:100B500013F074FEEAE700BF1C1600200C00002012
:100B6000D80D0020CC5F010880B5A2B000AF78603E
:100B700007F108014FF0FF3380220C4810F07EFD92
:100B80000346002B0ED14FF0FF3109480FF00CFA4D
:100B900007F108031946074811F00CFE04480FF04E
:100BA00013FAE5E7642013F049FEE1E7D80D0020D1
:100BB00044160020DC5F010880B584B002AF00233A
:100BC00001934FF4006300930A231C4A1C491D48FB
:100BD00010F0AEF8002301221B491C480EF006FC61
:100BE00000221B491B480EF0A7FF052301930A238F
:100BF00000934FF4806300221749184813F04EFD0C
:100C00007860052301930A2300934FF48063002248
:100C10001349144813F042FD38607B68002B02D062
:100C2000786813F0C3FC3B68002B02D0386813F0DF
:100C3000BDFC012318460837BD4680BD1C0E0020B0
:100C4000EC5F0108D80D0020F05F01081C160020A1
:100C5000F45F010844160020250B0008FC5F010822
:100C6000690B00080460010880B483B000AF002362
:100C70007B60104B5B6C0F4A43F4804353640D4B15
:100C80005B6C03F480437B607B6800233B60094B13
:100C90001B6C084A43F080531364064B1B6C03F033
:100CA00080533B603B6800BF0C37BD465DF8047B5A
:100CB000704700BF0038024080B58CB000AF78604C
:100CC00007F11C0300221A605A609A60DA601A6108
:100CD0007B681B68364A934235D10023BB61354B94
:100CE0005B6C344A43F010035364324B5B6C03F08B
:100CF0001003BB61BB6900237B612E4B1B6B2D4A2C
:100D000043F0010313632B4B1B6B03F001037B6167
:100D10007B694FF4C063FB6102233B6201237B626A
:100D20000323BB620723FB6207F11C031946224819
:100D300002F0CAF900220021252001F0AAFE252098
:100D400001F0C3FE30E07B681B681C4A93422BD144
:100D500000233B61174B1B6C164A43F400331364AA
:100D6000144B1B6C03F400333B613B690023FB60B5
:100D7000104B1B6B0F4A43F0010313630D4B1B6BAE
:100D800003F00103FB60FB680C23FB6102233B6261
:100D900000237B620323BB620723FB6207F11C0372
:100DA0001946054802F090F900BF3037BD4680BDB6
:100DB00000100140003802400000024000440040A2
:100DC00080B582B000AF78607B681B68124A93429E
:100DD0000ED1124B5B6C114A23F0100353644FF495
:100DE000C0610F4802F00CFB252001F07CFE0EE0F4
:100DF0007B681B680B4A934209D1084B1B6C074A5E
:100E000023F4003313640C21054802F0F9FA00BF03
:100E10000837BD4680BD00BF0010014000380240C9
:100E2000000002400044004080B598B000AF07F1D8
:100E3000300330220021184614F03EFB07F11C035A
:100E400000221A605A609A60DA601A6107F10C0396
:100E500000221A605A609A60DA600023BB60354B4A
:100E60001B6C344A43F080531364324B1B6C03F009
:100E70008053BB60BB6800237B602F4B1B682E4AEE
:100E800043F4804313602C4B1B6803F480437B6066
:100E90007B680D233B634FF480337B630123BB638B
:100EA00001237B640223BB644FF48003FB640423AF
:100EB0003B65A8237B650223BB650723FB6507F120
:100EC0003003184602F0E2FB0346002B03D0272133
:100ED0001A4801F0CDFB0F23FB6102233B62002384
:100EE0007B624FF4A053BB624FF48053FB6207F167
:100EF0001C030521184602F041FE0346002B03D0D7
:100F000034210E4801F0B4FB0223FB604FF48073E0
:100F1000BB6107F10C03184603F050F80346002BA1
:100F200003D03A21054801F0A3FB00BF6037BD465E
:100F300080BD00BF00380240007000400C60010816
:100F400080B588B000AF786000237B610023FB612F
:100F5000786811F03BFB03463B613B69032B3CDDAA
:100F60003B69052B39DC7B681B78502B37D17B68BC
:100F700002331B782E2B32D17B6801331B78402B38
:100F80002FD97B6801331B785A2B2AD87B68013311
:100F90001B78413BFB600323BB6110E0FA691346F9
:100FA0009B0013445B00FB61BB697A6813441B78A8
:100FB000303BFA691344FB61BB690133BB61BA6919
:100FC0003B699A42EADBFB681B01DAB2FB6903F07A
:100FD0000F0313437B617B6909E000BF02E000BFA0
:100FE00000E000BF044811F0E5FB6FF01503184660
:100FF0002037BD4680BD00BF1C60010880B586B0AB
:1010000000AFF860B9601346FB71BB681B11DBB21F
:1010100003F00F03082B17D8BB681B11DBB203F0DA
:101020000F0303F5801380339B027B61BB68DBB247
:1010300003F00F03012202FA03F37B82FA797B8A21
:101040001946786902F0F0FA00BF1837BD4680BD36
:1010500080B586B000AF786039600023FB753B68CF
:101060001B11DBB203F00F03082B1FD83B681B11C9
:10107000DBB203F00F0303F5801380339B023B6167
:101080003B68DBB203F00F03012202FA03F3FB819A
:10109000FB891946386902F0AFFA0346FB75FB7D00
:1010A000002B14BF01230023DBB201E06FF0150316
:1010B00018461837BD4680BD80B58AB000AFF860CD
:1010C000B9601346FB71BB681B11DBB203F00F0361
:1010D000082B44D8BB68DBB203F00F03012202FAED
:1010E00003F39BB27B610123BB6102233B62FB796B
:1010F000002B04D10123BB610023FB611EE0FB79BF
:10110000012B04D10023BB610023FB6116E0FB79B6
:10111000022B04D10023BB610123FB610EE0FB79AC
:10112000032B04D10023BB610223FB6106E0FB79A2
:10113000042B03D11123BB610023FB61BB681B118E
:10114000DBB203F00F0303F5801380339B021A46D2
:1011500007F114031946104601F0B6FF00E000BF86
:101160002837BD4680BD80B485B000AF78600023CD
:10117000FB600BE00122FB6802FA03F37A689A42F3
:1011800001D1FB6807E0FB680133FB60FB681F2BA4
:10119000F0DD4FF0FF3318461437BD465DF8047B91
:1011A0007047000080B584B000AF78607868FFF7C2
:1011B000DAFFF860FB68002B02DBFB680F2B01DD18
:1011C000002303E0FB689B00024A134418461037D3
:1011D000BD4680BD7C97010880B586B000AFF86041
:1011E000B9603B601346FB714FF0FF337B61BB6816
:1011F0001B11DBB203F00F03082B02D96FF057036A
:101200006CE0BB68DBB203F00F03012202FA03F3C8
:101210009BB21846FFF7A7FF78617B69002B02DBC2
:101220007B690F2B02DD6FF0570357E0FEF7CCFF11
:1012300038612C4A7B691B0113441B68BA689A42C7
:101240001FD1284A7B691B01134408331B683A6885
:101250009A4216D1234A7B691B01134404331B783D
:10126000FA799A420DD11F4A7B691B0113440C3352
:101270001B683A6A9A4204D13869FEF7A9FF002335
:101280002CE0184A7B691B0113441B68B3F1FF3F34
:1012900005D03869FEF79CFF6FF00F031EE0114A7E
:1012A0007B691B011344BA681A600E4A7B691B01F3
:1012B000134408333A681A600A4A7B691B011344D5
:1012C0000433FA791A70074A7B691B0113440C3303
:1012D0003A6A1A603869FEF77BFF00231846183710
:1012E000BD4680BD1800002080B584B000AF786096
:1012F00039604FF0FF33FB603B681B11DBB203F03A
:101300000F03082B02D96FF0570344E03B68DBB2B0
:1013100003F00F03012202FA03F39BB21846FFF712
:1013200022FFF860FB68002B02DBFB680F2B02DD5D
:101330006FF057032FE0FEF747FFB860184AFB68CD
:101340001B0113441B68B3F1FF3F04D1B868FEF7DB
:101350003FFF00231FE0124AFB681B0113444FF0BC
:10136000FF321A600E4AFB681B0113440833002247
:101370001A600B4AFB681B011344043300221A70E5
:10138000074AFB681B0113440C3300221A60B8683B
:10139000FEF71EFF002318461037BD4680BD00BF74
:1013A0001800002080B58CB000AFF860B96013461B
:1013B000FB714FF0FF33FB62BB681B11DBB203F024
:1013C0000F03082B02D96FF05703F5E0FB79012BCF
:1013D00040F08180BB68DBB203F00F03012202FA08
:1013E00003F39BB21846FFF7BEFEF862FB6A002BC0
:1013F00002DBFB6A0F2B02DD6FF05703DCE0FEF728
:10140000E3FE78626E4AFB6A1B0113441B68B3F16A
:10141000FF3F05D1786AFEF7DBFE6FF05703CBE0A4
:10142000FB6A9B00674A1344BB62BB68DBB203F0F4
:101430000F03012202FA03F39BB23B610223FB611B
:101440005F4AFB6A1B01134404331B78022B12D042
:10145000022B16DC002B02D0012B06D011E0022358
:10146000BB614FF488137B610BE00123BB614FF438
:1014700004137B6105E00023BB614FF444137B61DF
:1014800000BFBB681B11DBB203F00F0303F5801331
:1014900080339B021A4607F110031946104601F0EB
:1014A00013FEBB6A93F9023000220521184601F0B1
:1014B000F0FABB6A93F90230184601F006FBBB6AEA
:1014C0001B881A46404B1B6813433F4A1360786AD7
:1014D000FEF77EFE6FE0FB79002B69D1BB68DBB2C3
:1014E00003F00F03012202FA03F39BB21846FFF741
:1014F00059FEB862BB6A002B02D16FF057035BE064
:10150000FEF762FE7862BB681B11DBB203F00F03CB
:1015100003F5801380339B021846BB68DBB203F0EF
:101520000F03012202FA03F39BB2194601F068FF90
:10153000BB6A1B88DB431A46234B1B681340224AB5
:101540001360BB6A1B881F2B11D9BB6A1B88B3F5BC
:10155000007F0CD81C4B1B6803F47873002B23D13D
:10156000BB6A93F90230184601F0BDFA1CE0BB6A71
:101570001B88B3F5806F11D3BB6A1B88B3F5004F8E
:101580000CD8114B1B6803F47C43002B0CD1BB6AB5
:1015900093F90230184601F0A6FA05E0BB6A93F908
:1015A0000230184601F09FFA786AFEF711FE02E059
:1015B0006FF0570300E0002318463037BD4680BD6A
:1015C000180000207C9701087816002080B582B0B2
:1015D00000AF78600C4A7B681B01134408331B681A
:1015E000002B0DD0084A7B681B01134408331B688D
:1015F00005497A6812010A440C321268104698476D
:1016000000BF0837BD4680BD1800002080B582B0FD
:1016100000AF0346FB80FB881846FFF7A4FD034696
:101620001846FFF7D3FF00BF0837BD4680BD80B521
:1016300000AF10F039F8012002F010F810F048F86F
:1016400000BF80BD80B500AF10F02EF8022002F080
:1016500005F810F03DF800BF80BD80B500AF10F078
:1016600023F8042001F0FAFF10F032F800BF80BD2B
:1016700080B500AF10F018F8082001F0EFFF10F06F
:1016800027F800BF80BD80B500AF10F00DF8102026
:1016900001F0E4FF10F01CF800BF80BD80B500AF82
:1016A00010F002F8202001F0D9FF402001F0D6FF11
:1016B000802001F0D3FF4FF4807001F0CFFF4FF492
:1016C000007001F0CBFF10F003F800BF80BD80B5C3
:1016D00000AF0FF0E9FF4FF4806001F0BFFF4FF45F
:1016E000006001F0BBFF4FF4805001F0B7FF4FF4F2
:1016F000005001F0B3FF4FF4804001F0AFFF4FF412
:10170000004001F0ABFF0FF0E3FF00BF80BD000021
:1017100080B58AB000AF00237B62434B1B6B424A0B
:1017200043F001031363404B1B6B03F001037B6227
:101730007B6A00233B623C4B1B6B3B4A43F002033A
:101740001363394B1B6B03F002033B623B6A0023BC
:10175000FB61354B1B6B344A43F004031363324B7C
:101760001B6B03F00403FB61FB690023BB612E4B81
:101770001B6B2D4A43F0080313632B4B1B6B03F0C9
:101780000803BB61BB6900237B61274B1B6B264AA7
:1017900043F010031363244B1B6B03F010037B61B6
:1017A0007B6900233B61204B1B6B1F4A43F02003E6
:1017B00013631D4B1B6B03F020033B613B6900234C
:1017C000FB60194B1B6B184A43F040031363164B25
:1017D0001B6B03F04003FB60FB680023BB60124BF4
:1017E0001B6B114A43F0800313630F4B1B6B03F019
:1017F0008003BB60BB6800237B600B4B1B6B0A4AFA
:1018000043F480731363084B1B6B03F480737B609A
:101810007B6800220549064808F064FC0346184628
:101820002837BD4680BD00BF00380240BC97010884
:101830003C60010880B483B000AF0346FB7197F9A8
:101840000730002B12DBFB7903F01F020A4997F9DE
:1018500007305B09012000FA02F2203341F823200F
:10186000BFF34F8F00BFBFF36F8F00BF00BF0C37B8
:10187000BD465DF8047B704700E100E080B485B0B0
:1018800000AF78603960FF23FB607B68002B08D1D4
:101890003B68002B02D1FF23FB600FE07F23FB603E
:1018A0000CE07B68B3F5805F08D13B68002B03D167
:1018B00040F2FF13FB6001E0FF23FB60FB6818466A
:1018C0001437BD465DF8047B7047000080B584B0D6
:1018D00000AF786039607B68002B04D19A2266499A
:1018E000664811F0B1F93B68002B04D19B22624994
:1018F000634811F0A9F97B68A3F58C73FB60FB6862
:101900005B6C5A68FB681A603B681A68FB685A602F
:10191000FB680C225A613B681B685A4A934202D901
:101920004FF4004200E00022FB68DA613B68DB799B
:10193000C3F38003DBB2002B02D0012B04D008E0FC
:10194000FB6800229A6108E0FB684FF440729A61DC
:1019500003E0FB6800229A6100BF3B681B79C3F378
:101960000303DBB2082B02D0092B17D01BE03B6826
:101970001B7923F03F03DBB2402B06D03B681B7979
:1019800023F03F03DBB2802B04D1FB684FF480527D
:101990009A600CE0FB6800229A6008E0FB684FF454
:1019A00080529A6003E0FB6800229A6000BF3B68A7
:1019B0001B79C3F30113DBB2002B02D0012B04D03F
:1019C00008E0FB680022DA6008E0FB684FF4005290
:1019D000DA6003E0FB680022DA6000BF3B681B7935
:1019E000C3F38113DBB2022B0FD0022B12DC002BCE
:1019F00002D0012B04D00DE0FB6800221A610DE03B
:101A0000FB684FF4C0621A6108E0FB684FF4806223
:101A10001A6103E0FB6800221A6100BF7B681B8B20
:101A200003F00803002B08D13B685B68C3F38F23E6
:101A30009BB21A46FB68C3F8B020FB68184602F058
:101A40009FFB0346002B02D06FF0FE030FE0FB6804
:101A50009A68FB681B6919461046FFF70FFF02469C
:101A6000FB689A64FB684FF4FA62DA640023184654
:101A70001037BD4680BD00BFEC97010848600108E3
:101A80005C600108404B4C0080B58AB000AFF86044
:101A9000B9607A607B687B62FB68002B04D1F82216
:101AA0007749784811F0D0F8FB68A3F58C733B6256
:101AB000BB68033B1D2B00F2D68001A252F823F035
:101AC000291C0008331C0008671C0008EB1B0008D9
:101AD000391B0008671C0008671C0008671C000809
:101AE000671C0008671C0008671C0008671C0008CA
:101AF000671C0008671C0008671C0008671C0008BA
:101B0000671C0008671C0008671C0008671C0008A9
:101B1000671C0008671C0008671C0008671C000899
:101B2000671C0008671C0008671C0008671C000889
:101B3000671C00084F1C00083B6A5B6C93F9083077
:101B40001846FFF777FE7B68BB61BB69B3F5807F02
:101B500007D13B6A1B68DA683B6A1B6822F02002E7
:101B6000DA607B6AB3F5007F24D13B6A5B6CDB688B
:101B700093F90830184600F0B6FF3B6A5033184618
:101B800001F030F90346002B05D04FF488723C4930
:101B90003D4811F059F83B6A5033184601F06CF893
:101BA0000346002B61D040F215123549364811F03A
:101BB0004BF85AE07B6AB3F5006F56D13B6A5B6C19
:101BC0001B6993F90830184600F08DFF3B6AB43367
:101BD000184601F051F80346002B46D040F21D1282
:101BE0002749294811F030F83FE03B6A5B6C93F9D4
:101BF000083000220121184600F04BFF3B6A5B6C65
:101C000093F90830184600F060FF7B687B617B69C0
:101C1000B3F5807F2BD13B6A1B68DA683B6A1B688F
:101C200042F02002DA6022E0796AF86800F064FA93
:101C300020E03B6A184602F0F0FA0346002B18D069
:101C400040F23F120E49104810F0FEFF11E07B6891
:101C5000FB61FB69002B03D03B6AFA69DA6409E097
:101C60006FF0FE0307E000BF04E000BF02E000BF2A
:101C700000E000BF002318462837BD4680BD00BFE6
:101C8000FC970108486001086C60010880B584B0C9
:101C900000AF78600B46FB707B68002B05D140F2EB
:101CA0005B121649164810F0CFFF7B68A3F58C73C2
:101CB000BB60BB68DB6CFB60BB681B686FF04002FD
:101CC0001A60BB681B68FA785A6000BFBB681B6863
:101CD0001B6803F04003402B04D0FB685A1EFA60D7
:101CE000002BF3D1FB68002B01D0012301E04FF062
:101CF000FF3318461037BD4680BD00BF0C98010861
:101D00004860010880B584B000AF78607B68002B24
:101D100005D14FF4B8720F490F4810F095FF7B685A
:101D2000A3F58C73BB604FF0FF33FB60BB681B688F
:101D30001B6803F02003202B06D1BB681B685A6880
:101D4000BB689B6C1340FB60FB6818461037BD46B0
:101D500080BD00BF189801084860010880B586B0B2
:101D600000AFF860B9607A603B60FB68002B05D17A
:101D700040F285121549164810F066FFBB68002B2B
:101D800005D14FF4C3721149124810F05DFFFB6892
:101D9000A3F58C737B617B68002B01D1002311E0DC
:101DA0003B68022B0DD17B697A6892B2B9681846FC
:101DB00002F062FA0346002B01D17B6802E00023A7
:101DC00000E0002318461837BD4680BD249801085E
:101DD000486001087060010880B586B000AF786087
:101DE0000B46FB707B68002B05D140F2A3123749EC
:101DF000374810F029FF7B68A3F58C733B61FEF731
:101E0000E3F9F86000237B613B691B6D5B68BB6095
:101E1000FB78022B2ED0022B3FDC002B02D0012BB3
:101E20001BD03AE03B69D3F8B030BA689A4206D882
:101E30003B69D3F8B020BB68D31A7B6130E07B6884
:101E4000DB6CC3F38F239BB21A463B69D3F8B030E7
:101E50001A44BB68D31A7B6122E03B69D3F8B030E7
:101E6000BA689A421BD23B69D3F8B020BB68D31A38
:101E70007B6114E03B69D3F8B030BA689A420CD366
:101E80007B68DB6CC3F38F239BB21A463B69D3F8A4
:101E9000B0301A44BB68D31A7B6100BF00E000BFBA
:101EA0007B69002B0BD03B69BA68C3F8B0207B6913
:101EB0001B0243F003031946786809F0D5FBF86864
:101EC000FEF786F900BF1837BD4680BD3898010877
:101ED0004860010880B588B000AF78607B68002B4F
:101EE00005D14FF4EA727449744810F0ADFE7B6876
:101EF000A3F58C73FB61FB691B681B6803F020036F
:101F0000202B0BD1FB691B68DB6803F02003002B3F
:101F100004D00121786809F0A7FBC8E0FB691B68C1
:101F20001B6803F04003402B23D1FB691B68DB686F
:101F300003F04003002B1CD07B681B8B03F4006371
:101F4000002B04D0FB69184602F044FA0BE0FB6951
:101F50001B68DA68FB691B6822F04002DA60022124
:101F6000786809F081FBFB691B686FF040021A601A
:101F70009DE0FB69B3F81431002B1DD0FB691B6891
:101F80001B6803F01003102B16D1FB691B68DB687C
:101F900003F01003002B0FD000217868FFF71CFF1F
:101FA0000023BB61FB691B681B68BB61FB691B6885
:101FB0005B68BB61BB697AE0FB691B681B6803F067
:101FC0000803082B0AD100237B61FB691B681B688F
:101FD0007B61FB691B685B687B617B69FB691B68D4
:101FE0001B6803F00403042B0AD100233B61FB6947
:101FF0001B681B683B61FB691B685B683B613B6955
:10200000FB691B681B6803F00203022B0AD1002343
:10201000FB60FB691B681B68FB60FB691B685B68F6
:10202000FB60FB68FB691B681B6803F00103012B65
:102030000AD10023BB60FB691B681B68BB60FB699E
:102040001B685B68BB60BB68FB691B681B6803F4AB
:102050008073B3F5807F04D1FB691B686FF48072D5
:102060001A60FB691B681B6803F40073B3F5007FFB
:1020700004D1FB691B686FF400721A60FB691B686E
:102080001B6803F08003802B04D1FB691B686FF091
:1020900080021A60FB691B681B6803F02003202B79
:1020A00005D1FB691B686FF020021A60FFE700BFD3
:1020B0002037BD4680BD00BF489801084860010830
:1020C00080B500AF0FF0F0FA0348FFF703FF0FF001
:1020D000FFFA00BF80BD00BF9417002080B400AF9E
:1020E000044B0022A3F8142100BFBD465DF8047B19
:1020F000704700BF7C16002080B588B000AF7860C4
:1021000039607B68002B05D140F224427449754840
:1021100010F09AFD3B68B3F5006F09D03B68B3F54A
:10212000007F05D040F225426D496F4810F08CFDCC
:102130007B68A3F58C737B613B68B3F5007F07D1A7
:102140007B695033FB617B695B6CDB68BB6106E0DC
:102150007B69B433FB617B695B6C1B69BB610023EA
:102160003B61624B1A6BBB695B68604913430B634D
:102170005E4B1A6BBB695B6813403B613B68B3F510
:10218000007F09D17B6903F150027B699A637A6908
:102190007B69C3F888200CE03B68B3F5006F08D179
:1021A0007B6903F1B4027B695A637A697B69C3F87E
:1021B000EC20BB691A68FB691A60BB69DA68FB69C5
:1021C0005A60FB690022DA60FB694FF480621A6191
:1021D000FB6900225A61FB6900229A613B68B3F5F2
:1021E000007F07D1FB6900229A60FB694FF480727F
:1021F000DA6109E03B68B3F5006F05D1FB69402265
:102200009A60FB690022DA61FB694FF480321A623E
:10221000FB6900225A62F86900F02EFD0346002B8C
:1022200005D040F279422E49314810F00DFDF86991
:1022300000F074FC0346002B05D040F27E42284992
:102240002B4810F001FD3B68B3F5007F26D17B6879
:102250001B6DFB607869FB6819687B68DB6CC3F3F6
:102260008F239BB21A4602F085F80346002B05D057
:1022700040F289421A491E4810F0E6FC7B691B684F
:102280005A697B691B6822F001025A617B691B68ED
:10229000DA687B691B6842F01002DA60BB6993F967
:1022A000083000220021184600F0F3FBBB6993F9C7
:1022B0000830184600F009FC7B695B6C93F9083024
:1022C00000220121184600F0E4FB7B695B6C93F966
:1022D0000830184600F0F9FB00BF2037BD4680BD2E
:1022E00054980108486001088060010800380240E5
:1022F0006C60010880B584B000AF78607B68002B0B
:1023000005D140F2A3420549054810F09DFC7B68C9
:10231000FB6000BF1037BD4680BD00BF6898010854
:10232000C060010880B584B000AF78607B68002B86
:1023300005D140F2B3420849084810F085FC7B689B
:10234000FB60FB6803F58C7302211846FFF744FD20
:1023500000BF1037BD4680BD80980108C0600108ED
:1023600080B584B000AF78607B68002B05D140F267
:10237000C2420849084810F067FC7B68FB60FB68B4
:1023800003F58C7301211846FFF726FD00BF1037B7
:10239000BD4680BD98980108C060010880B586B030
:1023A00000AF78607B68002B05D140F2CD420F4929
:1023B0000F4810F049FC7B68A3F58C737B61FDF737
:1023C00003FF38617B69D3F8B4305B68FB60386920
:1023D000FDF7FEFEFB68002B03D10421786809F0AD
:1023E00043F900BF1837BD4680BD00BFB49801084F
:1023F0004860010880B584B000AF78607B68002B2E
:1024000005D140F2E4420849084810F01DFC7B6801
:10241000FB60FB6803F58C731846FFF7BFFF00BF36
:102420001037BD4680BD00BFC8980108C0600108D4
:1024300090B585B000AF394A3B4692E8030083E887
:1024400003000023FB60FFF749FE0023BB605CE054
:10245000BA6813469B0013449B00314A99183148CF
:10246000BA6813465B001344DB010344443319602C
:102470002C49BA6813465B001344DB010B4403F597
:10248000AE73294A1A602749BA6813465B001344A1
:10249000DB010B4403F5B0731A463B4693E8030097
:1024A00082E80300BA6813465B001344DB0103F5BE
:1024B0008C731C4A98181B49BA6813465B00134476
:1024C000DB010B4444331B681968164CBA68134689
:1024D0005B001344DB01234403F58A731B8843F438
:1024E000A06343F003039BB21A46002309F06AF885
:1024F000F860FB68002B05D04FF4A1620B490C4833
:1025000010F0A2FBBB680133BB60BB68002B9FD0FF
:10251000FB6818461437BD4690BD00BFE460010853
:10252000180100207C160020D8970108E0980108C7
:10253000D060010880B483B000AF03463960FB71FE
:1025400097F90730002B0ADB3B68DAB20C4997F9A0
:1025500007301201D2B20B4483F800230AE03B6833
:10256000DAB20849FB7903F00F03043B1201D2B23F
:102570000B441A7600BF0C37BD465DF8047B7047EC
:1025800000E100E000ED00E080B582B000AF03465E
:102590003960FB7106F06CFD00BF0837BD4680BD99
:1025A00080B500AF00F0D4F80C4B1B680C4AA2FBBE
:1025B00003239B09184600F0A4FAFF214FF0FF30D7
:1025C000FFF7B8FF074B01221A60064B1B68002B70
:1025D00002D1044B01221A6000BF80BD30010020EF
:1025E000D34D62102C01002080B500AF0FF05CF8D5
:1025F000064B1B6803F48033002B01D000F01AF85F
:102600000CF0F2FA0FF064F800BF80BD10E000E0BB
:1026100080B500AF054B1B6803F48033002B01D05D
:1026200000F008F8024B1B68184680BD10E000E07F
:10263000FC17002080B400AF054B1A68054B1B68DF
:102640001344034A136000BFBD465DF8047B704726
:10265000FC1700202C01002080B582B000AF78600C
:10266000FFF79EFF002318460837BD4680BD0000D7
:1026700080B582B000AF78603960064810F09AF8F3
:102680003A687968044810F095F8044810F092F818
:10269000FEE700BFEC600108046101082461010845
:1026A00080B500AF00F0D4F8FEF7BEFB074908483C
:1026B00010F00CFAFFF72CF8FFF7BAFE054810F0FF
:1026C00029F80CF013FB00BF80BD00BF0000022002
:1026D000886000202C610108DFF834D00D480E49D5
:1026E0000E4A002302E0D458C4500433C4188C426C
:1026F000F9D30B4A0B4C002301E013600432A242D1
:10270000FBD300F013F806F0D9F90CF023FB704767
:10271000A40C002000000020A4080020BCA901088F
:10272000A80C002088600020FEE7000080B400AF05
:10273000064BD3F88830054A43F47003C2F888305A
:1027400000BFBD465DF8047B704700BF00ED00E0B0
:1027500080B487B000AF00233B6100237B6102237C
:10276000FB600023BB6002237B60344B9B6803F05B
:102770000C033B613B69082B11D03B69082B44D803
:102780003B69002B03D03B69042B04D03DE02C4B6C
:102790002C4A1A603DE02A4B2B4A1A6039E0274B3D
:1027A0005B689B0D03F00103BB60244B5B6803F087
:1027B0003F037B60BB68002B0CD0234A7B68B2FBD5
:1027C000F3F31E4A52689209C2F3080202FB03F3B4
:1027D0007B610BE01B4A7B68B2FBF3F3174A52683C
:1027E0009209C2F3080202FB03F37B61134B5B689F
:1027F0001B0C03F0030301335B00FB607A69FB6889
:10280000B2FBF3F30E4A136003E00D4B0D4A1A605E
:1028100000BF0A4B9B681B0903F00F030B4AD35CF4
:102820003B61074B1A683B6922FA03F3044A1360C1
:1028300000BF1C37BD465DF8047B7047003802407E
:10284000300100200024F40000127A000C990108E5
:1028500080B500AF0E4B1B680D4A43F40073136044
:102860000B4B1B680A4A43F480631360084B1B68D8
:10287000074A43F480731360032000F0FFF8002040
:10288000FFF7EAFEFEF7F0F90023184680BD00BF0F
:10289000003C024080B485B000AF78607B6803F0F4
:1028A0000703FB600C4BDB68BB60BA684FF6FF03A5
:1028B0001340BB60FB681A02BB68134343F0BF635D
:1028C00043F40033BB60044ABB68D36000BF1437D5
:1028D000BD465DF8047B704700ED00E080B400AFBA
:1028E000044BDB681B0A03F007031846BD465DF87E
:1028F000047B704700ED00E080B483B000AF034676
:10290000FB7197F90730002B0BDBFB7903F01F02FB
:10291000074997F907305B09012000FA02F241F8F4
:10292000232000BF0C37BD465DF8047B704700BF15
:1029300000E100E080B483B000AF0346FB7197F97B
:102940000730002B12DBFB7903F01F020A4997F9CD
:1029500007305B09012000FA02F2203341F82320FE
:10296000BFF34F8F00BFBFF36F8F00BF00BF0C37A7
:10297000BD465DF8047B704700E100E080B483B0A1
:1029800000AF03463960FB7197F90730002B0ADB73
:102990003B68DAB20C4997F907301201D2B20B4406
:1029A00083F800230AE03B68DAB20849FB7903F0B8
:1029B0000F03043B1201D2B20B441A7600BF0C374E
:1029C000BD465DF8047B704700E100E000ED00E0EB
:1029D00080B489B000AFF860B9607A60FB6803F03A
:1029E0000703FB61FB69C3F10703042B28BF042322
:1029F000BB61FB690433062B02D9FB69033B00E092
:102A000000237B614FF0FF32BB6902FA03F3DA4324
:102A1000BB681A407B699A404FF0FF317B6901FA2D
:102A200003F3D9437B680B40134318462437BD4654
:102A30005DF8047B7047000080B582B000AF78601D
:102A40007B68013BB3F1807F01D301230FE00A4A89
:102A50007B68013B53600F214FF0FF30FFF78EFF83
:102A6000054B00229A60044B07221A600023184687
:102A70000837BD4680BD00BF10E000E080B582B0E1
:102A800000AF78607868FFF705FF00BF0837BD46E4
:102A900080BD80B586B000AF0346B9607A60FB7335
:102AA00000237B61FFF71AFF78617A68B96878695B
:102AB000FFF78EFF024697F90F3011461846FFF7D1
:102AC0005DFF00BF1837BD4680BD80B582B000AF46
:102AD0000346FB7197F907301846FFF70DFF00BF5B
:102AE0000837BD4680BD80B582B000AF0346FB719C
:102AF00097F907301846FFF71DFF00BF0837BD469E
:102B000080BD80B582B000AF78607868FFF794FF31
:102B1000034618460837BD4680BD000080B586B024
:102B200000AF786000237B61FFF772FD38617B683E
:102B3000002B01D1012399E07B68022283F8352024
:102B40007B68002283F834207B681B681A687B68E6
:102B50001B6822F001021A600FE0FFF759FD0246E0
:102B60003B69D31A052B08D97B6820225A657B68FC
:102B7000032283F83520032378E07B681B681B68F9
:102B800003F00103002BE8D17B681B681B687B61A5
:102B90007A69384B13407B617B685A687B689B6815
:102BA0001A437B68DB681A437B681B691A437B689E
:102BB0005B691A437B689B691A437B68DB691A432C
:102BC0007B681B6A13437A6913437B617B685B6A8A
:102BD000042B07D17B68DA6A7B681B6B13437A6925
:102BE00013437B617B681B687A691A607B681B688A
:102BF0005B697B617B6923F007037B617B685B6AB0
:102C00007A6913437B617B685B6A042B17D17B680D
:102C10009B6A7A6913437B617B68DB6A002B0ED069
:102C2000786800F0D5F90346002B08D07B68402275
:102C30005A657B68012283F83520012316E07B6802
:102C40001B687A695A61786800F08CF90346FB606A
:102C50007B68DB6D3F229A40FB689A607B680022AC
:102C60005A657B68012283F83520002318461837FF
:102C7000BD4680BD3F8010F080B584B000AF786065
:102C80007B68002B01D1012350E07B6893F835303D
:102C9000DBB2022B01D1022348E07B681B681A6873
:102CA0007B681B6822F001021A607B681B680022A7
:102CB0001A607B681B6800225A607B681B680022D0
:102CC0009A607B681B680022DA607B681B680022C0
:102CD0001A617B681B6821225A61786800F042F90A
:102CE0000346FB607B680022DA637B6800221A647B
:102CF0007B6800225A647B6800229A647B68002209
:102D0000DA647B6800221A657B68DB6D3F229A409B
:102D1000FB689A607B6800225A657B68002283F812
:102D200035207B68002283F83420002318461037B2
:102D3000BD4680BD80B586B000AFF860B9607A60EE
:102D40003B600023FB75FB689B6D3B61FB6893F860
:102D50003430012B01D1022340E0FB68012283F8CB
:102D60003420FB6893F83530DBB2012B2FD1FB68A0
:102D7000022283F83520FB6800225A653B687A6896
:102D8000B968F86800F0C0F8FB68DB6D3F229A4034
:102D90003B699A60FB681B681A68FB681B6842F015
:102DA00016021A60FB681B6C002B07D0FB681B68BF
:102DB0001A68FB681B6842F008021A60FB681B680F
:102DC0001A68FB681B6842F001021A6005E0FB68A4
:102DD000002283F834200223FB75FB7D1846183748
:102DE000BD4680BD80B584B000AF78607B689B6DC8
:102DF000FB60FFF70DFCB8607B6893F83530DBB201
:102E0000022B08D07B6880225A657B68002283F8F9
:102E10003420012352E07B681B681A687B681B68BA
:102E200022F016021A607B681B685A697B681B686F
:102E300022F080025A617B681B6C002B03D17B68F7
:102E40009B6C002B07D07B681B681A687B681B682B
:102E500022F008021A607B681B681A687B681B688E
:102E600022F001021A6013E0FFF7D2FB0246BB68B2
:102E7000D31A052B0CD97B6820225A657B68032264
:102E800083F835207B68002283F83420032315E083
:102E90007B681B681B6803F00103002BE4D17B688F
:102EA000DB6D3F229A40FB689A607B68012283F8C1
:102EB00035207B68002283F8342000231846103721
:102EC000BD4680BD80B483B000AF78607B6893F866
:102ED0003530DBB2022B04D07B6880225A65012397
:102EE0000CE07B68052283F835207B681B681A6834
:102EF0007B681B6822F001021A60002318460C3719
:102F0000BD465DF8047B704780B485B000AFF860C3
:102F1000B9607A603B60FB681B681A68FB681B68D5
:102F200022F480221A60FB681B683A685A60FB68CA
:102F30009B68402B08D1FB681B687A689A60FB6825
:102F40001B68BA68DA6007E0FB681B68BA689A60B9
:102F5000FB681B687A68DA6000BF1437BD465DF80D
:102F6000047B704780B485B000AF78607B681B68D5
:102F7000DBB2103B144AA2FB03231B09FB60134A7C
:102F8000FB6813441B781A467B68DA65FB68032BE1
:102F900009D97B681B6823F47F7323F003031A1D90
:102FA0007B689A6507E07B681B6823F47F7323F0D6
:102FB00003037A6893657B689B6D18461437BD469A
:102FC0005DF8047B704700BFABAAAAAA2499010848
:102FD00080B485B000AF78600023FB737B689B6A88
:102FE000BB607B689B69002B1FD1BB68032B56D845
:102FF00001A252F823F000BF093000081B3000087E
:10300000093000089F3000087B68DB6A03F080739A
:10301000002B46D00123FB7343E07B68DB6AB3F1EE
:10302000C07F40D10123FB733DE07B689B69B3F512
:10303000005F21D1BB68032B37D801A252F823F0DF
:10304000513000085730000851300008693000083E
:103050000123FB7330E07B68DB6A03F08073002B95
:1030600025D00123FB7322E07B68DB6AB3F1C07FCC
:103070001FD10123FB731CE0BB68022B03D9BB6883
:10308000032B03D018E00123FB7315E07B68DB6A98
:1030900003F08073002B0ED00123FB730BE000BF05
:1030A0000AE000BF08E000BF06E000BF04E000BF88
:1030B00002E000BF00E000BFFB7B18461437BD46AE
:1030C0005DF8047B704700BF80B489B000AF7860C2
:1030D000396000237B6100233B610023BB61002337
:1030E000FB616BE10122FB6902FA03F37B613B6840
:1030F0001B687A6913403B613A697B699A4240F0E8
:103100005A813B685B6803F00303012B05D03B68E1
:103110005B6803F00303022B30D17B689B68BB61C3
:10312000FB695B00032202FA03F3DB43BA69134035
:10313000BB613B68DA68FB695B0002FA03F3BA69BA
:103140001343BB617B68BA699A607B685B68BB614B
:103150000122FB6902FA03F3DB43BA691340BB6146
:103160003B685B681B0903F00102FB6902FA03F389
:10317000BA691343BB617B68BA695A603B685B6894
:1031800003F00303032B17D07B68DB68BB61FB698B
:103190005B00032202FA03F3DB43BA691340BB610D
:1031A0003B689A68FB695B0002FA03F3BA69134350
:1031B000BB617B68BA69DA603B685B6803F0030354
:1031C000022B23D1FB69DA087B68083253F82230DE
:1031D000BB61FB6903F007039B000F2202FA03F3B4
:1031E000DB43BA691340BB613B681A69FB6903F0B2
:1031F00007039B0002FA03F3BA691343BB61FB693F
:10320000DA087B680832B96943F822107B681B68CA
:10321000BB61FB695B00032202FA03F3DB43BA697B
:103220001340BB613B685B6803F00302FB695B0012
:1032300002FA03F3BA691343BB617B68BA691A6087
:103240003B685B6803F44033002B00F0B48000233C
:10325000FB60604B5B6C5F4A43F4804353645D4B9F
:103260005B6C03F48043FB60FB685B4AFB699B0873
:10327000023352F82330BB61FB6903F003039B0068
:103280000F2202FA03F3DB43BA691340BB617B6888
:10329000524A93422BD07B68514A934225D07B6897
:1032A000504A93421FD07B684F4A934219D07B68A3
:1032B0004E4A934213D07B684D4A93420DD07B68AF
:1032C0004C4A934207D07B684B4A934201D1072373
:1032D0000EE008230CE006230AE0052308E004239F
:1032E00006E0032304E0022302E0012300E00023C0
:1032F000FA6902F0030292009340BA691343BB617A
:103300003549FB699B080233BA6941F823203B4BDE
:103310001B68BB613B69DB43BA691340BB613B6817
:103320005B6803F48033002B03D0BA693B69134315
:10333000BB61324ABB691360304B5B68BB613B6960
:10334000DB43BA691340BB613B685B6803F400333D
:10335000002B03D0BA693B691343BB61274ABB69A1
:103360005360264B9B68BB613B69DB43BA691340E2
:10337000BB613B685B6803F48013002B03D0BA6920
:103380003B691343BB611D4ABB6993601B4BDB6800
:10339000BB613B69DB43BA691340BB613B685B6857
:1033A00003F40013002B03D0BA693B691343BB61DC
:1033B000124ABB69D360FB690133FB61FB690F2BC8
:1033C0007FF690AE00BF00BF2437BD465DF8047B9A
:1033D000704700BF00380240003801400000024042
:1033E0000004024000080240000C024000100240AD
:1033F0000014024000180240001C0240003C014042
:1034000080B487B000AF7860396000233B6100234F
:10341000FB600023BB6000237B61CDE001227B6960
:1034200002FA03F33B613A683B691340FB60FA68B8
:103430003B699A4240F0BD80654A7B699B08023334
:1034400052F82330BB607B6903F003039B000F221B
:1034500002FA03F3BA681340BB607B685D4A93428B
:103460002BD07B685C4A934225D07B685B4A9342B1
:103470001FD07B685A4A934219D07B68594A9342BD
:1034800013D07B68584A93420DD07B68574A9342C9
:1034900007D07B68564A934201D107230EE00823E8
:1034A0000CE006230AE0052308E0042306E00323DA
:1034B00004E0022302E0012300E000237A6902F025
:1034C000030292009340BA689A4232D1494B1A687B
:1034D000FB68DB43474913400B60464B5A68FB6867
:1034E000DB43444913404B60424B9A68FB68DB4323
:1034F000404913408B603F4BDA68FB68DB433D4932
:103500001340CB607B6903F003039B000F2202FA98
:1035100003F3BB602E4A7B699B08023352F82310E9
:10352000BB68DA432A487B699B080A40023340F8AB
:1035300023207B681A687B695B00032101FA03F38F
:10354000DB431A407B681A607B69DA087B680832C3
:1035500053F822107B6903F007039B000F2202FA45
:1035600003F3DB437A69D20819407B68083243F8D9
:1035700022107B68DA687B695B00032101FA03F3A0
:10358000DB431A407B68DA607B685A6801217B69FB
:1035900001FA03F3DB431A407B685A607B689A6840
:1035A0007B695B00032101FA03F3DB431A407B686C
:1035B0009A607B6901337B617B690F2B7FF62EAFAD
:1035C00000BF00BF1C37BD465DF8047B704700BFDD
:1035D00000380140000002400004024000080240A0
:1035E000000C02400010024000140240001802408B
:1035F000001C0240003C014080B485B000AF786000
:103600000B467B807B681A697B881340002B02D0B5
:103610000123FB7301E00023FB73FB7B1846143787
:10362000BD465DF8047B704780B483B000AF78601E
:103630000B467B8013467B707B78002B03D07A8807
:103640007B689A6103E07B881A047B689A6100BFFB
:103650000C37BD465DF8047B7047000080B582B032
:1036600000AF0346FB80084B5A69FB881340002BD0
:1036700006D0054AFB885361FB881846FDF7C6FF54
:1036800000BF0837BD4680BD003C014080B586B014
:1036900000AF78607B68002B01D1012367E27B6873
:1036A0001B6803F00103002B75D0884B9B6803F067
:1036B0000C03042B0CD0854B9B6803F00C03082BE8
:1036C00012D1824B5B6803F48003B3F5800F0BD1FA
:1036D0007E4B1B6803F40033002B5BD07B685B6878
:1036E000002B57D1012342E27B685B68B3F5803F32
:1036F00006D1764B1B68754A43F4803313601DE096
:103700007B685B68B3F5A02F0CD1704B1B686F4AC8
:1037100043F4802313606D4B1B686C4A43F4803381
:1037200013600BE0694B1B68684A23F48033136015
:10373000664B1B68654A23F4802313607B685B68D3
:10374000002B13D0FEF764FF386108E0FEF760FF3E
:1037500002463B69D31A642B01D9032307E25B4B72
:103760001B6803F40033002BF0D014E0FEF750FF89
:10377000386108E0FEF74CFF02463B69D31A642B20
:1037800001D90323F3E1514B1B6803F40033002BF1
:10379000F0D100E000BF7B681B6803F00203002B40
:1037A00063D04A4B9B6803F00C03002B0BD0474BB4
:1037B0009B6803F00C03082B1CD1444B5B6803F49B
:1037C0008003002B16D1414B1B6803F00203002B32
:1037D00005D07B68DB68012B01D00123C7E13B4B9F
:1037E0001B6823F0F8027B681B69DB003749134331
:1037F0000B603AE07B68DB68002B20D0344B012261
:103800001A60FEF705FF386108E0FEF701FF024687
:103810003B69D31A022B01D90323A8E12B4B1B6868
:1038200003F00203002BF0D0284B1B6823F0F802B2
:103830007B681B69DB00254913430B6015E0244BB3
:1038400000221A60FEF7E4FE386108E0FEF7E0FEB1
:1038500002463B69D31A022B01D9032387E11B4B94
:103860001B6803F00203002BF0D17B681B6803F098
:103870000803002B36D07B685B69002B16D0154BF4
:1038800001221A60FEF7C4FE386108E0FEF7C0FEB0
:1038900002463B69D31A022B01D9032367E10B4B84
:1038A0005B6F03F00203002BF0D01BE0094B0022FA
:1038B0001A60FEF7ADFE38610EE0FEF7A9FE024683
:1038C0003B69D31A022B07D9032350E10038024089
:1038D00000004742800E4742884B5B6F03F00203B3
:1038E000002BEAD17B681B6803F00403002B00F077
:1038F00097800023FB75814B1B6C03F08053002BDA
:103900000FD10023BB607D4B1B6C7C4A43F080537E
:1039100013647A4B1B6C03F08053BB60BB680123BC
:10392000FB75774B1B6803F48073002B18D1744B25
:103930001B68734A43F480731360FEF769FE3861B5
:1039400008E0FEF765FE02463B69D31A022B01D957
:1039500003230CE16A4B1B6803F48073002BF0D047
:103960007B689B68012B06D1644B1B6F634A43F055
:10397000010313671CE07B689B68052B0CD15F4B30
:103980001B6F5E4A43F0040313675C4B1B6F5B4A7B
:1039900043F0010313670BE0584B1B6F574A23F0AA
:1039A00001031367554B1B6F544A23F0040313673D
:1039B0007B689B68002B15D0FEF72AFE38610AE071
:1039C000FEF726FE02463B69D31A41F28832934243
:1039D00001D90323CBE0494B1B6F03F00203002BFB
:1039E000EED014E0FEF714FE38610AE0FEF710FE98
:1039F00002463B69D31A41F28832934201D903232C
:103A0000B5E03E4B1B6F03F00203002BEED1FB7DB4
:103A1000012B05D1394B1B6C384A23F080531364BA
:103A20007B689B69002B00F0A180344B9B6803F0FE
:103A30000C03082B5CD07B689B69022B41D1314B76
:103A400000221A60FEF7E4FD386108E0FEF7E0FDB1
:103A500002463B69D31A022B01D9032387E0274B87
:103A60001B6803F00073002BF0D17B68DA697B6878
:103A70001B6A1A437B685B6A9B011A437B689B6ADB
:103A80005B08013B1B041A437B68DB6A1B061B496E
:103A900013434B601B4B01221A60FEF7B9FD3861DE
:103AA00008E0FEF7B5FD02463B69D31A022B01D9A7
:103AB00003235CE0114B1B6803F00073002BF0D074
:103AC00054E0104B00221A60FEF7A2FD386108E0B6
:103AD000FEF79EFD02463B69D31A022B01D9032350
:103AE00045E0064B1B6803F00073002BF0D13DE06E
:103AF0007B689B69012B07D1012338E00038024025
:103B000000700040600047421B4B5B68FB607B68B5
:103B10009B69012B28D0FB6803F480027B68DB697A
:103B20009A4221D1FB6803F03F027B681B6A9A42EC
:103B30001AD1FA6847F6C07313407A68526A920144
:103B4000934211D1FB6803F440327B689B6A5B08A7
:103B5000013B1B049A4207D1FB6803F070627B684B
:103B6000DB6A1B069A4201D0012300E000231846BD
:103B70001837BD4680BD00BF0038024080B584B014
:103B800000AF786039607B68002B01D10123CCE065
:103B9000684B1B6803F007033A689A420CD9654BDF
:103BA0003A68D2B21A70634B1B6803F007033A6895
:103BB0009A4201D00123B8E07B681B6803F002033E
:103BC000002B20D07B681B6803F00403002B05D07A
:103BD000594B9B68584A43F4E05393607B681B68D9
:103BE00003F00803002B05D0534B9B68524A43F463
:103BF00060439360504B9B6823F0F0027B689B68A6
:103C00004D4913438B607B681B6803F00103002B55
:103C100044D07B685B68012B07D1474B1B6803F4DA
:103C20000033002B19D101237FE07B685B68022BF6
:103C300003D07B685B68032B07D13F4B1B6803F005
:103C40000073002B09D101236FE03B4B1B6803F08D
:103C50000203002B01D1012367E0374B9B6823F05F
:103C600003027B685B68344913438B60FEF7D0FC2A
:103C7000F8600AE0FEF7CCFC0246FB68D31A41F27A
:103C80008832934201D903234FE02B4B9B6803F00A
:103C90000C027B685B689B009A42EBD1254B1B684A
:103CA00003F007033A689A420CD2224B3A68D2B228
:103CB0001A70204B1B6803F007033A689A4201D040
:103CC000012332E07B681B6803F00403002B08D05B
:103CD000194B9B6823F4E0527B68DB681649134359
:103CE0008B607B681B6803F00803002B09D0124B24
:103CF0009B6823F460427B681B69DB000E49134319
:103D00008B6000F021F802460B4B9B681B0903F007
:103D10000F030A49CB5C22FA03F3094A1360094BEB
:103D20001B681846FEF798FC002318461037BD465E
:103D300080BD00BF003C0240003802400C990108E1
:103D400030010020340100202DE9B04F94B000AFC5
:103D500000237B640023FB6400233B640023BB64DB
:103D6000794B9B6803F00C03082B0DD0082B00F255
:103D7000E180002B02D0042B03D0DBE0734BBB644B
:103D8000DBE0734BBB64D8E06F4B5B6803F03F0331
:103D90007B646D4B5B6803F48003002B63D06A4B3C
:103DA0005B689B090022BB63FA63BB6BC3F3080328
:103DB0003B6300237B63D7E90C4522462B464FF03B
:103DC00000004FF00001590141EAD2615001024662
:103DD0000B462146511A3961294663EB01037B6189
:103DE0004FF000024FF00003D7E904AB59468B01B6
:103DF000514643EA916351468A015146B2EB0108AC
:103E0000594663EB01094FF000024FF000034FEAFF
:103E1000C90343EA58734FEAC802904699462346BD
:103E200018EB0303BB602B4649EB0303FB604FF029
:103E300000024FF00003D7E9024529464B02214614
:103E400043EAD15321464A02104619467B6C0022B0
:103E5000BB62FA62D7E90A23FCF740FC02460B4634
:103E60001346FB6458E0384B5B689B0900221846F8
:103E70001146C0F308033B6200237B62D7E908893F
:103E800042464B464FF000004FF00001590141EA15
:103E9000D261500102460B464146B2EB010A494647
:103EA00063EB010B4FF000024FF000034FEA8B135E
:103EB00043EA9A634FEA8A12B2EB0A0463EB0B05FA
:103EC0004FF000024FF00003EB0043EA5473E200AE
:103ED00014461D464346E3183B604B4645EB03033F
:103EE0007B604FF000024FF00003D7E90045294600
:103EF0008B02214643EA915321468A021046194615
:103F00007B6C0022BB61FA61D7E90623FCF7E6FB74
:103F100002460B461346FB640B4B5B681B0C03F01D
:103F2000030301335B003B64FA6C3B6CB2FBF3F3BD
:103F3000BB6402E0054BBB6400BFBB6C1846503746
:103F4000BD46BDE8B08F00BF003802400024F40039
:103F500000127A0080B400AF034B1B681846BD46C0
:103F60005DF8047B704700BF3001002080B500AFD2
:103F7000FFF7F0FF0246054B9B689B0A03F007031F
:103F80000349CB5C22FA03F3184680BD0038024097
:103F90001C99010880B500AFFFF7DCFF0246054B16
:103FA0009B685B0B03F007030349CB5C22FA03F326
:103FB000184680BD003802401C99010880B586B0C3
:103FC00000AF786000237B6100233B617B681B6846
:103FD00003F00103002B05D17B681B6803F0040389
:103FE000002B35D0624B00221A60FEF711FB78617E
:103FF00008E0FEF70DFB02467B69D31A022B01D9BC
:104000000323B0E05B4B1B6803F00063002BF0D18F
:104010007B685B689A017B689B681B075549134363
:10402000C1F88430524B01221A60FEF7F1FA786130
:1040300008E0FEF7EDFA02467B69D31A022B01D99C
:10404000032390E04B4B1B6803F00063002BF0D080
:104050007B681B6803F00203002B00F083800023C1
:10406000FB60444B1B6C434A43F080531364414B49
:104070001B6C03F08053FB60FB683F4B1B683E4AA0
:1040800043F480731360FEF7C3FA786108E0FEF72B
:10409000BFFA02467B69D31A022B01D9032362E0DF
:1040A000354B1B6803F48073002BF0D0314B1B6F32
:1040B00003F440733B613B69002B2FD07B68DB68C6
:1040C00003F440733A699A4228D02A4B1B6F23F4B9
:1040D00040733B61294B01221A60284B00221A6071
:1040E000244A3B691367234B1B6F03F00103012B29
:1040F00014D1FEF78DFA78610AE0FEF789FA0246DC
:104100007B69D31A41F28832934201D903232AE012
:10411000184B1B6F03F00203002BEED07B68DB68AB
:1041200003F44073B3F5407F0DD1124B9B6823F429
:10413000F8127B68DB6823F0704323F440730D4969
:1041400013438B6005E00B4B9B680A4A23F4F8137A
:104150009360084B1A6F7B68DB68C3F30B03054958
:1041600013430B67002318461837BD4680BD00BFB8
:10417000680047420038024000700040400E47424D
:1041800080B582B000AF78607B68002B01D101233D
:104190003FE07B6893F83D30DBB2002B06D17B68B3
:1041A000002283F83C207868FCF786FD7B68242297
:1041B00083F83D207B681B68DA687B681B6822F403
:1041C0000052DA60786800F059FF7B681B681A6952
:1041D0007B681B6822F490421A617B681B685A69ED
:1041E0007B681B6822F02A025A617B681B68DA68C8
:1041F0007B681B6842F40052DA607B6800221A6414
:104200007B68202283F83D207B68202283F83E20B3
:10421000002318460837BD4680BD80B582B000AF88
:1042200078607B68002B01D1012321E07B68242288
:1042300083F83D207B681B68DA687B681B6822F482
:104240000052DA607868FCF7BBFD7B6800221A64D4
:104250007B68002283F83D207B68002283F83E20A3
:104260007B6800221A637B68002283F83C200023CD
:1042700018460837BD4680BD80B58CB000AFF860E9
:10428000B9601346FB80FB6893F83D30DBB2202B0E
:1042900065D1BB68002B02D0FB88002B01D1012324
:1042A0005EE0FB6893F83C30012B01D1022357E01C
:1042B000FB68012283F83C20BA68FB681A62FB683D
:1042C000FA889A84FB68FA88DA84FB6800221A6408
:1042D000FB68212283F83D20FB685B6B224ADA638E
:1042E000FB685B6B214A1A64FB685B6B204ADA64EB
:1042F000FB685B6B00221A6507F10803FB62FB6831
:10430000586BFB6A1968FB681B6804331A46FB8804
:10431000FEF710FDFB681B686FF040021A60FB6837
:10432000002283F83C20FB681B681433BB61BB6927
:1043300053E8003F7B617B6943F08003BB62FB680D
:104340001B681433BA6A7A623B62396A7A6A41E856
:104350000023FB61FB69002BE5D1002300E0022371
:1043600018463037BD4680BD1D490008B7490008D2
:104370002F4B000880B584B000AFF860B9601346D9
:10438000FB80FB6893F83E30DBB2202B1DD1BB686D
:10439000002B02D0FB88002B01D1012316E0FB6823
:1043A00093F83C30012B01D102230FE0FB6801227E
:1043B00083F83C20FB6800221A63FB881A46B96820
:1043C000F86800F0FFFB034600E0022318461037B0
:1043D000BD4680BD80B5BAB000AF78607B681B6811
:1043E0001B68C7F8E4307B681B68DB68C7F8E030FF
:1043F0007B681B685B69C7F8DC300023C7F8D830DE
:104400000023C7F8D430D7F8E43003F00F03C7F81F
:10441000D830D7F8D830002B0FD1D7F8E43003F0DC
:104420002003002B09D0D7F8E03003F02003002B45
:1044300003D0786800F067FD56E2D7F8D830002B3B
:1044400000F0DE80D7F8DC3003F00103002B06D14A
:10445000D7F8E03003F49073002B00F0D180D7F848
:10446000E43003F00103002B0BD0D7F8E03003F465
:104470008073002B05D07B681B6C43F001027B68C6
:104480001A64D7F8E43003F00403002B0BD0D7F8FC
:10449000DC3003F00103002B05D07B681B6C43F07C
:1044A00002027B681A64D7F8E43003F00203002BA1
:1044B0000BD0D7F8DC3003F00103002B05D07B686C
:1044C0001B6C43F004027B681A64D7F8E43003F0F5
:1044D0000803002B11D0D7F8E03003F02003002BA5
:1044E00005D1D7F8DC3003F00103002B05D07B6841
:1044F0001B6C43F008027B681A647B681B6C002B02
:1045000000F0ED81D7F8E43003F02003002B08D051
:10451000D7F8E03003F02003002B02D0786800F0D9
:10452000F2FC7B681B685B6903F04003402B0CBF07
:1045300001230023DBB2C7F8D4307B681B6C03F087
:104540000803002B03D1D7F8D430002B4FD0786864
:1045500000F0FAFB7B681B685B6903F04003402BAB
:1045600041D17B681B681433C7F89C30D7F89C3066
:1045700053E8003FC7F89830D7F8983023F040034D
:10458000C7F8D0307B681B681433D7F8D020C7F841
:10459000A820C7F8A430D7F8A410D7F8A82041E87D
:1045A0000023C7F8A030D7F8A030002BD9D17B6802
:1045B0009B6B002B13D07B689B6B7D4A1A657B68D5
:1045C0009B6B1846FEF77EFC0346002B16D07B68DB
:1045D0009B6B1B6D7A68926B104698470EE078686B
:1045E000FDF788FE0AE07868FDF784FE06E078684B
:1045F000FDF780FE7B6800221A6470E100BF6EE167
:104600007B681B6B012B40F04A81D7F8E43003F044
:104610001003002B00F04381D7F8E03003F01003C3
:10462000002B00F03C810023BB607B681B681B688B
:10463000BB607B681B685B68BB60BB687B681B6892
:104640005B6903F04003402B40F0B4807B689B6BB8
:104650001B685B68A7F8BE30B7F8BE30002B00F0CF
:1046600040817B689B8DB7F8BE209A4280F03981EB
:104670007B68B7F8BE20DA857B689B6BDB69B3F596
:10468000807F00F088807B681B680C33C7F8883017
:10469000D7F8883053E8003FC7F88430D7F8843023
:1046A00023F48073C7F8B8307B681B680C33D7F8E5
:1046B000B820C7F89420C7F89030D7F89010D7F8F2
:1046C000942041E80023C7F88C30D7F88C30002BB9
:1046D000D9D17B681B6814337B677B6F53E8003F3D
:1046E0003B673B6F23F00103C7F8B4307B681B685E
:1046F0001433D7F8B420C7F88020FB67F96FD7F8D8
:10470000802041E80023BB67BB6F002BE1D17B68B1
:104710001B6814333B663B6E53E8003FFB65FB6D43
:1047200023F04003C7F8B0307B681B681433D7F818
:10473000B020FA66BB66B96EFA6E41E800237B666C
:104740007B6E002BE3D17B68202283F83E207B68C0
:1047500000221A637B681B680C33FB64FB6C53E814
:10476000003FBB64BB6C23F01003C7F8AC307B6820
:104770001B680C33D7F8AC20BA657B65796DBA6DD0
:1047800041E800233B653B6D002BE3D17B689B6BCD
:104790001846FEF727FB7B689A8D7B68DB8D9BB202
:1047A000D31A9BB21946786800F0ACF899E000BFC4
:1047B0000F4E00087B689A8D7B68DB8D9BB2D31A05
:1047C000A7F8CE307B68DB8D9BB2002B00F08B808E
:1047D000B7F8CE30002B00F086807B681B680C3366
:1047E000BB63BB6B53E8003F7B637B6B23F490732D
:1047F000C7F8C8307B681B680C33D7F8C8207A64C8
:104800003B64396C7A6C41E80023FB63FB6B002B43
:10481000E3D17B681B6814337B627B6A53E8003FFB
:104820003B623B6A23F00103C7F8C4307B681B6816
:104830001433D7F8C4203A63FB62F96A3A6B41E853
:104840000023BB62BB6A002BE3D17B68202283F884
:104850003E207B6800221A637B681B680C333B6137
:104860003B6953E8003FFB60FB6823F01003C7F887
:10487000C0307B681B680C33D7F8C020FA61BB617D
:10488000B969FA6941E800237B617B69002BE3D1B8
:10489000B7F8CE301946786800F034F823E0D7F83E
:1048A000E43003F08003002B09D0D7F8E03003F0A8
:1048B0008003002B03D0786800F0BDFA14E0D7F82D
:1048C000E43003F04003002B0ED0D7F8E03003F0C3
:1048D0004003002B08D0786800F0FDFA04E000BF28
:1048E00002E000BF00E000BFE837BD4680BD00BF6A
:1048F00080B483B000AF786000BF0C37BD465DF870
:10490000047B704780B483B000AF78600B467B8037
:1049100000BF0C37BD465DF8047B704780B590B092
:1049200000AF78607B689B6BFB637B681B681B68D0
:1049300003F48073002B37D1FB6B0022DA84FB6B0E
:104940001B6814337B627B6A53E8003F3B623B6A1F
:1049500023F08003BB63FB6B1B681433BA6B3A63B1
:10496000FB62F96A3A6B41E80023BB62BB6A002B29
:10497000E5D1FB6B1B680C333B613B6953E8003F9F
:10498000FB60FB6843F040037B63FB6B1B680C33ED
:104990007A6BFA61BB61B969FA6941E800237B610E
:1049A0007B69002BE5D102E0F86BFDF723FD00BF2A
:1049B0004037BD4680BD80B584B000AF78607B686D
:1049C0009B6BFB60F868FFF793FF00BF1037BD4695
:1049D00080BD80B59CB000AF78607B689B6BFB6648
:1049E0007B681B681B6803F48073002B72D1FB6E1D
:1049F0000022DA85FB6E1B680C33FB64FB6C53E80A
:104A0000003FBB64BB6C23F48073BB66FB6E1B680A
:104A10000C33BA6EBA657B65796DBA6D41E80023D7
:104A20003B653B6D002BE5D1FB6E1B681433BB630C
:104A3000BB6B53E8003F7B637B6B23F001037B661A
:104A4000FB6E1B6814337A6E7A643B64396C7A6C43
:104A500041E80023FB63FB6B002BE5D1FB6E1B6879
:104A600014337B627B6A53E8003F3B623B6A23F06E
:104A700040033B66FB6E1B6814333A6E3A63FB627D
:104A8000F96A3A6B41E80023BB62BB6A002BE5D1AF
:104A9000FB6E202283F83E20FB6E1B6B012B19D18D
:104AA000FB6E1B680C333B613B6953E8003FFB60C6
:104AB000FB6823F01003FB65FB6E1B680C33FA6D7B
:104AC000FA61BB61B969FA6941E800237B617B69DE
:104AD000002BE5D1FB6E1B6B012B06D1FB6E9B8D72
:104AE0001946F86EFFF70EFF02E0F86EFDF71AFCAC
:104AF00000BF7037BD4680BD80B584B000AF786020
:104B00007B689B6BFB60FB681B6B012B08D1FB6810
:104B10009B8D5B089BB21946F868FFF7F3FE02E035
:104B2000F868FDF71DFC00BF1037BD4680BD80B59D
:104B300084B000AF78600023FB607B689B6BBB6038
:104B4000BB681B685B6903F08003802B0CBF0123EB
:104B50000023DBB2FB60BB6893F83D30DBB2212B56
:104B600008D1FB68002B05D0BB680022DA84B86846
:104B700000F0C2F8BB681B685B6903F04003402B80
:104B80000CBF01230023DBB2FB60BB6893F83E300F
:104B9000DBB2222B08D1FB68002B05D0BB680022BA
:104BA000DA85B86800F0D0F8BB681B6C43F01002DF
:104BB000BB681A64B868FDF79DFB00BF1037BD469F
:104BC00080BD000080B598B000AFF860B9601346B2
:104BD000FB80BA68FB689A62FB68FA889A85FB6872
:104BE00000221A64FB68222283F83E20FB689B6B3C
:104BF0003E4ADA63FB689B6B3D4A1A64FB689B6B19
:104C00003C4ADA64FB689B6B00221A6507F10803D3
:104C1000FB65FB68986BFB681B6804331946FB6DEA
:104C20001A68FB88FEF786F800233B61FB681B6867
:104C30001B683B61FB681B685B683B613B69FB6809
:104C4000002283F83C20FB681B680C333B643B6C00
:104C500053E8003FFB63FB6B43F48073BB65FB6869
:104C60001B680C33BA6DFA64BB64B96CFA6C41E82A
:104C700000237B647B6C002BE5D1FB681B6814333D
:104C8000FB62FB6A53E8003FBB62BB6A43F001036F
:104C90007B65FB681B6814337A6DBA637B63796B41
:104CA000BA6B41E800233B633B6B002BE5D1FB680B
:104CB0001B681433BB61BB6953E8003F7B617B69B0
:104CC00043F040033B65FB681B6814333A6D7A621E
:104CD0003B62396A7A6A41E80023FB61FB69002B79
:104CE000E5D1002318466037BD4680BDD349000892
:104CF000F94A00082F4B000880B489B000AF7860F3
:104D00007B681B680C33FB60FB6853E8003FBB60AB
:104D1000BB6823F0C003FB617B681B680C33FA6936
:104D2000BA617B617969BA6941E800233B613B69FB
:104D3000002BE5D17B68202283F83D2000BF24377B
:104D4000BD465DF8047B704780B495B000AF7860D5
:104D50007B681B680C337B637B6B53E8003F3B63D2
:104D60003B6B23F49073FB647B681B680C33FA6C19
:104D70003A64FB63F96B3A6C41E80023BB63BB6B9D
:104D8000002BE5D17B681B6814333B623B6A53E818
:104D9000003FFB61FB6923F00103BB647B681B6878
:104DA0001433BA6CFA62BB62B96AFA6A41E800234A
:104DB0007B627B6A002BE5D17B681B6B012B19D1D1
:104DC0007B681B680C33FB60FB6853E8003FBB60EB
:104DD000BB6823F010037B647B681B680C337A6C20
:104DE000BA617B617969BA6941E800233B613B693B
:104DF000002BE5D17B68202283F83E207B680022CF
:104E00001A6300BF5437BD465DF8047B704780B518
:104E100084B000AF78607B689B6BFB60FB6800220E
:104E2000DA85FB680022DA84F868FDF763FA00BFD0
:104E30001037BD4680BD80B485B000AF78607B6818
:104E400093F83D30DBB2212B3ED17B689B68B3F5F4
:104E5000805F14D17B681B69002B10D17B681B6AB3
:104E6000FB60FB681B881A467B681B68C2F308025C
:104E70005A607B681B6A9A1C7B681A6208E07B6830
:104E80001B6A591C7A6811621A787B681B685A6021
:104E90007B68DB8C9BB2013B9BB27A681946D1845C
:104EA000002B0FD17B681B68DA687B681B6822F0D7
:104EB0008002DA607B681B68DA687B681B6842F0F6
:104EC0004002DA60002300E0022318461437BD4692
:104ED0005DF8047B704780B582B000AF78607B6876
:104EE0001B68DA687B681B6822F04002DA607B6826
:104EF000202283F83D207868FDF77CFA00231846CD
:104F00000837BD4680BD80B58CB000AF78607B6847
:104F100093F83E30DBB2222B40F0AB807B689B687D
:104F2000B3F5805F17D17B681B69002B13D1002379
:104F3000FB627B689B6ABB627B681B685B689BB299
:104F4000C3F308039AB2BB6A1A807B689B6A9A1CF7
:104F50007B689A6226E07B689B6AFB620023BB62E7
:104F60007B689B68B3F5805F07D07B689B68002BEC
:104F70000AD17B681B69002B06D17B681B685B68C4
:104F8000DAB2FB6A1A7008E07B681B685B68DBB208
:104F900003F07F03DAB2FB6A1A707B689B6A5A1CC3
:104FA0007B689A627B68DB8D9BB2013B9BB27A681F
:104FB0001946D185002B5AD17B681B68DA687B685B
:104FC0001B6822F02002DA607B681B68DA687B6865
:104FD0001B6822F48072DA607B681B685A697B6800
:104FE0001B6822F001025A617B68202283F83E2070
:104FF0007B681B6B012B35D17B6800221A637B68B1
:105000001B680C337B617B6953E8003F3B613B6964
:1050100023F010037B627B681B680C337A6A3A6268
:10502000FB61F9693A6A41E80023BB61BB69002B67
:10503000E5D17B681B681B6803F01003102B0AD1B5
:105040000023FB607B681B681B68FB607B681B6838
:105050005B68FB60FB687B689B8D19467868FFF78F
:1050600051FC02E07868FDF75DF9002302E00023BF
:1050700000E0022318463037BD4680BD2DE9B04F11
:10508000C0B000AFC7F8F400D7F8F4301B681B6954
:1050900023F44050D7F8F430D968D7F8F4301A68C0
:1050A00040EA01031361D7F8F4309A68D7F8F43076
:1050B0001B691A43D7F8F4305B691A43D7F8F43008
:1050C000DB691343C7F8F830D7F8F4301B68DB68A6
:1050D00023F4164121F00C01D7F8F4301A68D7F800
:1050E000F8300B43D360D7F8F4301B685B6923F4C6
:1050F0004070D7F8F4309969D7F8F4301A6840EA6C
:1051000001035361D7F8F4301A688F4B9A4205D0E7
:10511000D7F8F4301A688D4B9A4204D1FEF73AFF63
:10512000C7F8FC0003E0FEF721FFC7F8FC00D7F842
:10513000F430DB69B3F5004F40F00C81D7F8FC3058
:105140000022C7F8E830C7F8EC20D7E93A452246F4
:105150002B469118B9655B41FB65D7E916232146BB
:1051600012EB0108294643EB01094FF000024FF012
:1051700000034FEAC90343EA58734FEAC802904656
:105180009946234618EB0303C7F8E0302B4649EB5A
:105190000303C7F8E430D7F8F4305B680022C7F89F
:1051A000D830C7F8DC20D7E936120B46DB183B6550
:1051B000134642EB03037B65D7E91423D7E9380193
:1051C000FBF78CFA02460B46614BA3FB02235B09FB
:1051D0001C01D7F8FC300022C7F8D030C7F8D42023
:1051E000D7E9348942464B469118B9645B41FB6468
:1051F000D7E91223414612EB010A494643EB010B62
:105200004FF000024FF000034FEACB0343EA5A731A
:105210004FEACA0292469B4643461AEB0303C7F87D
:10522000C8304B464BEB0303C7F8CC30D7F8F4300B
:105230005B680022C7F8C030C7F8C420D7E9301235
:105240000B46DB183B64134642EB03037B64D7E950
:105250001023D7E93201FBF741FA02460B4611460B
:105260003B4BA3FB01235B09642202FB03F3CB1A34
:10527000DB0003F13202364BA3FB02235B095B0028
:1052800003F4F8731C44D7F8FC300022C7F8B83098
:10529000C7F8BC20D7E92E8942464B469118B9631E
:1052A0005B41FB63D7E90E234146511839634946F8
:1052B0004B417B634FF000024FF00003D7E90CAB8A
:1052C0005946CB00514643EA51735146CA00104635
:1052D0001946034642469B18C7F8B0304B460A466B
:1052E00042EB0303C7F8B430D7F8F4305B68002210
:1052F000C7F8A830C7F8AC20D7E92A120B46DB184C
:10530000BB62134642EB0303FB62D7E90A23D7E9EA
:105310002C01FBF7E3F902460B460D4BA3FB0213EE
:105320005B09642101FB03F3D31ADB003233084A23
:10533000A2FB03235B0903F00702D7F8F4301B68D4
:1053400022449A6005E100BF0010014000140140B2
:105350001F85EB51D7F8FC300022C7F8A030C7F802
:10536000A420D7E9288942464B46911839625B410F
:105370007B62D7E9082341465418494643EB0105AF
:105380004FF000024FF00003EB0043EA5473E200D9
:1053900014461D464346E318C7F898304B4645EB84
:1053A0000303C7F89C30D7F8F4305B680022C7F8D5
:1053B0009030C7F894204FF000024FF00003D7E977
:1053C000244529468B00214643EA917321468A00F1
:1053D000D7E92601FBF782F902460B46604BA3FB97
:1053E00002235B091C01D7F8FC300022C7F8883083
:1053F000C7F88C20D7E9228942464B469118B961FB
:105400005B41FB61D7E906234146511839614946A2
:105410004B417B614FF000024FF00003D7E904AB32
:105420005946CB00514643EA51735146CA001046D3
:105430001946034642469B18C7F880304B460A4639
:1054400042EB0303C7F88430D7F8F4305B680022DE
:10545000BB67FA674FF000024FF00003D7E91E89DF
:1054600049468B00414643EA917341468A00D7E999
:105470002001FBF733F902460B46394BA3FB02131D
:105480005B09642101FB03F3D31A1B013233344A55
:10549000A2FB03235B0903F0F0031C44D7F8FC30A4
:1054A00000223B677A67D7E91C8942464B46911830
:1054B000B9605B41FB60D7E902234146511839606E
:1054C00049464B417B604FF000024FF00003D7E9A3
:1054D00000AB5946CB00514643EA51735146CA00CE
:1054E00010461946034642469B18BB664B460A4681
:1054F00042EB0303FB66D7F8F4305B6800223B669F
:105500007A664FF000024FF00003D7E91889494648
:105510008B00414643EA917341468A00D7E91A015C
:10552000FBF7DCF802460B460D4BA3FB02135B09AD
:10553000642101FB03F3D31A1B013233084AA2FB97
:1055400003235B0903F00F02D7F8F4301B682244F1
:105550009A6000BF07F58077BD46BDE8B08F00BFF9
:105560001F85EB5180B586B002AF786007F10C0360
:1055700000934FF0FF330622282115480BF074F8F2
:105580000346002B04D1FB68194612480DF012F9AE
:1055900011480DF00FF94FF47A700FF04FF907F141
:1055A0000C0300934FF0FF330522282108480BF02D
:1055B0005BF80346002B04D1FB68194607480DF041
:1055C000F9F807480DF0F6F800BF1037BD4680BD6A
:1055D0000018002034610108546101088461010849
:1055E000A461010880B582B000AF786010480DF06A
:1055F000E1F808210F480AF02DFEC8200FF01EF92F
:105600000D480DF0D7F820210A480AF023FEC820E3
:105610000FF014F906480DF0CDF8082105480AF0FE
:1056200019FE06480DF0C6F800BF0837BD4680BD1C
:10563000B461010800180020CC610108E461010890
:1056400080B586B004AF01221B491C480AF0C6FD94
:1056500078607B68002B05D019480DF0ABF84FF04F
:10566000FF3324E005230393082302934FF4806360
:105670000193144B00930023134A144914480EF06D
:1056800049FF13480EF092FF052303930923029369
:105690004FF4806301930F4B009300230E4A0F4990
:1056A0000F480EF037FF0E480EF080FF002318461B
:1056B0000837BD4680BD00BFF46101080018002016
:1056C000FC610108281800206555000810620108D7
:1056D000281C0020C01C0020E555000818620108A5
:1056E000C020002080B584B000AF786011480DF074
:1056F00061F807F10C034FF0FF3219460E480BF02A
:1057000005FB0346002BF1D1FB6819460B480DF051
:1057100051F8FB680A4A934203D064200FF08EF8D8
:10572000E4E700BF04480BF005F800BF1037BD46A2
:1057300080BD00BF2062010858210020406201089E
:105740005C01002080B584B000AF78600023FB735B
:1057500015E0FB7B0133FB73FB7B03F00103002BA4
:1057600005D00D4B19460D480BF07FF904E00C4BAA
:1057700019460A480BF079F9C8200FF05FF8FB7B57
:10578000092BE6D9074B194604480BF06EF900BF08
:105790001037BD4680BD00BF3801002058210020D1
:1057A000440100205C01002080B586B004AF0123D5
:1057B000009320231B4A1C491C480AF06DFF7860A7
:1057C0007B68002B05D01A480CF0F4FF4FF0FF3334
:1057D00024E0052303930A2302934FF4806301938B
:1057E000144B00930023144A144915480EF092FEFE
:1057F00013480EF0DBFE052303930A2302934FF4B4
:10580000806301930F4B009300230F4A0F49104808
:105810000EF080FE0E480EF0C9FE00231846083731
:10582000BD4680BD902100207462010858210020EF
:105830007862010810220020E556000890620108F5
:1058400010260020A826002045570008986201086D
:10585000A82A002080B584B000AF78600023BB7315
:105860000023FB7307F10E014FF0FF3301221048B4
:105870000BF004FF0346002B07DDBB7B19460D48E8
:105880000CF098FFFB7B132B06D0FB7B0133FB73E3
:1058900032200EF0D3FFE5E700BF07480CF08AFF87
:1058A00003480BF0C9FA00BF1037BD4680BD00BFEA
:1058B000402B0020A0620108D462010880B586B0A8
:1058C00000AF78604123FB730023FB75FB7D082B41
:1058D00014D107F10F03012219461D480BF096FC65
:1058E00038613B69002B03D01A480CF063FF1FE0BE
:1058F000FB7B194618480CF05DFF19E0FB7D132B6C
:1059000003D916480CF056FF1DE007F10F030122E2
:1059100019460F480BF068FC38613B69002B02D038
:105920000F480CF047FFFB7B19460E480CF042FF76
:10593000FB7B0133DBB2FB73FB7D0133FB75052081
:105940000EF07CFFC2E700BF1837BD4680BD00BF28
:10595000402B0020EC620108006301082463010869
:105960004C6301085C63010880B586B004AF012375
:1059700001934FF40063009301231C4A1C491D4806
:105980000BF0D6F978607B68002B05D01A480CF034
:1059900011FF4FF0FF3324E00523039319230293F3
:1059A0004FF480630193154B00930023144A15496B
:1059B00015480EF0AFFD14480EF0F8FD05230393D3
:1059C000192302934FF480630193104B009300233B
:1059D0000F4A104910480EF09DFD0F480EF0E6FDED
:1059E000002318460837BD4680BD00BF842B002029
:1059F00078630108402B00207C6301088833002075
:105A00005558000898630108883700202038002086
:105A1000BD580008A0630108203C002080B582B07A
:105A200000AF78600D4B1B684FF0FF3118460AF04D
:105A3000BBFA0B4B1B780133DAB2094B1A700A2000
:105A40000EF0FCFE074B1B780133DAB2054B1A70DF
:105A5000024B1B6818460AF0B7FAE3E7B83C00208F
:105A6000BC3C0020BD3C002080B582B000AF786017
:105A70001B4B1B684FF0FF3118460AF095FA194B83
:105A80001A78194B1B789A4209D0164B1B78194685
:105A9000154B1B781A4615480CF08CFE05E0114B8F
:105AA0001B78194612480CF085FE0E4B1B7801330B
:105AB000DAB20C4B1A700C4B1B780133DAB20A4B7A
:105AC0001A70074B1B6818460AF07EFA054B1B78C4
:105AD000312B00D8CCE700BF0837BD4680BD00BFE2
