:020000040800F2
:10000000A40E0020FD4B00084D4C0008B50200086E
:100010004D4C00084D4C00084D4C000800000000FD
:100020000000000000000000000000004D4C00082F
:100030004D4C000800000000F7010008814A00084C
:100040004D4C00084D4C00084D4C00084D4C00082C
:100050004D4C00084D4C0008D7290008ED29000838
:10006000032A0008192A00082F2A00084D4C00080E
:100070004D4C00084D4C00084D4C00084D4C0008FC
:100080004D4C00084D4C00084D4C00084D4C0008EC
:100090004D4C00084D4C00084D4C0008452A000806
:1000A0004D4C00084D4C00084D4C00084D4C0008CC
:1000B0004D4C00084D4C00084D4C00084D4C0008BC
:1000C0004D4C00084D4C00084D4C00084D4C0008AC
:1000D0004D4C0008594500084D4C00084D4C000897
:1000E000772A00084D4C00084D4C00084D4C000884
:1000F0004D4C00084D4C00084D4C00084D4C00087C
:100100004D4C00084D4C00084D4C00084D4C00086B
:100110004D4C00084D4C00084D4C00084D4C00085B
:100120004D4C00084D4C00084D4C00084D4C00084B
:100130004D4C00084D4C00084D4C00084D4C00083B
:100140004D4C00084D4C00084D4C00084D4C00082B
:100150004D4C00084D4C00084D4C00084D4C00081B
:100160004D4C00084D4C00084D4C00084D4C00080B
:100170004D4C00084D4C00084D4C0008000000009C
:100180004D4C00084D4C000810B5054C237833B990
:10019000044B13B10448AFF300800123237010BD5A
:1001A000A80E0020000000000846050808B5034B13
:1001B0001BB103490348AFF3008008BD00000000F5
:1001C000AC0E002008460508EFF3108072B67047A9
:1001D00080F310887047464A1368012B04D04FF013
:1001E00001031360434A1060434A116043484FF0D3
:1001F000805101607047EFF3108272B63C4801688D
:1002000051B34FF0000101603A48016891B1EFF33A
:1002100009811EF0100F08BF21ED108B21E9F00FAE
:100220004FF000041EF0100F08BF012441F8044DE8
:100230000068016030490968096808C9B1E8F00F31
:10024000002B18BFB1EC108B81F309884EF0100E13
:10025000002B18BF2EF0100E82F310884EF0040E03
:10026000704725490860EFF3148222F0040282F3FC
:10027000148820494FF0000008601D494FF001002C
:1002800008601F481F49D0F8002041EA02010160C0
:100290001A484FF0805101601B480068006800BF99
:1002A00080F3088861B662B6BFF34F8FBFF36F8FDC
:1002B000704700BFEFF308801EF0040F01D0EFF38A
:1002C000098020E9F00F40F804ED40F804ED1EF03D
:1002D000040F02D080F3098801E080F3088800B59C
:1002E00025F0D4F85DF804EB4EF0040E70470000E2
:1002F0000C070120040701200807012004ED00E09D
:1003000020ED00E00000FFFF08ED00E0844641EA38
:10031000000313F003036DD1403A41D351F8043B7D
:1003200040F8043B51F8043B40F8043B51F8043BCF
:1003300040F8043B51F8043B40F8043B51F8043BBF
:1003400040F8043B51F8043B40F8043B51F8043BAF
:1003500040F8043B51F8043B40F8043B51F8043B9F
:1003600040F8043B51F8043B40F8043B51F8043B8F
:1003700040F8043B51F8043B40F8043B51F8043B7F
:1003800040F8043B51F8043B40F8043B51F8043B6F
:1003900040F8043B51F8043B40F8043B403ABDD2DE
:1003A000303211D351F8043B40F8043B51F8043B80
:1003B00040F8043B51F8043B40F8043B51F8043B3F
:1003C00040F8043B103AEDD20C3205D351F8043B0F
:1003D00040F8043B043AF9D2043208D0D2071CBFDB
:1003E00011F8013B00F8013B01D30B880380604604
:1003F000704700BF082A13D38B078DD010F003037A
:100400008AD0C3F10403D21ADB071CBF11F8013BE9
:1004100000F8013B80D331F8023B20F8023B7BE738
:10042000043AD9D3013A11F8013B00F8013BF9D263
:100430000B7803704B7843708B78837060467047FD
:10044000A2EB0300704700BF02780B78012A28BF97
:100450009A42F5D16DE9044540EA0104CDE902670D
:100460006FF0000C4FEA447212B380EA010414F0FA
:10047000070F6AD100F0070420F0070004F003051D
:1004800021F007014FEAC505F0E8042314F0040F3A
:10049000F1E804670CFA05F462EA040266EA04066D
:1004A0000AD063EA0403624667EA0407664603E08B
:1004B000F0E80423F1E8046782FA4CF582EA0604C6
:1004C000A4FA8CF46CBB83FA4CF583EA0705A5FA11
:1004D0008CF595B950E9022351E9026782FA4CF58F
:1004E00082EA0604A4FA8CF483FA4CF583EA070541
:1004F000A5FA8CF52543DBD09CB92DBAB5FA85F465
:1005000024F0070427FA04F1DDE9026723FA04F373
:1005100003F0FF0001F0FF01FDE80445A0EB01003E
:10052000704724BAB4FA84F424F0070426FA04F1DC
:10053000DDE9026722FA04F202F0FF0001F0FF0198
:10054000FDE80445A0EB0100704714F0030F3CD117
:1005500010F0030428D150F8082B51F8083B82FA18
:100560004CF582EA0305A5FA8CF55DB950F8042C28
:1005700051F8043C82FA4CF582EA0305A5FA8CF5A1
:10058000002DE8D02DBAB5FA85F424F0070423FA3B
:1005900004F122FA04F202F0FF0001F0FF01FDE88D
:1005A0000445A0EB010070474FEAC40420F00300AB
:1005B00050F8082B21F0030151F8083B0CFA04F421
:1005C00062EA040263EA0403C9E710F003041AD0E4
:1005D000A1EB040120F00300E40750F8042B06D03F
:1005E0000FD28B785FFAA2F4E41A06D12BB1CB7844
:1005F0005FFAB2F4E41A00D11BB920465DF8104B43
:10060000704701F1040150F8042BCC0721F00301DD
:1006100051F8043B48D824D222F07F4482FA4CF5AA
:1006200094EA1325A5FA8CF50AD165B951F8043B73
:1006300084EA0204B4EB036F0ED150F8042BEBE70D
:100640004FEA132355E035F07F454DD10878FDE89A
:100650000445C0F1000070474FEA126203F0FF0347
:1006600047E002EA1C4482FA4CF594EA1345A5FAE5
:100670008CF50AD165B951F8043B84EA0204B4EB65
:10068000034F0CD150F8042BEBE74FEA134330E053
:1006900015EA1C4528D10B884FEA124229E04FEA9F
:1006A000124203EA1C4324E002F0FF0482FA4CF5F4
:1006B00094EA1365A5FA8CF50AD165B951F8043BA3
:1006C00084EA0204B4EB032F09D150F8042BEBE7C2
:1006D0004FEA13630DE015F0FF0F05D10B684FEAE9
:1006E000122223F07F4304E04FF00000FDE80445B0
:1006F000704712BA1BBA82FA4CF482EA0304A4FAD5
:100700008CF5B5FA85F402FA04F203FA04F34FEA21
:100710001260FDE80445A0EB136070470000000084
:1007200000000000000000000000000000000000C9
:1007300000000000000000000000000000000000B9
:1007400090F800F06DE9024520F007016FF0000C11
:1007500010F0070491F820F040F049804FF00004B9
:100760006FF00700D1E9002391F840F000F1080094
:1007700082FA4CF2A4FA8CF283FA4CF3A2FA8CF3CC
:100780004BBBD1E9022382FA4CF200F10800A4FA33
:100790008CF283FA4CF3A2FA8CF3E3B9D1E9042387
:1007A00082FA4CF200F10800A4FA8CF283FA4CF3BE
:1007B000A2FA8CF37BB9D1E9062301F1200182FA78
:1007C0004CF200F10800A4FA8CF283FA4CF3A2FA7E
:1007D0008CF3002BC6D0002A04BF04301A4612BA8C
:1007E000B2FA82F2FDE8024500EBD2007047D1E98F
:1007F000002304F00305C4F100004FEAC50514F01E
:10080000040F91F840F00CFA05F562EA05021CBFEE
:1008100063EA050362464FF00004A9E70000000008
:1008200001F0FF01102A2BDB10F0070F08D010F8A1
:10083000013B013A8B422DD010F0070F42B3F6D1A5
:10084000F0B441EA012141EA014122F007047FF0BE
:1008500000070023F0E80256083C85EA010586EA15
:10086000010685FA47F5A3FA87F586FA47F6A5FA51
:1008700087F68EB9EED1F0BC01F0FF0102F007025D
:1008800032B110F8013B013A83EA010313B1F8D108
:100890000020704701387047002D06BF35460338E9
:1008A000073815F0010F07D1013015F4807F02BF22
:1008B000013015F4C03F0130F0BC0138704700BF73
:1008C00081F0004102E000BF83F0004330B54FEA01
:1008D00041044FEA430594EA050F08BF90EA020F6E
:1008E0001FBF54EA000C55EA020C7FEA645C7FEA01
:1008F000655C00F0E2804FEA5454D4EB5555B8BF24
:100900006D420CDD2C4480EA020281EA030382EA94
:10091000000083EA010180EA020281EA0303362D26
:1009200088BF30BD11F0004F4FEA01314FF4801CF9
:100930004CEA113102D0404261EB410113F0004F0B
:100940004FEA03334CEA133302D0524263EB4303C2
:1009500094EA050F00F0A780A4F10104D5F1200E60
:100960000DDB02FA0EFC22FA05F2801841F10001BB
:1009700003FA0EF2801843FA05F359410EE0A5F18F
:1009800020050EF1200E012A03FA0EFC28BF4CF0C0
:10099000020C43FA05F3C01851EBE37101F0004576
:1009A00007D54FF0000EDCF1000C7EEB00006EEB83
:1009B0000101B1F5801F1BD3B1F5001F0CD349080D
:1009C0005FEA30004FEA3C0C04F101044FEA445264
:1009D00012F5800F80F09A80BCF1004F08BF5FEAEB
:1009E000500C50F1000041EB045141EA050130BDCB
:1009F0005FEA4C0C404141EB0101013C28BFB1F5DD
:100A0000801FE9D291F0000F04BF01460020B1FA27
:100A100081F308BF2033A3F10B03B3F120020CDAFA
:100A20000C3208DD02F1140CC2F10C0201FA0CF0D8
:100A300021FA02F10CE002F11402D8BFC2F1200C3D
:100A400001FA02F120FA0CFCDCBF41EA0C019040F3
:100A5000E41AA2BF01EB0451294330BD6FEA04043C
:100A60001F3C1CDA0C340EDC04F11404C4F1200227
:100A700020FA04F001FA02F340EA030021FA04F339
:100A800045EA030130BDC4F10C04C4F1200220FA90
:100A900002F001FA04F340EA0300294630BD21FACE
:100AA00004F0294630BD94F0000F83F4801306BF94
:100AB00081F480110134013D4EE77FEA645C18BF88
:100AC0007FEA655C29D094EA050F08BF90EA020F1F
:100AD00005D054EA000C04BF1946104630BD91EA17
:100AE000030F1EBF0021002030BD5FEA545C05D11A
:100AF0004000494128BF41F0004130BD14F5800459
:100B00003CBF01F5801130BD01F0004545F0FE41CC
:100B100041F470014FF0000030BD7FEA645C1ABF01
:100B2000194610467FEA655C1CBF0B46024650EA38
:100B3000013406BF52EA033591EA030F41F4002164
:100B400030BD00BF90F0000F04BF0021704730B5EA
:100B50004FF4806404F132044FF000054FF00001BF
:100B600050E700BF90F0000F04BF0021704730B580
:100B70004FF4806404F1320410F0004548BF404255
:100B80004FF000013EE700BF42004FEAE2014FEAAA
:100B900031014FEA02701FBF12F07F4393F07F4F85
:100BA00081F06051704732F07F4208BF704793F088
:100BB0007F4F04BF41F40021704730B54FF460749B
:100BC00001F0004521F000411CE700BF50EA01029E
:100BD00008BF704730B54FF000050AE050EA010247
:100BE00008BF704730B511F0004502D5404261EBB7
:100BF00041014FF4806404F132045FEA915C3FF4F8
:100C0000D8AE4FF003025FEADC0C18BF03325FEA94
:100C1000DC0C18BF033202EBDC02C2F1200300FA45
:100C200003FC20FA02F001FA03FE40EA0E0021FA6A
:100C300002F11444BDE600BF70B54FF0FF0C4CF458
:100C4000E06C1CEA11541DBF1CEA135594EA0C0F0A
:100C500095EA0C0F00F0DEF82C4481EA030621EA45
:100C60004C5123EA4C5350EA013518BF52EA033580
:100C700041F4801143F4801338D0A0FB02CE4FF032
:100C80000005E1FB02E506F00042E0FB03E54FF062
:100C90000006E1FB03569CF0000F18BF4EF0010E5A
:100CA000A4F1FF04B6F5007F64F5407404D25FEA56
:100CB0004E0E6D4146EB060642EAC62141EA555109
:100CC0004FEAC52040EA5E504FEACE2EB4F1FD0C4B
:100CD00088BFBCF5E06F1ED8BEF1004F08BF5FEAC9
:100CE000500E50F1000041EB045170BD06F000467B
:100CF00046EA010140EA020081EA0301B4EB5C0428
:100D0000C2BFD4EB0C0541EA045170BD41F480111F
:100D10004FF0000E013C00F3AB8014F1360FDEBF44
:100D2000002001F0004170BDC4F10004203C35DA20
:100D30000C341BDC04F11404C4F1200500FA05F3A3
:100D400020FA04F001FA05F240EA020001F0004244
:100D500021F0004110EBD37021FA04F642EB0601BA
:100D60005EEA430E08BF20EAD37070BDC4F10C04E4
:100D7000C4F1200500FA04F320FA05F001FA04F2A8
:100D800040EA020001F0004110EBD37041F1000194
:100D90005EEA430E08BF20EAD37070BDC4F120059F
:100DA00000FA05F24EEA020E20FA04F301FA05F207
:100DB00043EA020321FA04F001F0004121FA04F2AF
:100DC00020EA020000EBD3705EEA430E08BF20EA7F
:100DD000D37070BD94F0000F0FD101F000464000B9
:100DE00041EB010111F4801F08BF013CF7D041EA3B
:100DF000060195F0000F18BF704703F0004652003F
:100E000043EB030313F4801F08BF013DF7D043EA0F
:100E10000603704794EA0C0F0CEA135518BF95EAC5
:100E20000C0F0CD050EA410618BF52EA4306D1D14C
:100E300081EA030101F000414FF0000070BD50EA6B
:100E4000410606BF1046194652EA430619D094EAF5
:100E50000C0F02D150EA013613D195EA0C0F05D1DF
:100E600052EA03361CBF104619460AD181EA030133
:100E700001F0004141F0FE4141F470014FF00000EB
:100E800070BD41F0FE4141F4780170BD70B54FF086
:100E9000FF0C4CF4E06C1CEA11541DBF1CEA135506
:100EA00094EA0C0F95EA0C0F00F0A7F8A4EB0504E8
:100EB00081EA030E52EA03354FEA013100F08880DF
:100EC0004FEA03334FF0805545EA131343EA1263A8
:100ED0004FEA022245EA111545EA10654FEA00265D
:100EE0000EF000419D4208BF964244F1FD0404F516
:100EF000407402D25B084FEA3202B61A65EB030572
:100F00005B084FEA32024FF480104FF4002CB6EB2E
:100F1000020E75EB030E22BFB61A754640EA0C00AE
:100F20005B084FEA3202B6EB020E75EB030E22BFEE
:100F3000B61A754640EA5C005B084FEA3202B6EB2F
:100F4000020E75EB030E22BFB61A754640EA9C00EE
:100F50005B084FEA3202B6EB020E75EB030E22BFBE
:100F6000B61A754640EADC0055EA060E18D04FEA7C
:100F7000051545EA16754FEA06164FEAC30343EA1C
:100F800052734FEAC2025FEA1C1CC0D111F4801FE9
:100F90000BD141EA00014FF000004FF0004CB6E7E2
:100FA00011F4801F04BF01430020B4F1FD0C88BF81
:100FB000BCF5E06F3FF6AFAEB5EB030C04BFB6EB8C
:100FC000020C5FEA500C50F1000041EB045170BD7F
:100FD0000EF0004E4EEA113114EB5C04C2BFD4EBAC
:100FE0000C0541EA045170BD41F480114FF0000E30
:100FF000013C90E645EA060E8DE60CEA135594EAAC
:101000000C0F08BF95EA0C0F3FF43BAF94EA0C0FAE
:101010000AD150EA01347FF434AF95EA0C0F7FF423
:1010200025AF104619462CE795EA0C0F06D152EA77
:1010300003353FF4FDAE1046194622E750EA41065B
:1010400018BF52EA43067FF4C5AE50EA41047FF46C
:101050000DAF52EA43057FF4EBAE12E74FF0FF3CD1
:1010600006E000BF4FF0010C02E000BF4FF0010CA2
:101070004DF804CD4FEA410C7FEA6C5C4FEA430C1B
:1010800018BF7FEA6C5C1BD001B050EA410C0CBF6A
:1010900052EA430C91EA030F02BF90EA020F0020CC
:1010A000704710F1000F91EA030F58BF994208BF33
:1010B00090422CBFD8176FEAE37040F001007047F0
:1010C0004FEA410C7FEA6C5C02D150EA013C07D147
:1010D0004FEA430C7FEA6C5CD6D152EA033CD3D092
:1010E0005DF8040B704700BF8446104662468C468C
:1010F0001946634600E000BF01B5FFF7B7FF0028BF
:1011000048BF10F1000F01BD4DF808EDFFF7F4FFE7
:101110000CBF012000205DF808FB00BF4DF808ED72
:10112000FFF7EAFF34BF012000205DF808FB00BF95
:101130004DF808EDFFF7E0FF94BF012000205DF8B7
:1011400008FB00BF4DF808EDFFF7CEFF94BF01206C
:1011500000205DF808FB00BF4DF808EDFFF7C4FF65
:1011600034BF012000205DF808FB00BF4FEA410CAE
:101170007FEA6C5C02D150EA013C0AD14FEA430C91
:101180007FEA6C5C02D152EA033C02D14FF00000CE
:1011900070474FF0010070474FEA410212F500120C
:1011A00015D211D56FF47873B3EB625212D94FEAAE
:1011B000C12343F0004343EA505311F0004F23FA98
:1011C00002F018BF404270474FF00000704750EAED
:1011D000013005D111F0004008BF6FF000407047AA
:1011E0004FF00000704700BF4A0011D212F5001204
:1011F00011D20DD56FF47873B3EB62520ED44FEA6F
:10120000C12343F0004343EA505323FA02F07047EE
:101210004FF00000704750EA013002D14FF0FF302C
:1012200070474FF0000070474FEA4102B2F1E043CF
:1012300024BFB3F5001CDCF1FE5C0DD901F0004CBD
:101240004FEAC0024CEA5070B2F1004F40EB83000D
:1012500008BF20F00100704711F0804F21D113F139
:101260003872BCBF01F00040704741F480114FEA72
:101270005252C2F11802C2F1200C10FA0CF320FAFB
:1012800002F018BF40F001004FEAC1234FEAD32318
:1012900003FA0CFC40EA0C0023FA02F34FEA430382
:1012A000CCE77FEA625307D150EA01331EBF4FF00B
:1012B000FE4040F44000704701F0004040F0FE4026
:1012C00040F40000704700BF53B94AB9002908BF75
:1012D00000281CBF4FF0FF314FF0FF3000F0AAB9DB
:1012E000ADF1080C6DE904CE00F03CF8DDF804E047
:1012F000DDE9022304B0704738B50022002304461C
:101300000D46FFF70BFF28B920462946BDE83840B7
:1013100000F00AB8204605F1004100F005F840420F
:1013200061EB410138BD00BFD0B50C4B0022064631
:101330000F46FFF781FCFFF757FF0446FFF702FC5B
:10134000074B0022FFF778FC02460B463046394631
:10135000FFF7BAFAFFF748FF2146D0BD0000F03D85
:101360000000F0412DE9F047089D04468E46002B11
:101370004DD18A42944669D9B2FA82F252B101FA49
:1013800002F3C2F1200120FA01F10CFA02FC41EA59
:10139000030E94404FEA1C48210CBEFBF8F61FFADE
:1013A0008CF708FB16E341EA034306FB07F1994279
:1013B0000AD91CEB030306F1FF3080F01F8199422C
:1013C00040F21C81023E63445B1AA4B2B3FBF8F006
:1013D00008FB103344EA034400FB07F7A7420AD98D
:1013E0001CEB040400F1FF3380F00A81A74240F2B5
:1013F00007816444023840EA0640E41B00261DB120
:10140000D4400023C5E900433146BDE8F0878B4254
:1014100009D9002D00F0EF800026C5E90001304613
:101420003146BDE8F087B3FA83F6002E4AD18B42ED
:1014300002D3824200F2F980841A61EB0303012097
:101440009E46002DE0D0C5E9004EDDE702B9FFDE83
:10145000B2FA82F2002A40F09280A1EB0C014FEA2E
:101460001C471FFA8CFE0126200CB1FBF7F307FB8B
:10147000131140EA01410EFB03F0884208D91CEB2E
:10148000010103F1FF3802D2884200F2CB804346CB
:10149000091AA4B2B1FBF7F007FB101144EA0144AA
:1014A0000EFB00FEA64508D91CEB040400F1FF3139
:1014B00002D2A64500F2BB800846A4EB0E0440EA27
:1014C00003409CE7C6F12007B34022FA07FC4CEA30
:1014D000030C20FA07F401FA06F31C43F9404FEA23
:1014E0001C4900FA06F3B1FBF9F8200C1FFA8CFE38
:1014F00009FB181140EA014108FB0EF0884202FA8C
:1015000006F20BD91CEB010108F1FF3A80F088804C
:10151000884240F28580A8F102086144091AA4B209
:10152000B1FBF9F009FB101144EA014100FB0EFE8A
:101530008E4508D91CEB010100F1FF346CD28E45B9
:101540006AD90238614440EA0840A0FB0294A1EB4A
:101550000E01A142C846A64656D353D05DB1B3EBA7
:10156000080261EB0E0101FA07F722FA06F3F140D7
:101570001F43C5E9007100263146BDE8F087C2F17E
:101580002003D8400CFA02FC21FA03F391400143F6
:101590004FEA1C471FFA8CFEB3FBF7F007FB10362F
:1015A0000B0C43EA064300FB0EF69E4204FA02F4DB
:1015B00008D91CEB030300F1FF382FD29E422DD92E
:1015C000023863449B1B89B2B3FBF7F607FB163363
:1015D00041EA034106FB0EF38B4208D91CEB0101E3
:1015E00006F1FF3816D28B4214D9023E6144C91A63
:1015F00046EA004638E72E46284605E70646E3E673
:101600001846F8E64B45A9D2B9EB020864EB0C0E7C
:101610000138A3E74646EAE7204694E74046D1E78B
:10162000D0467BE7023B614432E7304609E7644439
:10163000023842E7704700BF80B586B000AF11485E
:1016400024F06AF8786168233B7168233B810023AA
:101650007B813B1D3B610123BB8107F10803012214
:101660001946786924F0ACFE0346012B05D1064BE0
:1016700001220649062023F057FC00BF1837BD465B
:1016800080BD00BF0C6804081468040820680408C2
:1016900080B500AF4FF47A7039F0E4FBFAE7000050
:1016A00080B58EB004AF786000233B62574BFB617E
:1016B00000237B62F86907F033FD38623B6A002B38
:1016C00006D1534B01225349032023F02DFC99E00E
:1016D000514B01224F49072023F026FC0A21386A8A
:1016E00007F066FCB861BB69002B2ED14B4B012281
:1016F0004849072023F018FC3B6AB3F904301A4626
:101700003B6AB3F9063019463B6AB3F908300293D5
:1017100001910092424B01223E49072023F004FC34
:101720003B6AB3F90A301A463B6AB3F90C301946E2
:101730003B6AB3F90E30029301910092394B0122BA
:101740003449072023F0F0FB54E0374B01223149A4
:10175000032023F0E9FB386A07F060FD52E007F14F
:10176000120307F1140207F11601386A07F074FD3D
:10177000B861BB69002B1CD1B7F91630B7F914203A
:10178000B7F91210029101920093284B01222149CE
:10179000072023F0C9FB07F10C0307F10E0207F144
:1017A0001001386A07F0ECFDB861BB69002B17D156
:1017B00006E01F4B01221749032023F0B5FB1EE072
:1017C000B7F91030B7F90E20B7F90C100291019259
:1017D0000093184B01220F49072023F0A5FB06E0D8
:1017E000134B01220B49032023F09EFB07E06420EA
:1017F00039F038FB7B6A5A1C7A62092BAFDD386AF4
:1018000007F00CFD2837BD4680BD00BF28680408DE
:10181000306804084C6804085468040870680408B8
:1018200088680408B0680408D8680408F0680408E8
:10183000306904084869040880B586B002AF786052
:101840000A4B1B68184633F017FD202026F0BCFC1D
:10185000F860FB680093064B01220649062023F03E
:1018600063FB00BF1037BD4680BD00BFC40E002023
:10187000846904084C68040880B586B002AF7860BB
:10188000242026F0A1FCF860FB680093044B0122A1
:101890000449062023F048FB00BF1037BD4680BD39
:1018A0009C6904084C68040880B586B002AF786073
:1018B000252026F089FCF860FB680093044B012288
:1018C0000449062023F030FB00BF1037BD4680BD21
:1018D000B46904084C68040880B586B002AF78602B
:1018E000212026F071FCF860FB680093044B012274
:1018F0000449062023F018FB00BF1037BD4680BD09
:10190000CC6904084C68040880B586B002AF7860E2
:10191000104B1B684FF0FF31184633F091FC322317
:101920000193142300934FF4006300220A490B48EB
:1019300039F086F9F860FB68002B03D0F86839F0BD
:10194000B7F8E5E7064B01220649032023F0ECFA3D
:10195000DEE700BFC40E0020A1160008E4690408F9
:10196000E86904084C68040880B584B002AF00221E
:101970000021354833F0E2FA0346344A1360334B12
:101980001B68002B08D1324B01223249032023F07F
:10199000CBFA6FF0FE0353E032230193142300933C
:1019A0004FF4006300222C492C4839F049F9786043
:1019B0007B68002B3CD0786839F07AF8022125202A
:1019C00026F0C2FB0221212026F0BEFB02212420AA
:1019D00026F0BAFB0221202026F0B6FB0023204A85
:1019E0000121252026F058FB00231E4A0121212039
:1019F00026F052FB00231C4A0121242026F04CFB38
:101A000000231A4A0121202026F046FB012125202F
:101A100026F070FB0121212026F06CFB01212420FF
:101A200026F068FB0121202026F064FB002307E05C
:101A30000F4B01220749032023F076FA6FF0FE03D3
:101A400018460837BD4680BD046A0408C40E00204D
:101A50000C6A04084C68040809190008286A04087C
:101A6000A9180008D91800087918000839180008C2
:101A70002C6A040880B584B000AFF860B9607A6061
:101A80007B68BA680021F86829F034FC03461846E0
:101A90001037BD4680BD80B584B000AFF860B96036
:101AA0007A607B680022B968F86829F023FC034655
:101AB00018461037BD4680BD80B586B000AF002304
:101AC0007B61124823F028FE386108237B720423CF
:101AD0003B720F4BFB6007F108031946386929F088
:101AE00039FADA23FB71F123BB71BA1DF91D012309
:101AF000386929F0FFFB78617969064836F0EEFE17
:101B000000BF18461837BD4680BD00BF4C6A0408A8
:101B100040420F00546A040880B586B000AF00232D
:101B20007B61114823F0F8FD386108237B720423A0
:101B30003B720E4BFB6007F108031946386929F028
:101B400009FADA23FB71FB1D012219463869FFF7F8
:101B5000A2FF03467B617969054836F0BFFE00BFEE
:101B600018461837BD4680BD4C6A040840420F0035
:101B7000546A040880B586B000AF00237B61114829
:101B800023F0CAFD386108237B7204233B720E4B9D
:101B9000FB6007F108031946386929F0DBF9F123E6
:101BA000FB71FB1D012219463869FFF763FF0346ED
:101BB0007B617969054836F091FE00BF18461837F9
:101BC000BD4680BD4C6A040840420F00546A0408B8
:101BD00080B588B002AF00237B61144823F09CFDE0
:101BE000386108237B7204233B72114BFB6007F1C1
:101BF00008031946386929F0ADF949F61A13BB8074
:101C000042F212233B803B46391D022200920222FF
:101C1000386929F0FFF978617969064836F05EFE87
:101C200000BF18461837BD4680BD00BF4C6A040887
:101C300040420F00546A040880B588B002AF002308
:101C40007B61144823F068FD386108237B7204230C
:101C50003B72114BFB6007F108031946386929F004
:101C600079F949F61A13BB8042F212233B803B46B6
:101C7000391D022200920222386929F0CBF97861DD
:101C80007969064836F02AFE00BF18461837BD4667
:101C900080BD00BF4C6A040840420F00546A04082B
:101CA00080B582B000AF0021002023F042FD7860B3
:101CB00003220449786823F0CEFC00231846083735
:101CC000BD4680BD606A040880B582B000AF786010
:101CD0004FF0FF31094833F0B3FA094B1946094870
:101CE00034F00BFF0649084836F0F8FD034833F09E
:101CF000C3FA642039F0B6F8EAE700BF800F00208D
:101D000000000020C80E00206C6A040880B584B072
:101D100000AF786007F10C034FF0FF3219460C4812
:101D200035F03CF80346002B0DD14FF0FF31094848
:101D300034F020F8FB681946074836F0CFFD054817
:101D400034F028F8E6E7642039F08CF8E2E700BFC9
:101D5000C80E0020A80F00207C6A040880B584B05B
:101D600002AF002300932023194A1A491A4834F07D
:101D70000BFC002301221949194833F053F80022C3
:101D80001849194833F082FC052301930A23009374
:101D90004FF4806300221549154838F051FF7860F0
:101DA000052301930A2300934FF480630022114915
:101DB000114838F045FF3860786838F079FE3868A7
:101DC00038F076FE012318460837BD4680BD00BFB7
:101DD000000F00208C6A0408C80E0020906A0408D6
:101DE000800F0020946A0408A80F0020C91C000876
:101DF0009C6A04080D1D0008A46A040880B582B01E
:101E000000AF78604FF0FF31094833F019FA0A2229
:101E10000849094835F040FA0649084836F05EFDA1
:101E2000034833F029FA642039F01CF8EAE700BFD0
:101E3000201800200C000020DC0F0020AC6A0408F1
:101E400080B5A2B000AF786007F108014FF0FF3312
:101E500080220C4835F06AFC0346002B0ED14FF06F
:101E6000FF31094833F086FF07F108031946074898
:101E700036F034FD044833F08DFFE5E7642038F098
:101E8000F1FFE1E7DC0F002048180020BC6A0408DD
:101E900080B584B002AF002301934FF40063009338
:101EA0000A231C4A1C491D4834F09AFF00230122D2
:101EB0001B491C4832F0B6FF00221B491B4833F077
:101EC000E5FB052301930A2300934FF4806300226E
:101ED0001749184838F0B4FE7860052301930A23A7
:101EE00000934FF4806300221349144838F0A8FE91
:101EF00038607B68002B02D0786838F0D9FD3B68E9
:101F0000002B02D0386838F0D3FD0123184608377B
:101F1000BD4680BD20100020CC6A0408DC0F0020E4
:101F2000D06A040820180020D46A04084818002049
:101F3000FD1D0008DC6A0408411E0008E46A04086C
:101F400080B483B000AF00237B60104B5B6C0F4A02
:101F500043F4804353640D4B5B6C03F480437B601C
:101F60007B6800233B60094B1B6C084A43F080539D
:101F70001364064B1B6C03F080533B603B6800BF4F
:101F80000C37BD465DF8047B704700BF0038024047
:101F900080B58AB000AF786007F1140300221A60A0
:101FA0005A609A60DA601A617B681B68284A93421B
:101FB0004AD100233B61274B1B6C264A43F48043E4
:101FC0001364244B1B6C03F480433B613B69002387
:101FD000FB60204B1B6B1F4A43F0040313631D4B34
:101FE0001B6B03F00403FB60FB680023BB60194B11
:101FF0001B6B184A43F002031363164B1B6B03F071
:102000000203BB60BB680C237B610223BB6100231E
:10201000FB6103233B6205237B6207F1140319462E
:102020000D4803F0E3FA4FF400537B610223BB61D8
:102030000023FB6103233B6205237B6207F114034A
:102040001946064803F0D2FA00BF2837BD4680BDC6
:1020500000380040003802400008024000040240FE
:1020600080B58CB000AF786007F11C0300221A60C5
:102070005A609A60DA601A617B681B68364A93423C
:1020800035D10023BB61354B5B6C344A43F0100300
:102090005364324B5B6C03F01003BB61BB690023DC
:1020A0007B612E4B1B6B2D4A43F0010313632B4BBB
:1020B0001B6B03F001037B617B694FF4C063FB6121
:1020C00002233B6201237B620323BB620723FB6283
:1020D00007F11C031946224803F088FA0022002168
:1020E000252002F068FF252002F081FF30E07B68A8
:1020F0001B681C4A93422BD100233B61174B1B6C7E
:10210000164A43F400331364144B1B6C03F400337E
:102110003B613B690023FB60104B1B6B0F4A43F094
:10212000010313630D4B1B6B03F00103FB60FB68A2
:102130000C23FB6102233B6200237B620323BB620F
:102140000723FB6207F11C031946054803F04EFA0A
:1021500000BF3037BD4680BD00100140003802404E
:10216000000002400044004080B582B000AF7860BB
:102170007B681B68124A93420ED1124B5B6C114A6A
:1021800023F0100353644FF4C0610F4803F0CAFBFF
:10219000252002F03AFF0EE07B681B680B4A934251
:1021A00009D1084B1B6C074A23F4003313640C213C
:1021B000054803F0B7FB00BF0837BD4680BD00BF30
:1021C000001001400038024000000240004400407E
:1021D00080B598B000AF07F13003302200211846D7
:1021E0003BF0EAF807F11C0300221A605A609A607B
:1021F000DA601A6107F10C0300221A605A609A60D3
:10220000DA600023BB60354B1B6C344A43F08053CB
:102210001364324B1B6C03F08053BB60BB6800231C
:102220007B602F4B1B682E4A43F4804313602C4B7A
:102230001B6803F480437B607B680D233B634FF492
:1022400080337B630123BB6301237B640223BB6474
:102250004FF48003FB6404233B65A8237B650223C2
:10226000BB650723FB6507F13003184603F0A0FCAC
:102270000346002B03D027211A4802F045FC0F2308
:10228000FB6102233B6200237B624FF4A053BB62DD
:102290004FF48053FB6207F11C030521184603F03D
:1022A000FFFE0346002B03D034210E4802F02CFC25
:1022B0000223FB604FF48073BB6107F10C031846E7
:1022C00004F00EF90346002B03D03A21054802F032
:1022D0001BFC00BF6037BD4680BD00BF0038024018
:1022E00000700040EC6A040880B588B000AF7860E8
:1022F00000237B610023FB61786836F0EFF9034629
:102300003B613B69032B3CDD3B69052B39DC7B687A
:102310001B78502B37D17B6802331B782E2B32D1A0
:102320007B6801331B78402B2FD97B6801331B78E6
:102330005A2B2AD87B6801331B78413BFB6003236F
:10234000BB6110E0FA6913469B0013445B00FB611C
:10235000BB697A6813441B78303BFA691344FB610C
:10236000BB690133BB61BA693B699A42EADBFB682E
:102370001B01DAB2FB6903F00F0313437B617B6936
:1023800009E000BF02E000BF00E000BF044836F0F3
:10239000A5FA6FF0150318462037BD4680BD00BF73
:1023A000FC6A040880B586B000AFF860B9601346D7
:1023B000FB71BB681B11DBB203F00F03082B17D8AE
:1023C000BB681B11DBB203F00F0303F580138033EE
:1023D0009B027B61BB68DBB203F00F03012202FAB0
:1023E00003F37B82FA797B8A1946786903F0AEFBA6
:1023F00000BF1837BD4680BD80B586B000AF78609D
:1024000039600023FB753B681B11DBB203F00F033F
:10241000082B1FD83B681B11DBB203F00F0303F539
:10242000801380339B023B613B68DBB203F00F03F8
:10243000012202FA03F3FB81FB891946386903F094
:102440006DFB0346FB75FB7D002B14BF01230023AE
:10245000DBB201E06FF0150318461837BD4680BDAA
:1024600080B58AB000AFF860B9601346FB71BB68F5
:102470001B11DBB203F00F03082B44D8BB68DBB29F
:1024800003F00F03012202FA03F39BB27B610123E5
:10249000BB6102233B62FB79002B04D10123BB61AA
:1024A0000023FB611EE0FB79012B04D10023BB61FB
:1024B0000023FB6116E0FB79022B04D10023BB61F2
:1024C0000123FB610EE0FB79032B04D10023BB61E8
:1024D0000223FB6106E0FB79042B03D11123BB61CE
:1024E0000023FB61BB681B11DBB203F00F0303F594
:1024F000801380339B021A4607F1140319461046D5
:1025000003F074F800E000BF2837BD4680BD80B4FA
:1025100085B000AF78600023FB600BE00122FB6810
:1025200002FA03F37A689A4201D1FB6807E0FB687C
:102530000133FB60FB681F2BF0DD4FF0FF331846C3
:102540001437BD465DF8047B7047000080B584B049
:1025500000AF78607868FFF7DAFFF860FB68002B5F
:1025600002DBFB680F2B01DD002303E0FB689B000F
:10257000024A134418461037BD4680BD501A05085C
:1025800080B586B000AFF860B9603B601346FB7160
:102590004FF0FF337B61BB681B11DBB203F00F030D
:1025A000082B02D96FF057036CE0BB68DBB203F075
:1025B0000F03012202FA03F39BB21846FFF7A7FFAD
:1025C00078617B69002B02DB7B690F2B02DD6FF0EA
:1025D000570357E0FDF7F8FD38612C4A7B691B0172
:1025E00013441B68BA689A421FD1284A7B691B01B1
:1025F000134408331B683A689A4216D1234A7B6910
:102600001B01134404331B78FA799A420DD11F4AF7
:102610007B691B0113440C331B683A6A9A4204D14C
:102620003869FDF7D5FD00232CE0184A7B691B01B2
:1026300013441B68B3F1FF3F05D03869FDF7C8FDAF
:102640006FF00F031EE0114A7B691B011344BA6847
:102650001A600E4A7B691B01134408333A681A60FA
:102660000A4A7B691B0113440433FA791A70074A3A
:102670007B691B0113440C333A6A1A603869FDF711
:10268000A7FD002318461837BD4680BD180000205E
:1026900080B584B000AF786039604FF0FF33FB60E5
:1026A0003B681B11DBB203F00F03082B02D96FF05C
:1026B000570344E03B68DBB203F00F03012202FA48
:1026C00003F39BB21846FFF722FFF860FB68002B6C
:1026D00002DBFB680F2B02DD6FF057032FE0FDF7E5
:1026E00073FDB860184AFB681B0113441B68B3F103
:1026F000FF3F04D1B868FDF76BFD00231FE0124ACD
:10270000FB681B0113444FF0FF321A600E4AFB684E
:102710001B011344083300221A600B4AFB681B019B
:102720001344043300221A70074AFB681B01134448
:102730000C3300221A60B868FDF74AFD00231846E2
:102740001037BD4680BD00BF1800002080B58CB09A
:1027500000AFF860B9601346FB714FF0FF33FB62C6
:10276000BB681B11DBB203F00F03082B02D96FF01B
:102770005703F5E0FB79012B40F08180BB68DBB2A9
:1027800003F00F03012202FA03F39BB21846FFF78E
:10279000BEFEF862FB6A002B02DBFB6A0F2B02DD38
:1027A0006FF05703DCE0FDF70FFD78626E4AFB6ABD
:1027B0001B0113441B68B3F1FF3F05D1786AFDF795
:1027C00007FD6FF05703CBE0FB6A9B00674A134499
:1027D000BB62BB68DBB203F00F03012202FA03F312
:1027E0009BB23B610223FB615F4AFB6A1B011344FE
:1027F00004331B78022B12D0022B16DC002B02D0E4
:10280000012B06D011E00223BB614FF488137B61DA
:102810000BE00123BB614FF404137B6105E000234F
:10282000BB614FF444137B6100BFBB681B11DBB27B
:1028300003F00F0303F5801380339B021A4607F160
:1028400010031946104602F0D1FEBB6A93F902301C
:1028500000220521184602F0AEFBBB6A93F9023054
:10286000184602F0C4FBBB6A1B881A46404B1B6823
:1028700013433F4A1360786AFDF7AAFC6FE0FB79C7
:10288000002B69D1BB68DBB203F00F03012202FA0F
:1028900003F39BB21846FFF759FEB862BB6A002BE0
:1028A00002D16FF057035BE0FDF78EFC7862BB68E6
:1028B0001B11DBB203F00F0303F5801380339B027F
:1028C0001846BB68DBB203F00F03012202FA03F3E0
:1028D0009BB2194603F026F8BB6A1B88DB431A46F5
:1028E000234B1B681340224A1360BB6A1B881F2BB3
:1028F00011D9BB6A1B88B3F5007F0CD81C4B1B6831
:1029000003F47873002B23D1BB6A93F90230184685
:1029100002F07BFB1CE0BB6A1B88B3F5806F11D310
:10292000BB6A1B88B3F5004F0CD8114B1B6803F42E
:102930007C43002B0CD1BB6A93F90230184602F09D
:1029400064FB05E0BB6A93F90230184602F05DFBB8
:10295000786AFDF73DFC02E06FF0570300E00023CA
:1029600018463037BD4680BD18000020501A0508B3
:102970007C18002080B582B000AF78600C4A7B687C
:102980001B01134408331B68002B0DD0084A7B68D9
:102990001B01134408331B6805497A6812010A4475
:1029A0000C3212681046984700BF0837BD4680BDFC
:1029B0001800002080B582B000AF0346FB80FB8882
:1029C0001846FFF7A4FD03461846FFF7D3FF00BFE4
:1029D0000837BD4680BD80B500AF34F0BDFE012094
:1029E00003F0CEF834F0CCFE00BF80BD80B500AF60
:1029F00034F0B2FE022003F0C3F834F0C1FE00BF91
:102A000080BD80B500AF34F0A7FE042003F0B8F815
:102A100034F0B6FE00BF80BD80B500AF34F09CFE40
:102A2000082003F0ADF834F0ABFE00BF80BD80B5E8
:102A300000AF34F091FE102003F0A2F834F0A0FEB5
:102A400000BF80BD80B500AF34F086FE202003F0CB
:102A500097F8402003F094F8802003F091F84FF4A9
:102A6000807003F08DF84FF4007003F089F834F0B3
:102A700087FE00BF80BD80B500AF34F06DFE4FF41F
:102A8000806003F07DF84FF4006003F079F84FF4B4
:102A9000805003F075F84FF4005003F071F84FF4D4
:102AA000804003F06DF84FF4004003F069F834F013
:102AB00067FE00BF80BD000080B58AB000AF002374
:102AC0007B62434B1B6B424A43F001031363404B51
:102AD0001B6B03F001037B627B6A00233B623C4B70
:102AE0001B6B3B4A43F002031363394B1B6B03F030
:102AF00002033B623B6A0023FB61354B1B6B344A8C
:102B000043F004031363324B1B6B03F00403FB61BC
:102B1000FB690023BB612E4B1B6B2D4A43F008035E
:102B200013632B4B1B6B03F00803BB61BB690023D2
:102B30007B61274B1B6B264A43F010031363244B26
:102B40001B6B03F010037B617B6900233B61204B0F
:102B50001B6B1F4A43F0200313631D4B1B6B03F0D9
:102B600020033B613B690023FB60194B1B6B184A38
:102B700043F040031363164B1B6B03F04003FB60F1
:102B8000FB680023BB60124B1B6B114A43F08003B0
:102B900013630F4B1B6B03F08003BB60BB68002308
:102BA0007B600B4B1B6B0A4A43F480731363084B27
:102BB0001B6B03F480737B607B6800220549064829
:102BC00025F030FA034618462837BD4680BD00BFC1
:102BD00000380240901A05081C6B040880B584B0C8
:102BE00000AF78607B681B68FB60FB681B78042182
:102BF000184625F0A9FAFB685B780421184625F0F1
:102C0000A3FAFB681B780121184625F0BDFAFB6882
:102C10005B780121184625F0B7FA00BF1037BD4692
:102C200080BD000080B582B000AF01233B6000236F
:102C30007B600BE07B68B42202FB03F3084A134479
:102C40001846FFF7CBFF7B6801337B607A683B68EF
:102C50009A42EFD300BF00BF0837BD4680BD00BF1A
:102C60008018002080B584B000AF786039607B6840
:102C7000FB603B68002B06D0FB685B78012118469F
:102C800025F082FA05E0FB685B780021184625F004
:102C90007BFA00BF1037BD4680BD80B584B000AF61
:102CA000786039607B68FB603B68002B06D0FB686E
:102CB0001B780121184625F067FA05E0FB681B78B0
:102CC0000021184625F060FA00BF1037BD4680BDD0
:102CD00080B584B000AF78607B68FB60FB685B7890
:102CE000184625F071FA034618461037BD4680BDD8
:102CF00080B584B000AF78607B68FB60FB681B78B0
:102D0000184625F061FA034618461037BD4680BDC7
:102D100080B584B000AF78600023FB607B685B788F
:102D2000184625F051FA0346002B17D111E07B68B5
:102D30001B780121184625F027FA642001F0F8FEDF
:102D40007B681B780021184625F01EFA642001F0EC
:102D5000EFFEFB685A1CFA60082BE8DD7B685B78A5
:102D6000184625F031FA0346002B02D16FF0FE031E
:102D700000E0002318461037BD4680BDB0B582B0D4
:102D800000AF00237B6048E0284A7B68B42101FB48
:102D900003F31344264A1C4615460FCD0FC40FCD2E
:102DA0000FC495E8030084E803007B68DB00214A38
:102DB0001A441E497B68B42000FB03F30B441A60DD
:102DC0007B68B42202FB03F3184A1A4417497B6854
:102DD000B42000FB03F30B44B0331A607B68B422C9
:102DE00002FB03F32833114A1344134A11461846D1
:102DF00023F07CFA38603B68002B04D0B7220F49DF
:102E00000F4835F0B5FF7B68DB000A4A13441846CB
:102E1000FFF77EFF7B6801337B607B68002BB3D0BC
:102E2000002318460837BD46B0BD00BF80180020FB
:102E3000B41A0508AC1A0508206B0408DC1A05084A
:102E4000286B040880B584B000AF786039607B6877
:102E5000002B04D155226A496A4835F089FF3B6846
:102E6000002B04D156226649674835F081FF7B6804
:102E7000BB603B681B7803F00803002B03D0BB68E2
:102E800000225A6003E0BB684FF482725A603B68CC
:102E90001B7803F04003002B04D0BB684FF40042C2
:102EA0009A6002E0BB6800229A603B685B78082B5E
:102EB00003D1BB680022DA600BE03B685B78102B23
:102EC00004D1BB684FF40062DA6002E06FF00403E3
:102ED0000BE13B681B7803F00103002B03D0BB68B8
:102EE00001225A6102E0BB6800225A613B681B78EC
:102EF00003F00203002B03D0BB6802221A6102E038
:102F0000BB6800221A61BB684FF400729A6100230B
:102F1000FB607B689B6D1B681A463C4B9A4203D949
:102F200003F0CAFAF86002E003F0B2FAF8603B6816
:102F30005A68FB685B089A4203D3BB680022DA61D7
:102F40003EE03B685A68FB689B089A4203D3BB6823
:102F50000822DA6134E03B685A68FB68DB089A4271
:102F600003D3BB681022DA612AE03B685A68FB6829
:102F70001B099A4203D3BB681822DA6120E03B6840
:102F80005A68FB685B099A4203D3BB682022DA6166
:102F900016E03B685A68FB689B099A4203D3BB68FA
:102FA0002822DA610CE03B685A68FB68DB099A4228
:102FB00003D3BB683022DA6102E0BB683822DA61F1
:102FC0003B681B7803F00403002B03D0BB6800228E
:102FD0001A6202E0BB6880221A62BB6800225A6251
:102FE000BB6800229A62BB68002283F85120B8684F
:102FF00003F058FB0346002B0AD06FF0040374E083
:10300000F41A0508446B0408586B0408FFFF0040DD
:103010007B6893F8203103F00103002B1FD07B68FD
:103020006033184602F00CF87B6803F160027B689D
:10303000DA647A687B68C3F898207B689B6DDB68EC
:1030400093F9083000220021184601F0B4FF7B6894
:103050009B6DDB6893F90830184601F0C8FF7B6868
:1030600093F8203103F00203002B1FD07B68C0339C
:10307000184601F0E5FF7B6803F1C0027B689A64A3
:103080007A687B68C3F8F8207B689B6D1B6993F9AD
:10309000083000220121184601F08DFF7B689B6DEE
:1030A0001B6993F90830184601F0A1FF7B6893F87B
:1030B000203103F00203002B06D17B6893F8203106
:1030C00003F00103002B0FD07B689B6D93F9083050
:1030D00000220221184601F06EFF7B689B6D93F978
:1030E0000830184601F083FF002318461037BD460C
:1030F00080BD00BF80B590B002AF7860396000231A
:1031000087F837307B68002B05D140F223129C49A9
:103110009C4835F02DFE7B685B6C002B05D14FF48D
:1031200092729749984835F023FE3B68002B05D1F1
:1031300040F225129249954835F01AFE7B685B6C87
:10314000A3F59273BB61BB697B613B681B7C03F099
:103150000103DBB2002B1FD07B6893F8483003F0EB
:103160002003002B18D17B681B6DB3F1FF3F13D0F8
:103170007B6893F8483003F01003002B06D07B687F
:103180001B6D0121184624F0FFFF05E07B681B6DD5
:103190000021184624F0F8FF3B689B683B633B68BE
:1031A0005B68BB623B681B687B629DE13B6BB3F570
:1031B000803F08D34FF6FF73FB853B6BA3F57F433E
:1031C000FF3B3B6303E03B6BFB8500233B633B68BA
:1031D0009A68FB8DD21A3B6BD31A3B613B681B6824
:1031E000002B04D03B681A683B6913447B623B6840
:1031F0005B68002B04D03B685A683B691344BB6290
:1032000000233B620023FB61BB6993F8203103F08C
:103210000203002B1ED0FB8D092B1BD97B6A03F008
:103220000303002B08D17B6A002B05D07B6A002B9F
:1032300002D07B6AFB6132E0FB8D184635F0E8FC7A
:103240003862FB8D1A46796A386A35F0EBF83B6ACA
:10325000FB6124E0BB6993F8203103F00103002BEC
:103260001DD0FB8D092B1AD9BB6A03F00303002B79
:1032700008D1BB6A002B05D0BB6A002B02D0BB6A09
:10328000FB610CE0FB8D184635F0C2FC3862FB8D0B
:103290001A46B96A386A35F0C5F83B6AFB613B6883
:1032A0001B68002B54D03B685B68002B50D0BB6977
:1032B00093F8203103F00203002B13D0BB6993F87D
:1032C000203103F00103002B0CD0FB8D092B09D911
:1032D000FB8DFA69F969786903F0DAFF034687F82C
:1032E000373034E0BB6993F8203103F00203002B40
:1032F0000CD0FB8D092B09D9FB8D1A46F969786929
:1033000003F048FE034687F8373020E0BB6993F8A6
:10331000203103F00103002B0CD0FB8D092B09D9C0
:10332000012387F837301A4B01221A49032021F074
:10333000FBFDDDE0FB8D4FF47A720092BA6A796A88
:10334000786903F085FC034687F8373082E081E036
:103350003B681B68002B40D0BB6993F8203103F019
:103360000203002B18D0FB8D092B15D9FB8D1A46B3
:10337000F969786903F00EFE034687F8373015E0E7
:10338000041B0508686B04087C6B0408946B040834
:10339000A86B04081C6C0408FA8D4FF47A73796AE0
:1033A000786903F008FA034687F837303B681B7CDE
:1033B00003F00203DBB2002B4CD07B6893F848305B
:1033C00003F04003002B45D07B691B681A687B69BA
:1033D0001B6822F040021A603CE03B685B68002BEF
:1033E0002FD0FB8D1A46FF21B86A34F0B7FFBB69B6
:1033F00093F8203103F00103002B0CD0FB8D092B37
:1034000009D9FB8D1A46F969786903F079FE0346FC
:1034100087F837301EE00023FB607B691B68DB68A0
:10342000FB607B691B689B68FB60FB68FA8D4FF44F
:103430007A73B96A786903F0FAFA034687F8373085
:1034400008E0012387F83730434B0122434903202A
:1034500021F06AFD97F83730002B10D097F83730FD
:1034600000933F4B01223D49032021F05DFD3B6865
:1034700000229A607B69012283F8512038E0BB6901
:1034800093F8203103F00303002B17D0FB8D092B99
:1034900014D9BB6903F5D4734FF47A71184623F03D
:1034A00050F90346002B10D0012387F837302D4BFD
:1034B00001222A49032021F037FD19E000BF786975
:1034C00004F010F80346012BF9D13B6A002B0BD016
:1034D000BB6A002B05D0FB8D1A46F969B86A34F037
:1034E000A1FF386A35F00CFC3B6B002B7FF45EAE1D
:1034F0003B681B7C03F00203DBB2002B1FD07B6810
:1035000093F8483003F02003002B18D17B681B6D23
:10351000B3F1FF3F13D07B6893F8483003F01003FA
:10352000002B06D07B681B6D0021184624F02CFE72
:1035300005E07B681B6D0121184624F025FE97F8F5
:103540003730002B02D06FF0FE0301E03B689B6830
:1035500018463837BD4680BD246C04081C6C04082E
:103560005C6C0408746C040880B584B000AF7860AB
:1035700039607B68002B05D14FF405720E490F4866
:1035800035F0F6FB3B68002B05D140F215220A49C5
:103590000B4835F0EDFB7B685B6CA3F59273FB6029
:1035A000FB683A68DA653968F868FFF74BFC034650
:1035B00018461037BD4680BD0C1B0508686B040813
:1035C000986C040880B584B000AF0023BB60F2E1C2
:1035D000BA6813469B0013449B00BF4A1A44BF4974
:1035E000BB684FF4D67000FB03F30B4458331A60EA
:1035F000BA6813469B0013449B00B74A1A44B74964
:10360000BB684FF4D67000FB03F30B4403F5B273B1
:103610001A60B149BA6813469B0013449B000B44DF
:103620001A68AE49BB684FF4D67000FB03F30B4435
:103630001A60AA4ABB684FF4D67101FB03F3134426
:1036400003F590731B7803F00103002B00F0B780A3
:10365000A149BA6813469B0013449B000B440C33EA
:103660001B681A689D49BB684FF4D67000FB03F3D2
:103670000B4460331A609849BA6813469B001344A0
:103680009B000B440C331B68DA689449BB684FF409
:10369000D67000FB03F30B4464331A608F4ABB6897
:1036A0004FF4D67101FB03F31344683300221A6010
:1036B0008A4ABB684FF4D67101FB03F313446C33A1
:1036C00000221A60854ABB684FF4D67101FB03F3F0
:1036D000134470334FF480621A60804ABB684FF421
:1036E000D67101FB03F31344743300221A607B4A42
:1036F000BB684FF4D67101FB03F313447833002207
:103700001A60764ABB684FF4D67101FB03F3134489
:103710007C3300221A60714ABB684FF4D67101FBFA
:1037200003F3134480334FF400321A606B4ABB68D2
:103730004FF4D67101FB03F31344843300221A6063
:10374000664ABB684FF4D67101FB03F31344883318
:1037500003221A60614ABB684FF4D67101FB03F380
:1037600013448C334FF400021A605C4ABB684FF478
:10377000D67101FB03F3134490334FF400121A6027
:1037800000237B60564B196B5348BA6813469B0065
:1037900013449B0003440C331B685B68504A0B4383
:1037A00013634F4B196B4C48BA6813469B00134484
:1037B0009B0003440C331B685B680B407B60474AEB
:1037C000BB684FF4D67101FB03F3134403F5907308
:1037D0001B7803F00203002B00F0BD803E49BA685D
:1037E00013469B0013449B000B4410331B681A685C
:1037F0003A49BB684FF4D67000FB03F30B44C03367
:103800001A603549BA6813469B0013449B000B4469
:1038100010331B68DA683149BB684FF4D67000FB7F
:1038200003F30B44C4331A602C4ABB684FF4D671BF
:1038300001FB03F31344C83340221A60274ABB68D4
:103840004FF4D67101FB03F31344CC3300221A600A
:10385000224ABB684FF4D67101FB03F31344D03303
:103860004FF480621A601D4ABB684FF4D67101FBA9
:1038700003F31344D43300221A60184ABB684FF490
:10388000D67101FB03F31344D83300221A60134AA4
:10389000BB684FF4D67101FB03F31344DC33002201
:1038A0001A600E4ABB684FF4D67101FB03F3134450
:1038B000E03300221A60094ABB684FF4D67101FB5D
:1038C00003F31344E43300221A60044ABB684FF444
:1038D000D67101FB03F305E0180100203419002024
:1038E000003802401344E83303221A60364ABB68AA
:1038F0004FF4D67101FB03F31344EC334FF4000291
:103900001A60314ABB684FF4D67101FB03F31344CC
:10391000F0334FF400121A6000233B602B4B196BFD
:103920002B48BA6813469B0013449B000344103392
:103930001B685B68254A0B431363244B196B2448AF
:10394000BA6813469B0013449B00034410331B6862
:103950005B680B403B60BB684FF4D67202FB03F31D
:1039600003F5D473184A1344184622F0F9FEBB68D5
:103970004FF4D67202FB03F303F59073124A13441B
:10398000181D1349BA6813469B0013449B000B444F
:1039900004331B680F4A194627F032FAF860FB68B7
:1039A000002B05D040F289220B490C4835F0E0F994
:1039B000BB680133BB60BB68002B3FF409AEFB68FA
:1039C00018461037BD4680BD34190020003802402B
:1039D00018010020EC1A05081C1B0508B46C04082B
:1039E00080B58AB004AFF860B9607A60FB68002BDC
:1039F00005D140F296222049204835F0B9F9BB683C
:103A0000002B05D140F297221B491D4835F0B0F933
:103A1000582035F0FDF878617B69002B05D140F224
:103A20009E221549174835F0A3F9002300937B68BF
:103A3000FA68B968786927F00AFA38613B69002B9F
:103A40000BD03B690293FB680193BB6800930E4B5C
:103A500001220E49032021F067FA3B69002B05D0B3
:103A600040F2A62204490A4835F082F93B6918461B
:103A70001837BD4680BD00BF301B0508C86C040860
:103A8000DC6C0408F46C04080C6D04081C6C04085D
:103A9000B46C040880B400AF00BFBD465DF8047B81
:103AA000704780B584B000AF78607B68FB60FB68CE
:103AB00003F5D473184622F037FE00BF1037BD4619
:103AC00080BD80B584B000AF78607B68FB60FB6828
:103AD00003F5D473184622F027FE00BF1037BD4609
:103AE00080BD80B584B000AF78607B68FB60FB6808
:103AF00003F5D473184622F017FE00BF1037BD46F9
:103B000080BD80B500AFFFF7C5FFFFF75BFD034643
:103B1000184680BD80B582B000AF7860054B0122A9
:103B20000549062021F000FA002318460837BD4653
:103B300080BD00BF286D0408386D040880B584B0CE
:103B400002AF78600B467B807B880093054B012297
:103B50000549062021F0E8F9002318460837BD463C
:103B600080BD00BF446D0408386D040880B582B084
:103B700000AF7860054B01220549062021F0D4F9F9
:103B8000002318460837BD4680BD00BF5C6D0408A1
:103B9000386D040880B586B002AFF860B9607A600D
:103BA0003B603B680193BB680093054B01220549CC
:103BB000062021F0B9F9002318461037BD4680BD14
:103BC0006C6D0408386D040880B586B002AFF860EB
:103BD000B9607A603B603B680193BB680093054B1A
:103BE00001220549062021F09FF9002318461037CD
:103BF000BD4680BD906D0408386D040880B586B060
:103C000002AFF860B9607A60BB680093054B01228F
:103C10000549062021F088F9002318461037BD46D3
:103C200080BD00BFB46D0408386D040880B582B053
:103C300000AF0021002021F07CFD78607B68002B24
:103C400008D1184B01221849032021F06DF96FF0BB
:103C5000FE0322E07B68154A5A627B68144A9A6226
:103C60007B68144ADA627B68134A1A637B68134ADA
:103C70005A637B68124A9A6303221249786821F0DA
:103C8000EAFC0346002B07D00F4B01220649032014
:103C900021F04AF9002300E0002318460837BD460A
:103CA00080BD00BFCC6D0408386D0408153B0008CA
:103CB0003D3B00086D3B0008953B0008C93B0008F0
:103CC000FD3B0008E86D0408F46D040880B483B07F
:103CD00000AF0346FB7197F90730002B12DBFB792D
:103CE00003F01F020A4997F907305B09012000FA27
:103CF00002F2203341F82320BFF34F8F00BFBFF300
:103D00006F8F00BF00BF0C37BD465DF8047B704766
:103D100000E100E080B485B000AF78603960FF2337
:103D2000FB607B68002B08D13B68002B02D1FF238E
:103D3000FB600FE07F23FB600CE07B68B3F5805FE6
:103D400008D13B68002B03D140F2FF13FB6001E078
:103D5000FF23FB60FB6818461437BD465DF8047B03
:103D60007047000080B584B000AF786039607B6830
:103D7000002B04D19A226649664834F0F9FF3B686B
:103D8000002B04D19B226249634834F0F1FF7B6829
:103D9000A3F58C73FB60FB685B6C5A68FB681A6068
:103DA0003B681A68FB685A60FB680C225A613B68E2
:103DB0001B685A4A934202D94FF4004200E00022A5
:103DC000FB68DA613B68DB79C3F38003DBB2002B6D
:103DD00002D0012B04D008E0FB6800229A6108E0C1
:103DE000FB684FF440729A6103E0FB6800229A611D
:103DF00000BF3B681B79C3F30303DBB2082B02D07F
:103E0000092B17D01BE03B681B7923F03F03DBB283
:103E1000402B06D03B681B7923F03F03DBB2802B9D
:103E200004D1FB684FF480529A600CE0FB680022DA
:103E30009A6008E0FB684FF480529A6003E0FB68E8
:103E400000229A6000BF3B681B79C3F30113DBB209
:103E5000002B02D0012B04D008E0FB680022DA60BE
:103E600008E0FB684FF40052DA6003E0FB680022D0
:103E7000DA6000BF3B681B79C3F38113DBB2022B0E
:103E80000FD0022B12DC002B02D0012B04D00DE04E
:103E9000FB6800221A610DE0FB684FF4C0621A61F2
:103EA00008E0FB684FF480621A6103E0FB680022BF
:103EB0001A6100BF7B681B8B03F00803002B08D13D
:103EC0003B685B68C3F38F239BB21A46FB68C3F859
:103ED000B020FB68184603F07DFD0346002B02D09E
:103EE0006FF0FE030FE0FB689A68FB681B691946D8
:103EF0001046FFF70FFF0246FB689A64FB684FF419
:103F0000FA62DA64002318461037BD4680BD00BF50
:103F10005C1B0508186E04082C6E0408404B4C000E
:103F200080B58AB000AFF860B9607A607B687B6268
:103F3000FB68002B04D1F8227749784834F018FF49
:103F4000FB68A3F58C733B62BB68033B1D2B00F23F
:103F5000D68001A252F823F0C1400008CB400008EF
:103F6000FF40000883400008D13F0008FF400008E0
:103F7000FF400008FF400008FF400008FF40000825
:103F8000FF400008FF400008FF400008FF40000815
:103F9000FF400008FF400008FF400008FF40000805
:103FA000FF400008FF400008FF400008FF400008F5
:103FB000FF400008FF400008FF400008FF400008E5
:103FC000FF400008FF400008FF400008E7400008ED
:103FD0003B6A5B6C93F908301846FFF777FE7B6805
:103FE000BB61BB69B3F5807F07D13B6A1B68DA68A8
:103FF0003B6A1B6822F02002DA607B6AB3F5007F1F
:1040000024D13B6A5B6CDB6893F90830184600F0FA
:10401000FCFF3B6A5033184601F076F90346002B4B
:1040200005D04FF488723C493D4834F0A1FE3B6A0C
:104030005033184601F0B2F80346002B61D040F22D
:1040400015123549364834F093FE5AE07B6AB3F5D1
:10405000006F56D13B6A5B6C1B6993F908301846B8
:1040600000F0D3FF3B6AB433184601F097F80346DB
:10407000002B46D040F21D122749294834F078FE23
:104080003FE03B6A5B6C93F908300022012118463F
:1040900000F091FF3B6A5B6C93F90830184600F022
:1040A000A6FF7B687B617B69B3F5807F2BD13B6A80
:1040B0001B68DA683B6A1B6842F02002DA6022E083
:1040C000796AF86800F064FA20E03B6A184603F069
:1040D000CEFC0346002B18D040F23F120E49104888
:1040E00034F046FE11E07B68FB61FB69002B03D0D6
:1040F0003B6AFA69DA6409E06FF0FE0307E000BF8B
:1041000004E000BF02E000BF00E000BF002318464B
:104110002837BD4680BD00BF6C1B0508186E04081B
:104120003C6E040880B584B000AF78600B46FB702D
:104130007B68002B05D140F25B121649164834F01B
:1041400017FE7B68A3F58C73BB60BB68DB6CFB6000
:10415000BB681B686FF040021A60BB681B68FA7886
:104160005A6000BFBB681B681B6803F04003402B0C
:1041700004D0FB685A1EFA60002BF3D1FB68002BB9
:1041800001D0012301E04FF0FF3318461037BD4640
:1041900080BD00BF7C1B0508186E040880B584B084
:1041A00000AF78607B68002B05D14FF4B8720F49DF
:1041B0000F4834F0DDFD7B68A3F58C73BB604FF0D6
:1041C000FF33FB60BB681B681B6803F02003202BD8
:1041D00006D1BB681B685A68BB689B6C1340FB60C8
:1041E000FB6818461037BD4680BD00BF881B050818
:1041F000186E040880B586B000AFF860B9607A60C8
:104200003B60FB68002B05D140F28512154916482A
:1042100034F0AEFDBB68002B05D14FF4C3721149D9
:10422000124834F0A5FDFB68A3F58C737B617B68B5
:10423000002B01D1002311E03B68022B0DD17B69DB
:104240007A6892B2B968184603F040FC0346002B26
:1042500001D17B6802E0002300E0002318461837F4
:10426000BD4680BD941B0508186E0408406E040806
:1042700080B586B000AF78600B46FB707B68002B82
:1042800005D140F2A3123749374834F071FD7B68FD
:10429000A3F58C733B61FBF797FFF86000237B610C
:1042A0003B691B6D5B68BB60FB78022B2ED0022B39
:1042B0003FDC002B02D0012B1BD03AE03B69D3F846
:1042C000B030BA689A4206D83B69D3F8B020BB68D0
:1042D000D31A7B6130E07B68DB6CC3F38F239BB226
:1042E0001A463B69D3F8B0301A44BB68D31A7B61D5
:1042F00022E03B69D3F8B030BA689A421BD23B69DE
:10430000D3F8B020BB68D31A7B6114E03B69D3F8C3
:10431000B030BA689A420CD37B68DB6CC3F38F234E
:104320009BB21A463B69D3F8B0301A44BB68D31A23
:104330007B6100BF00E000BF7B69002B0BD03B69B5
:10434000BA68C3F8B0207B691B0243F00303194627
:10435000786825F07DF9F868FBF73AFF00BF183759
:10436000BD4680BDA81B0508186E040880B588B03E
:1043700000AF78607B68002B05D14FF4EA72744976
:10438000744834F0F5FC7B68A3F58C73FB61FB6922
:104390001B681B6803F02003202B0BD1FB691B68F3
:1043A000DB6803F02003002B04D00121786825F09E
:1043B0004FF9C8E0FB691B681B6803F04003402B02
:1043C00023D1FB691B68DB6803F04003002B1CD082
:1043D0007B681B8B03F40063002B04D0FB69184639
:1043E00003F022FC0BE0FB691B68DA68FB691B68C1
:1043F00022F04002DA600221786825F029F9FB6991
:104400001B686FF040021A609DE0FB69B3F814313D
:10441000002B1DD0FB691B681B6803F01003102BD9
:1044200016D1FB691B68DB6803F01003002B0FD06B
:1044300000217868FFF71CFF0023BB61FB691B6844
:104440001B68BB61FB691B685B68BB61BB697AE089
:10445000FB691B681B6803F00803082B0AD10023C3
:104460007B61FB691B681B687B61FB691B685B6880
:104470007B617B69FB691B681B6803F00403042BE9
:104480000AD100233B61FB691B681B683B61FB6928
:104490001B685B683B613B69FB691B681B6803F039
:1044A0000203022B0AD10023FB60FB691B681B6817
:1044B000FB60FB691B685B68FB60FB68FB691B6852
:1044C0001B6803F00103012B0AD10023BB60FB69C9
:1044D0001B681B68BB60FB691B685B68BB60BB68D3
:1044E000FB691B681B6803F48073B3F5807F04D1FC
:1044F000FB691B686FF480721A60FB691B681B689C
:1045000003F40073B3F5007F04D1FB691B686FF4FB
:1045100000721A60FB691B681B6803F08003802B24
:1045200004D1FB691B686FF080021A60FB691B688D
:104530001B6803F02003202B05D1FB691B686FF07B
:1045400020021A60FFE700BF2037BD4680BD00BFD4
:10455000B81B0508186E040880B500AF33F0FCF8EE
:104560000348FFF703FF33F00BF900BF80BD00BF26
:10457000F81B002080B400AF044B0022A3F81421E4
:1045800000BFBD465DF8047B704700BFE01A002005
:1045900080B588B000AF786039607B68002B05D1AA
:1045A00040F224427449754834F0E2FB3B68B3F5AD
:1045B000006F09D03B68B3F5007F05D040F225427B
:1045C0006D496F4834F0D4FB7B68A3F58C737B6135
:1045D0003B68B3F5007F07D17B695033FB617B6992
:1045E0005B6CDB68BB6106E07B69B433FB617B69B4
:1045F0005B6C1B69BB6100233B61624B1A6BBB693F
:104600005B68604913430B635E4B1A6BBB695B6865
:1046100013403B613B68B3F5007F09D17B6903F12F
:1046200050027B699A637A697B69C3F888200CE041
:104630003B68B3F5006F08D17B6903F1B4027B6975
:104640005A637A697B69C3F8EC20BB691A68FB6915
:104650001A60BB69DA68FB695A60FB690022DA609C
:10466000FB694FF480621A61FB6900225A61FB69A1
:1046700000229A613B68B3F5007F07D1FB690022F5
:104680009A60FB694FF48072DA6109E03B68B3F528
:10469000006F05D1FB6940229A60FB690022DA6154
:1046A000FB694FF480321A62FB6900225A62F86992
:1046B00000F074FD0346002B05D040F279422E49EC
:1046C000314834F055FBF86900F0BAFC0346002B82
:1046D00005D040F27E4228492B4834F049FB3B6824
:1046E000B3F5007F26D17B681B6DFB607869FB68A2
:1046F00019687B68DB6CC3F38F239BB21A4603F007
:1047000063FA0346002B05D040F289421A491E483D
:1047100034F02EFB7B691B685A697B691B6822F0A9
:1047200001025A617B691B68DA687B691B6842F089
:104730001002DA60BB6993F90830002200211846A4
:1047400000F039FCBB6993F90830184600F04FFCC3
:104750007B695B6C93F9083000220121184600F058
:104760002AFC7B695B6C93F90830184600F03FFC2B
:1047700000BF2037BD4680BDC41B0508186E040865
:10478000506E0408003802403C6E040880B584B0C6
:1047900000AF78607B68002B05D140F2A342054949
:1047A000054834F0E5FA7B68FB6000BF1037BD4672
:1047B00080BD00BFD81B0508906E040880B584B08A
:1047C00000AF78607B68002B05D140F2B342084906
:1047D000084834F0CDFA7B68FB60FB6803F58C7306
:1047E00002211846FFF744FD00BF1037BD4680BDCB
:1047F000F01B0508906E040880B584B000AF7860A7
:104800007B68002B05D140F2C2420849084834F0C9
:10481000AFFA7B68FB60FB6803F58C7301211846D7
:10482000FFF726FD00BF1037BD4680BD081C0508F8
:10483000906E040880B586B000AF78607B68002B6E
:1048400005D140F2CD420F490F4834F091FA7B6810
:10485000A3F58C737B61FBF7B7FC38617B69D3F8F8
:10486000B4305B68FB603869FBF7B2FCFB68002B77
:1048700003D10421786824F0EBFE00BF1837BD4651
:1048800080BD00BF241C0508186E040880B584B0E4
:1048900000AF78607B68002B05D140F2E442084904
:1048A000084834F065FA7B68FB60FB6803F58C739D
:1048B0001846FFF7BFFF00BF1037BD4680BD00BFE1
:1048C000381C0508906E040890B585B000AF394AD1
:1048D0003B4692E8030083E803000023FB60FFF7F8
:1048E00049FE0023BB605CE0BA6813469B0013449A
:1048F0009B00314A99183148BA6813465B0013444B
:10490000DB010344443319602C49BA6813465B0049
:104910001344DB010B4403F5AE73294A1A6027499F
:10492000BA6813465B001344DB010B4403F5B07314
:104930001A463B4693E8030082E80300BA68134630
:104940005B001344DB0103F58C731C4A98181B4968
:10495000BA6813465B001344DB010B4444331B6805
:104960001968164CBA6813465B001344DB012344F4
:1049700003F58A731B8843F4A06343F003039BB2DF
:104980001A46002324F012FEF860FB68002B05D0C5
:104990004FF4A1620B490C4834F0EAF9BB680133CB
:1049A000BB60BB68002B9FD0FB6818461437BD4620
:1049B00090BD00BFB46E04082C010020E01A002056
:1049C000481B0508501C0508A06E040880B483B07D
:1049D00000AF03463960FB7197F90730002B0ADB03
:1049E0003B68DAB20C4997F907301201D2B20B4496
:1049F00083F800230AE03B68DAB20849FB7903F048
:104A00000F03043B1201D2B20B441A7600BF0C37DD
:104A1000BD465DF8047B704700E100E000ED00E07A
:104A200080B582B000AF03463960FB7120F0F0FD25
:104A300000BF0837BD4680BD80B500AF00F01AF951
:104A40000C4B1B680C4AA2FB03239B09184600F081
:104A5000EAFAFF214FF0FF30FFF7B8FF074B0122C2
:104A60001A60064B1B68002B02D1044B01221A600E
:104A700000BF80BD44010020D34D621040010020E2
:104A800080B500AF32F068FE064B1B6803F480333C
:104A9000002B01D000F01AF82FF05AFD32F070FE12
:104AA00000BF80BD10E000E080B500AF054B1B6883
:104AB00003F48033002B01D000F008F8024B1B6890
:104AC000184680BD10E000E0601C002080B400AFFC
:104AD000054B1A68054B1B681344034A136000BF5B
:104AE000BD465DF8047B7047601C0020400100203B
:104AF00080B582B000AF7860FFF79EFF00231846B4
:104B00000837BD4680BD000080B584B002AF786034
:104B100039603B6801937B680093034B0122034992
:104B2000032020F001FAFEE7BC6E0408DC6E0408E6
:104B3000B0B48BB000AF7860002139621F4949687A
:104B4000F961F9691E48A0FB01018909786800FB39
:104B500001F100200C460546C7E90445174989685C
:104B6000796216498968F960F868796A8842F8D0EC
:104B7000F868796A884206D2786AF968411A386A10
:104B80000144396207E0F869F968401A796A01441A
:104B9000386A01443962F9687962396A00200A4644
:104BA0000346D7E90401824273EB010100D2D8E742
:104BB00000BF00BF2C37BD46B0BC704710E000E01E
:104BC000D34D621080B500AF00F0D4F8FDF700FBC4
:104BD0000749084834F00EF8FDF76EFFFFF774FE42
:104BE000054833F017FE2FF03DFD00BF80BD00BF2C
:104BF0000000022058470120E86E0408DFF834D096
:104C00000D480E490E4A002302E0D458C450043324
:104C1000C4188C42F9D30B4A0B4C002301E01360FB
:104C20000432A242FBD300F013F808F053FA2FF03D
:104C30004DFD7047A40E002000000020A40A0020B3
:104C40001C460508A80E002058470120FEE700007A
:104C500080B400AF064BD3F88830054A43F47003A4
:104C6000C2F8883000BFBD465DF8047B704700BFC6
:104C700000ED00E080B487B000AF00233B6100236B
:104C80007B610223FB600023BB6002237B60344B0B
:104C90009B6803F00C033B613B69082B11D03B6917
:104CA000082B44D83B69002B03D03B69042B04D06C
:104CB0003DE02C4B2C4A1A603DE02A4B2B4A1A60EF
:104CC00039E0274B5B689B0D03F00103BB60244B6D
:104CD0005B6803F03F037B60BB68002B0CD0234A6A
:104CE0007B68B2FBF3F31E4A52689209C2F30802D2
:104CF00002FB03F37B610BE01B4A7B68B2FBF3F31F
:104D0000174A52689209C2F3080202FB03F37B615F
:104D1000134B5B681B0C03F0030301335B00FB6068
:104D20007A69FB68B2FBF3F30E4A136003E00D4BA4
:104D30000D4A1A6000BF0A4B9B681B0903F00F0362
:104D40000B4AD35C3B61074B1A683B6922FA03F3B9
:104D5000044A136000BF1C37BD465DF8047B7047F2
:104D600000380240440100200024F40000127A00C0
:104D70007C1C050880B500AF0E4B1B680D4A43F440
:104D8000007313600B4B1B680A4A43F48063136083
:104D9000084B1B68074A43F480731360032000F03C
:104DA000FFF80020FFF7A4FEFDF7CAF8002318461D
:104DB00080BD00BF003C024080B485B000AF786089
:104DC0007B6803F00703FB600C4BDB68BB60BA68D1
:104DD0004FF6FF031340BB60FB681A02BB68134326
:104DE00043F0BF6343F40033BB60044ABB68D36045
:104DF00000BF1437BD465DF8047B704700ED00E04E
:104E000080B400AF044BDB681B0A03F007031846AD
:104E1000BD465DF8047B704700ED00E080B483B0D0
:104E200000AF0346FB7197F90730002B0BDBFB79D2
:104E300003F01F02074997F907305B09012000FAC8
:104E400002F241F8232000BF0C37BD465DF8047B19
:104E5000704700BF00E100E080B483B000AF0346BC
:104E6000FB7197F90730002B12DBFB7903F01F026F
:104E70000A4997F907305B09012000FA02F2203352
:104E800041F82320BFF34F8F00BFBFF36F8F00BFE8
:104E900000BF0C37BD465DF8047B704700E100E0C1
:104EA00080B483B000AF03463960FB7197F90730D7
:104EB000002B0ADB3B68DAB20C4997F90730120184
:104EC000D2B20B4483F800230AE03B68DAB2084907
:104ED000FB7903F00F03043B1201D2B20B441A76A4
:104EE00000BF0C37BD465DF8047B704700E100E071
:104EF00000ED00E080B489B000AFF860B9607A607E
:104F0000FB6803F00703FB61FB69C3F10703042B94
:104F100028BF0423BB61FB690433062B02D9FB695C
:104F2000033B00E000237B614FF0FF32BB6902FAD4
:104F300003F3DA43BB681A407B699A404FF0FF31B4
:104F40007B6901FA03F3D9437B680B40134318468E
:104F50002437BD465DF8047B7047000080B582B001
:104F600000AF78607B68013BB3F1807F01D3012300
:104F70000FE00A4A7B68013B53600F214FF0FF307E
:104F8000FFF78EFF054B00229A60044B07221A6040
:104F9000002318460837BD4680BD00BF10E000E082
:104FA00080B582B000AF78607868FFF705FF00BF7A
:104FB0000837BD4680BD80B586B000AF0346B960F6
:104FC0007A60FB7300237B61FFF71AFF78617A68D0
:104FD000B9687869FFF78EFF024697F90F301146DE
:104FE0001846FFF75DFF00BF1837BD4680BD80B58E
:104FF00082B000AF0346FB7197F907301846FFF700
:105000000DFF00BF0837BD4680BD80B582B000AF40
:105010000346FB7197F907301846FFF71DFF00BFE5
:105020000837BD4680BD80B582B000AF7860786833
:10503000FFF794FF034618460837BD4680BD0000C1
:1050400080B586B000AF786000237B61FFF72CFD50
:1050500038617B68002B01D1012399E07B68022233
:1050600083F835207B68002283F834207B681B6836
:105070001A687B681B6822F001021A600FE0FFF7D4
:1050800013FD02463B69D31A052B08D97B68202201
:105090005A657B68032283F83520032378E07B6818
:1050A0001B681B6803F00103002BE8D17B681B68B9
:1050B0001B687B617A69384B13407B617B685A6857
:1050C0007B689B681A437B68DB681A437B681B69B3
:1050D0001A437B685B691A437B689B691A437B6848
:1050E000DB691A437B681B6A13437A6913437B614C
:1050F0007B685B6A042B07D17B68DA6A7B681B6B71
:1051000013437A6913437B617B681B687A691A6071
:105110007B681B685B697B617B6923F007037B61AC
:105120007B685B6A7A6913437B617B685B6A042BEB
:1051300017D17B689B6A7A6913437B617B68DB6A62
:10514000002B0ED0786800F0D5F90346002B08D06C
:105150007B6840225A657B68012283F83520012351
:1051600016E07B681B687A695A61786800F08CF9F0
:105170000346FB607B68DB6D3F229A40FB689A60C8
:105180007B6800225A657B68012283F83520002362
:1051900018461837BD4680BD3F8010F080B584B0FA
:1051A00000AF78607B68002B01D1012350E07B6861
:1051B00093F83530DBB2022B01D1022348E07B6843
:1051C0001B681A687B681B6822F001021A607B6802
:1051D0001B6800221A607B681B6800225A607B688B
:1051E0001B6800229A607B681B680022DA607B687B
:1051F0001B6800221A617B681B6821225A6178684B
:1052000000F042F90346FB607B680022DA637B68AA
:1052100000221A647B6800225A647B6800229A6428
:105220007B680022DA647B6800221A657B68DB6D8C
:105230003F229A40FB689A607B6800225A657B682F
:10524000002283F835207B68002283F83420002375
:1052500018461037BD4680BD80B586B000AFF860F7
:10526000B9607A603B600023FB75FB689B6D3B6116
:10527000FB6893F83430012B01D1022340E0FB6836
:10528000012283F83420FB6893F83530DBB2012B20
:105290002FD1FB68022283F83520FB6800225A6573
:1052A0003B687A68B968F86800F0C0F8FB68DB6DA5
:1052B0003F229A403B699A60FB681B681A68FB684A
:1052C0001B6842F016021A60FB681B6C002B07D0AB
:1052D000FB681B681A68FB681B6842F008021A60CA
:1052E000FB681B681A68FB681B6842F001021A60C1
:1052F00005E0FB68002283F834200223FB75FB7D68
:1053000018461837BD4680BD80B584B000AF7860C0
:105310007B689B6DFB60FFF7C7FBB8607B6893F809
:105320003530DBB2022B08D07B6880225A657B685F
:10533000002283F83420012352E07B681B681A683E
:105340007B681B6822F016021A607B681B685A692A
:105350007B681B6822F080025A617B681B6C002B03
:1053600003D17B689B6C002B07D07B681B681A6895
:105370007B681B6822F008021A607B681B681A6849
:105380007B681B6822F001021A6013E0FFF78CFBB8
:105390000246BB68D31A052B0CD97B6820225A65BC
:1053A0007B68032283F835207B68002283F8342051
:1053B000032315E07B681B681B6803F00103002BC7
:1053C000E4D17B68DB6D3F229A40FB689A607B6882
:1053D000012283F835207B68002283F834200023E3
:1053E00018461037BD4680BD80B483B000AF7860EA
:1053F0007B6893F83530DBB2022B04D07B688022C7
:105400005A6501230CE07B68052283F835207B6810
:105410001B681A687B681B6822F001021A6000236F
:1054200018460C37BD465DF8047B704780B485B0E4
:1054300000AFF860B9607A603B60FB681B681A686F
:10544000FB681B6822F480221A60FB681B683A68BC
:105450005A60FB689B68402B08D1FB681B687A6820
:105460009A60FB681B68BA68DA6007E0FB681B6833
:10547000BA689A60FB681B687A68DA6000BF143704
:10548000BD465DF8047B704780B485B000AF78609E
:105490007B681B68DBB2103B144AA2FB03231B0989
:1054A000FB60134AFB6813441B781A467B68DA6575
:1054B000FB68032B09D97B681B6823F47F7323F0F7
:1054C00003031A1D7B689A6507E07B681B6823F459
:1054D0007F7323F003037A6893657B689B6D18469E
:1054E0001437BD465DF8047B704700BFABAAAAAA7B
:1054F000941C050880B485B000AF78600023FB736E
:105500007B689B6ABB607B689B69002B1FD1BB6873
:10551000032B56D801A252F823F000BF2D550008E6
:105520003F5500082D550008C35500087B68DB6A0D
:1055300003F08073002B46D00123FB7343E07B68AC
:10554000DB6AB3F1C07F40D10123FB733DE07B6890
:105550009B69B3F5005F21D1BB68032B37D801A24B
:1055600052F823F0755500087B5500087555000862
:105570008D5500080123FB7330E07B68DB6A03F084
:105580008073002B25D00123FB7322E07B68DB6A4C
:10559000B3F1C07F1FD10123FB731CE0BB68022B5A
:1055A00003D9BB68032B03D018E00123FB7315E07C
:1055B0007B68DB6A03F08073002B0ED00123FB7342
:1055C0000BE000BF0AE000BF08E000BF06E000BF3C
:1055D00004E000BF02E000BF00E000BFFB7B184614
:1055E0001437BD465DF8047B704700BF80B489B0B6
:1055F00000AF7860396000237B6100233B610023AA
:10560000BB610023FB616BE10122FB6902FA03F33A
:105610007B613B681B687A6913403B613A697B692F
:105620009A4240F05A813B685B6803F00303012B08
:1056300005D03B685B6803F00303022B30D17B6825
:105640009B68BB61FB695B00032202FA03F3DB4347
:10565000BA691340BB613B68DA68FB695B0002FA18
:1056600003F3BA691343BB617B68BA699A607B68CC
:105670005B68BB610122FB6902FA03F3DB43BA6991
:105680001340BB613B685B681B0903F00102FB69C7
:1056900002FA03F3BA691343BB617B68BA695A60C3
:1056A0003B685B6803F00303032B17D07B68DB6860
:1056B000BB61FB695B00032202FA03F3DB43BA69B7
:1056C0001340BB613B689A68FB695B0002FA03F315
:1056D000BA691343BB617B68BA69DA603B685B688F
:1056E00003F00303022B23D1FB69DA087B6808323D
:1056F00053F82230BB61FB6903F007039B000F22C4
:1057000002FA03F3DB43BA691340BB613B681A69D1
:10571000FB6903F007039B0002FA03F3BA69134322
:10572000BB61FB69DA087B680832B96943F822106B
:105730007B681B68BB61FB695B00032202FA03F311
:10574000DB43BA691340BB613B685B6803F003024B
:10575000FB695B0002FA03F3BA691343BB617B6820
:10576000BA691A603B685B6803F44033002B00F0B1
:10577000B4800023FB60604B5B6C5F4A43F4804362
:1057800053645D4B5B6C03F48043FB60FB685B4AD6
:10579000FB699B08023352F82330BB61FB6903F0BD
:1057A00003039B000F2202FA03F3DB43BA691340A1
:1057B000BB617B68524A93422BD07B68514A93422B
:1057C00025D07B68504A93421FD07B684F4A934252
:1057D00019D07B684E4A934213D07B684D4A93425E
:1057E0000DD07B684C4A934207D07B684B4A93426A
:1057F00001D107230EE008230CE006230AE005236D
:1058000008E0042306E0032304E0022302E001236E
:1058100000E00023FA6902F0030292009340BA69A3
:105820001343BB613549FB699B080233BA6941F8F0
:1058300023203B4B1B68BB613B69DB43BA691340C8
:10584000BB613B685B6803F48033002B03D0BA690B
:105850003B691343BB61324ABB691360304B5B68E1
:10586000BB613B69DB43BA691340BB613B685B6862
:1058700003F40033002B03D0BA693B691343BB61C7
:10588000274ABB695360264B9B68BB613B69DB437E
:10589000BA691340BB613B685B6803F48013002B5B
:1058A00003D0BA693B691343BB611D4ABB6993606E
:1058B0001B4BDB68BB613B69DB43BA691340BB61CF
:1058C0003B685B6803F40013002B03D0BA693B69A3
:1058D0001343BB61124ABB69D360FB690133FB61AF
:1058E000FB690F2B7FF690AE00BF00BF2437BD468B
:1058F0005DF8047B704700BF00380240003801406B
:10590000000002400004024000080240000C024077
:10591000001002400014024000180240001C024027
:10592000003C014080B487B000AF7860396000234C
:105930003B610023FB600023BB6000237B61CDE063
:1059400001227B6902FA03F33B613A683B69134029
:10595000FB60FA683B699A4240F0BD80654A7B690A
:105960009B08023352F82330BB607B6903F00303CA
:105970009B000F2202FA03F3BA681340BB607B68F6
:105980005D4A93422BD07B685C4A934225D07B686A
:105990005B4A93421FD07B685A4A934219D07B6876
:1059A000594A934213D07B68584A93420DD07B6882
:1059B000574A934207D07B68564A934201D1072346
:1059C0000EE008230CE006230AE0052308E0042388
:1059D00006E0032304E0022302E0012300E00023A9
:1059E0007A6902F0030292009340BA689A4232D177
:1059F000494B1A68FB68DB43474913400B60464B31
:105A00005A68FB68DB43444913404B60424B9A6839
:105A1000FB68DB43404913408B603F4BDA68FB680F
:105A2000DB433D491340CB607B6903F003039B00DC
:105A30000F2202FA03F3BB602E4A7B699B080233F4
:105A400052F82310BB68DA432A487B699B080A4056
:105A5000023340F823207B681A687B695B000321CE
:105A600001FA03F3DB431A407B681A607B69DA08AA
:105A70007B68083253F822107B6903F007039B0010
:105A80000F2202FA03F3DB437A69D20819407B68DC
:105A9000083243F822107B68DA687B695B000321D7
:105AA00001FA03F3DB431A407B68DA607B685A68CB
:105AB00001217B6901FA03F3DB431A407B685A60DA
:105AC0007B689A687B695B00032101FA03F3DB437F
:105AD0001A407B689A607B6901337B617B690F2B7D
