:020000040800F2
:100000007C0C00207D490008CD490008B50200089D
:10001000CD490008CD490008CD4900080000000086
:10002000000000000000000000000000CD490008B2
:10003000CD49000800000000F70100088D480008C5
:10004000CD490008CD490008CD490008CD49000838
:10005000CD490008CD4900086B2B0008812B000812
:10006000972B0008AD2B0008C32B0008CD490008D2
:10007000CD490008CD490008CD490008CD49000808
:10008000CD490008CD490008CD490008CD490008F8
:10009000CD490008CD490008CD490008D92B0008FA
:1000A000CD490008CD490008CD490008CD490008D8
:1000B000CD490008CD490008CD490008CD490008C8
:1000C000CD490008CD490008CD490008CD490008B8
:1000D000CD49000865430008CD490008CD49000816
:1000E0000B2C0008CD490008CD490008CD49000877
:1000F000CD490008CD490008CD490008CD49000888
:10010000CD490008CD490008CD490008CD49000877
:10011000CD490008CD490008CD490008CD49000867
:10012000CD490008CD490008CD490008CD49000857
:10013000CD490008CD490008CD490008CD49000847
:10014000CD490008CD490008CD490008CD49000837
:10015000CD490008CD490008CD490008CD49000827
:10016000CD490008CD490008CD490008CD49000817
:10017000CD490008CD490008CD4900080000000025
:10018000CD490008CD49000810B5054C237833B996
:10019000044B13B10448AFF300800123237010BD5A
:1001A000800C0020000000002888010808B5034BDF
:1001B0001BB103490348AFF3008008BD00000000F5
:1001C000840C002028880108EFF3108072B6704775
:1001D00080F310887047464A1368012B04D04FF013
:1001E00001031360434A1060434A116043484FF0D3
:1001F000805101607047EFF3108272B63C4801688D
:1002000051B34FF0000101603A48016891B1EFF33A
:1002100009811EF0100F08BF21ED108B21E9F00FAE
:100220004FF000041EF0100F08BF012441F8044DE8
:100230000068016030490968096808C9B1E8F00F31
:10024000002B18BFB1EC108B81F309884EF0100E13
:10025000002B18BF2EF0100E82F310884EF0040E03
:10026000704725490860EFF3148222F0040282F3FC
:10027000148820494FF0000008601D494FF001002C
:1002800008601F481F49D0F8002041EA02010160C0
:100290001A484FF0805101601B480068006800BF99
:1002A00080F3088861B662B6BFF34F8FBFF36F8FDC
:1002B000704700BFEFF308801EF0040F01D0EFF38A
:1002C000098020E9F00F40F804ED40F804ED1EF03D
:1002D000040F02D080F3098801E080F3088800B59C
:1002E00008F006FD5DF804EB4EF0040E70470000C8
:1002F000C8410020C0410020C441002004ED00E0BE
:1003000020ED00E00000FFFF08ED00E0000000002D
:1003100000000000000000000000000000000000DD
:10032000A2EB0300704700BF02780B78012A28BFB8
:100330009A42F5D16DE9044540EA0104CDE902672E
:100340006FF0000C4FEA447212B380EA010414F01B
:10035000070F6AD100F0070420F0070004F003053E
:1003600021F007014FEAC505F0E8042314F0040F5B
:10037000F1E804670CFA05F462EA040266EA04068E
:100380000AD063EA0403624667EA0407664603E0AC
:10039000F0E80423F1E8046782FA4CF582EA0604E7
:1003A000A4FA8CF46CBB83FA4CF583EA0705A5FA32
:1003B0008CF595B950E9022351E9026782FA4CF5B0
:1003C00082EA0604A4FA8CF483FA4CF583EA070562
:1003D000A5FA8CF52543DBD09CB92DBAB5FA85F486
:1003E00024F0070427FA04F1DDE9026723FA04F395
:1003F00003F0FF0001F0FF01FDE80445A0EB010060
:10040000704724BAB4FA84F424F0070426FA04F1FD
:10041000DDE9026722FA04F202F0FF0001F0FF01B9
:10042000FDE80445A0EB0100704714F0030F3CD138
:1004300010F0030428D150F8082B51F8083B82FA39
:100440004CF582EA0305A5FA8CF55DB950F8042C49
:1004500051F8043C82FA4CF582EA0305A5FA8CF5C2
:10046000002DE8D02DBAB5FA85F424F0070423FA5C
:1004700004F122FA04F202F0FF0001F0FF01FDE8AE
:100480000445A0EB010070474FEAC40420F00300CC
:1004900050F8082B21F0030151F8083B0CFA04F442
:1004A00062EA040263EA0403C9E710F003041AD005
:1004B000A1EB040120F00300E40750F8042B06D060
:1004C0000FD28B785FFAA2F4E41A06D12BB1CB7865
:1004D0005FFAB2F4E41A00D11BB920465DF8104B64
:1004E000704701F1040150F8042BCC0721F00301FF
:1004F00051F8043B48D824D222F07F4482FA4CF5CC
:1005000094EA1325A5FA8CF50AD165B951F8043B94
:1005100084EA0204B4EB036F0ED150F8042BEBE72E
:100520004FEA132355E035F07F454DD10878FDE8BB
:100530000445C0F1000070474FEA126203F0FF0368
:1005400047E002EA1C4482FA4CF594EA1345A5FA06
:100550008CF50AD165B951F8043B84EA0204B4EB86
:10056000034F0CD150F8042BEBE74FEA134330E074
:1005700015EA1C4528D10B884FEA124229E04FEAC0
:10058000124203EA1C4324E002F0FF0482FA4CF515
:1005900094EA1365A5FA8CF50AD165B951F8043BC4
:1005A00084EA0204B4EB032F09D150F8042BEBE7E3
:1005B0004FEA13630DE015F0FF0F05D10B684FEA0A
:1005C000122223F07F4304E04FF00000FDE80445D1
:1005D000704712BA1BBA82FA4CF482EA0304A4FAF6
:1005E0008CF5B5FA85F402FA04F203FA04F34FEA43
:1005F0001260FDE80445A0EB1360704700000000A6
:1006000090F800F06DE9024520F007016FF0000C52
:1006100010F0070491F820F040F049804FF00004FA
:100620006FF00700D1E9002391F840F000F10800D5
:1006300082FA4CF2A4FA8CF283FA4CF3A2FA8CF30D
:100640004BBBD1E9022382FA4CF200F10800A4FA74
:100650008CF283FA4CF3A2FA8CF3E3B9D1E90423C8
:1006600082FA4CF200F10800A4FA8CF283FA4CF3FF
:10067000A2FA8CF37BB9D1E9062301F1200182FAB9
:100680004CF200F10800A4FA8CF283FA4CF3A2FABF
:100690008CF3002BC6D0002A04BF04301A4612BACD
:1006A000B2FA82F2FDE8024500EBD2007047D1E9D0
:1006B000002304F00305C4F100004FEAC50514F05F
:1006C000040F91F840F00CFA05F562EA05021CBF30
:1006D00063EA050362464FF00004A9E781F0004198
:1006E00002E000BF83F0004330B54FEA41044FEA17
:1006F000430594EA050F08BF90EA020F1FBF54EAB2
:10070000000C55EA020C7FEA645C7FEA655C00F04D
:10071000E2804FEA5454D4EB5555B8BF6D420CDD1E
:100720002C4480EA020281EA030382EA000083EAA1
:10073000010180EA020281EA0303362D88BF30BD41
:1007400011F0004F4FEA01314FF4801C4CEA113197
:1007500002D0404261EB410113F0004F4FEA0333F6
:100760004CEA133302D0524263EB430394EA050F81
:1007700000F0A780A4F10104D5F1200E0DDB02FAF0
:100780000EFC22FA05F2801841F1000103FA0EF284
:10079000801843FA05F359410EE0A5F120050EF14A
:1007A000200E012A03FA0EFC28BF4CF0020C43FA7B
:1007B00005F3C01851EBE37101F0004507D54FF088
:1007C000000EDCF1000C7EEB00006EEB0101B1F5D8
:1007D000801F1BD3B1F5001F0CD349085FEA30001E
:1007E0004FEA3C0C04F101044FEA445212F5800F29
:1007F00080F09A80BCF1004F08BF5FEA500C50F1C6
:10080000000041EB045141EA050130BD5FEA4C0CA8
:10081000404141EB0101013C28BFB1F5801FE9D205
:1008200091F0000F04BF01460020B1FA81F308BF28
:100830002033A3F10B03B3F120020CDA0C3208DDF4
:1008400002F1140CC2F10C0201FA0CF021FA02F1CF
:100850000CE002F11402D8BFC2F1200C01FA02F13F
:1008600020FA0CFCDCBF41EA0C019040E41AA2BF64
:1008700001EB0451294330BD6FEA04041F3C1CDA2C
:100880000C340EDC04F11404C4F1200220FA04F04C
:1008900001FA02F340EA030021FA04F345EA0301F6
:1008A00030BDC4F10C04C4F1200220FA02F001FAB8
:1008B00004F340EA0300294630BD21FA04F029463A
:1008C00030BD94F0000F83F4801306BF81F48011D3
:1008D0000134013D4EE77FEA645C18BF7FEA655C46
:1008E00029D094EA050F08BF90EA020F05D054EA18
:1008F000000C04BF1946104630BD91EA030F1EBF1D
:100900000021002030BD5FEA545C05D14000494120
:1009100028BF41F0004130BD14F580043CBF01F513
:10092000801130BD01F0004545F0FE4141F47001F9
:100930004FF0000030BD7FEA645C1ABF19461046D4
:100940007FEA655C1CBF0B46024650EA013406BFD5
:1009500052EA033591EA030F41F4002130BD00BF94
:1009600090F0000F04BF0021704730B54FF4806451
:1009700004F132044FF000054FF0000150E700BFD2
:1009800090F0000F04BF0021704730B54FF4806431
:1009900004F1320410F0004548BF40424FF000011E
:1009A0003EE700BF42004FEAE2014FEA31014FEA61
:1009B00002701FBF12F07F4393F07F4F81F06051B0
:1009C000704732F07F4208BF704793F07F4F04BFFB
:1009D00041F40021704730B54FF4607401F00045D8
:1009E00021F000411CE700BF50EA010208BF704738
:1009F00030B54FF000050AE050EA010208BF704729
:100A000030B511F0004502D5404261EB41014FF491
:100A1000806404F132045FEA915C3FF4D8AE4FF099
:100A200003025FEADC0C18BF03325FEADC0C18BF7C
:100A3000033202EBDC02C2F1200300FA03FC20FACD
:100A400002F001FA03FE40EA0E0021FA02F114441A
:100A5000BDE600BF70B54FF0FF0C4CF4E06C1CEA33
:100A600011541DBF1CEA135594EA0C0F95EA0C0FA4
:100A700000F0DEF82C4481EA030621EA4C5123EA17
:100A80004C5350EA013518BF52EA033541F4801146
:100A900043F4801338D0A0FB02CE4FF00005E1FBF9
:100AA00002E506F00042E0FB03E54FF00006E1FB43
:100AB00003569CF0000F18BF4EF0010EA4F1FF0486
:100AC000B6F5007F64F5407404D25FEA4E0E6D41C6
:100AD00046EB060642EAC62141EA55514FEAC520D7
:100AE00040EA5E504FEACE2EB4F1FD0C88BFBCF553
:100AF000E06F1ED8BEF1004F08BF5FEA500E50F104
:100B0000000041EB045170BD06F0004646EA0101C9
:100B100040EA020081EA0301B4EB5C04C2BFD4EBFB
:100B20000C0541EA045170BD41F480114FF0000EF4
:100B3000013C00F3AB8014F1360FDEBF002001F062
:100B4000004170BDC4F10004203C35DA0C341BDCDC
:100B500004F11404C4F1200500FA05F320FA04F0AE
:100B600001FA05F240EA020001F0004221F00041E2
:100B700010EBD37021FA04F642EB06015EEA430E55
:100B800008BF20EAD37070BDC4F10C04C4F1200585
:100B900000FA04F320FA05F001FA04F240EA020038
:100BA00001F0004110EBD37041F100015EEA430E09
:100BB00008BF20EAD37070BDC4F1200500FA05F229
:100BC0004EEA020E20FA04F301FA05F243EA0203A8
:100BD00021FA04F001F0004121FA04F220EA0200B7
:100BE00000EBD3705EEA430E08BF20EAD37070BDFD
:100BF00094F0000F0FD101F00046400041EB0101DD
:100C000011F4801F08BF013CF7D041EA060195F0BE
:100C1000000F18BF704703F00046520043EB030378
:100C200013F4801F08BF013DF7D043EA0603704765
:100C300094EA0C0F0CEA135518BF95EA0C0F0CD070
:100C400050EA410618BF52EA4306D1D181EA0301B6
:100C500001F000414FF0000070BD50EA410606BFB0
:100C60001046194652EA430619D094EA0C0F02D1F5
:100C700050EA013613D195EA0C0F05D152EA03363A
:100C80001CBF104619460AD181EA030101F0004158
:100C900041F0FE4141F470014FF0000070BD41F0A1
:100CA000FE4141F4780170BD70B54FF0FF0C4CF47B
:100CB000E06C1CEA11541DBF1CEA135594EA0C0F9A
:100CC00095EA0C0F00F0A7F8A4EB050481EA030EE7
:100CD00052EA03354FEA013100F088804FEA0333CE
:100CE0004FF0805545EA131343EA12634FEA02229C
:100CF00045EA111545EA10654FEA00260EF000415D
:100D00009D4208BF964244F1FD0404F5407402D2AE
:100D10005B084FEA3202B61A65EB03055B084FEA3F
:100D200032024FF480104FF4002CB6EB020E75EB3C
:100D3000030E22BFB61A754640EA0C005B084FEA64
:100D40003202B6EB020E75EB030E22BFB61A7546E1
:100D500040EA5C005B084FEA3202B6EB020E75EB2C
:100D6000030E22BFB61A754640EA9C005B084FEAA4
:100D70003202B6EB020E75EB030E22BFB61A7546B1
:100D800040EADC0055EA060E18D04FEA051545EAA0
:100D900016754FEA06164FEAC30343EA52734FEA49
:100DA000C2025FEA1C1CC0D111F4801F0BD141EAC2
:100DB00000014FF000004FF0004CB6E711F4801F27
:100DC00004BF01430020B4F1FD0C88BFBCF5E06F07
:100DD0003FF6AFAEB5EB030C04BFB6EB020C5FEA17
:100DE000500C50F1000041EB045170BD0EF0004E6C
:100DF0004EEA113114EB5C04C2BFD4EB0C0541EA9E
:100E0000045170BD41F480114FF0000E013C90E69A
:100E100045EA060E8DE60CEA135594EA0C0F08BF5E
:100E200095EA0C0F3FF43BAF94EA0C0F0AD150EA5D
:100E300001347FF434AF95EA0C0F7FF425AF1046F0
:100E400019462CE795EA0C0F06D152EA03353FF418
:100E5000FDAE1046194622E750EA410618BF52EA95
:100E600043067FF4C5AE50EA41047FF40DAF52EA69
:100E700043057FF4EBAE12E74FEA410212F5001290
:100E800015D211D56FF47873B3EB625212D94FEAD1
:100E9000C12343F0004343EA505311F0004F23FABB
:100EA00002F018BF404270474FF00000704750EA10
:100EB000013005D111F0004008BF6FF000407047CD
:100EC0004FF00000704700BF53B94AB9002908BF6E
:100ED00000281CBF4FF0FF314FF0FF3000F074B915
:100EE000ADF1080C6DE904CE00F006F8DDF804E081
:100EF000DDE9022304B070472DE9F047089D044660
:100F00008E46002B4DD18A42944669D9B2FA82F2BC
:100F100052B101FA02F3C2F1200120FA01F10CFAF8
:100F200002FC41EA030E94404FEA1C48210CBEFB30
:100F3000F8F61FFA8CF708FB16E341EA034306FBB9
:100F400007F199420AD91CEB030306F1FF3080F048
:100F50001F81994240F21C81023E63445B1AA4B295
:100F6000B3FBF8F008FB103344EA034400FB07F737
:100F7000A7420AD91CEB040400F1FF3380F00A8178
:100F8000A74240F207816444023840EA0640E41B6D
:100F900000261DB1D4400023C5E900433146BDE819
:100FA000F0878B4209D9002D00F0EF800026C5E9BB
:100FB000000130463146BDE8F087B3FA83F6002ED3
:100FC0004AD18B4202D3824200F2F980841A61EB4B
:100FD000030301209E46002DE0D0C5E9004EDDE769
:100FE00002B9FFDEB2FA82F2002A40F09280A1EB51
:100FF0000C014FEA1C471FFA8CFE0126200CB1FBA6
:10100000F7F307FB131140EA01410EFB03F088429E
:1010100008D91CEB010103F1FF3802D2884200F22B
:10102000CB804346091AA4B2B1FBF7F007FB1011BD
:1010300044EA01440EFB00FEA64508D91CEB04045B
:1010400000F1FF3102D2A64500F2BB800846A4EBB6
:101050000E0440EA03409CE7C6F12007B34022FAA1
:1010600007FC4CEA030C20FA07F401FA06F31C43D0
:10107000F9404FEA1C4900FA06F3B1FBF9F8200CDD
:101080001FFA8CFE09FB181140EA014108FB0EF023
:10109000884202FA06F20BD91CEB010108F1FF3A73
:1010A00080F08880884240F28580A8F1020861447F
:1010B000091AA4B2B1FBF9F009FB101144EA01418D
:1010C00000FB0EFE8E4508D91CEB010100F1FF3438
:1010D0006CD28E456AD90238614440EA0840A0FBD0
:1010E0000294A1EB0E01A142C846A64656D353D0A6
:1010F0005DB1B3EB080261EB0E0101FA07F722FACA
:1011000006F3F1401F43C5E9007100263146BDE8F2
:10111000F087C2F12003D8400CFA02FC21FA03F355
:10112000914001434FEA1C471FFA8CFEB3FBF7F0D6
:1011300007FB10360B0C43EA064300FB0EF69E42FB
:1011400004FA02F408D91CEB030300F1FF382FD294
:101150009E422DD9023863449B1B89B2B3FBF7F63C
:1011600007FB163341EA034106FB0EF38B4208D915
:101170001CEB010106F1FF3816D28B4214D9023E56
:101180006144C91A46EA004638E72E46284605E774
:101190000646E3E61846F8E64B45A9D2B9EB020845
:1011A00064EB0C0E0138A3E74646EAE7204694E7D5
:1011B0004046D1E7D0467BE7023B614432E7304608
:1011C00009E76444023842E7704700BF80B584B045
:1011D00000AF78600023FB603BE04FF0FF31224816
:1011E0000DF0AEFD4FF0FF3120480DF0A9FDFB687A
:1011F000581C1F4B19681F4BA3FB01239A08134669
:101200009B001344CA1A01461B4B43F82210184B8B
:101210001968184BA3FB01239A0813469B0013443B
:10122000CA1A154B53F822301946144810F060FAC8
:101230000F4B1B6801330E4A13600C480DF090FDF4
:101240000F480DF08DFDFB680133FB60142012F098
:1012500075F9FB68092BC0DD0A4810F049FA00BF98
:101260001037BD4680BD00BFE80C0020C00C002038
:10127000B00C0020CDCCCCCC9C0C00204C460108FE
:10128000100D00207446010880B584B000AF78606E
:101290000023FB604FF0FF3128480DF051FD4FF067
:1012A000FF3127480DF04CFD264B1968264BA3FB58
:1012B00001239A0813469B001344CA1A234B53F880
:1012C0002230FA681344FB601E4B1A681E4BA3FBC6
:1012D000021399080B469B000B44D11A194B18684E
:1012E000194BA3FB00239A0813469B001344C21A10
:1012F000164B53F822301A46154810F0F9F9114BE5
:101300001B6801330F4A13600D480DF029FD114889
:101310000DF026FD0B4B1B680A2B03D0322012F078
:101320000DF9B7E700BFF9680B4810F0E1F90B4879
:1013300010F0DEF900BF1037BD4680BD100D002053
:10134000C00C0020B40C0020CDCCCCCC9C0C0020D8
:1013500088460108E80C0020AC460108C846010890
:1013600080B582B002AF2B4B00221A602A4B0022BC
:101370001A6001230122294929480DF01DFB012390
:101380000522284928480DF017FB01230022274990
:1013900027480DF011FB05230193052300934FF41B
:1013A000007300222349244811F0F8FF0346234A22
:1013B0001360224B1B68002B17D0204B1B6818466C
:1013C00011F074FF05230193072300934FF400737A
:1013D00000221B491B4811F0E1FF03461A4A136023
:1013E000194B1B68002B0DD005E0184810F080F950
:1013F0004FF0FF330BE0144B1B68184611F056FFFB
:10140000002304E0124810F073F94FF0FF33184640
:10141000BD4680BDB00C0020B40C0020DC460108A5
:10142000C00C0020E4460108E80C0020EC4601084E
:10143000100D0020CD110008F4460108B80C002062
:101440008912000820470108BC0C00200047010851
:101450002C47010880B584B000AF7860114810F0C7
:1014600047F907F10C034FF0FF3219460E480EF012
:101470004FFC0346002BF1D1FB6819460B4810F0D6
:1014800037F9FB680A4A934203D0642012F056F8F9
:10149000E4E700BF04480EF04FF900BF1037BD4627
:1014A00080BD00BF4C470108380D00206C47010883
:1014B0002400002080B584B000AF78600023FB7367
:1014C00015E0FB7B0133FB73FB7B03F00103002B77
:1014D00005D00D4B19460D480EF0C9FA04E00C4B2F
:1014E00019460A480EF0C3FAC82012F027F8FB7B11
:1014F000092BE6D9074B194604480EF0B8FA00BF8D
:101500001037BD4680BD00BF00000020380D002010
:101510000C0000202400002080B586B004AF012319
:10152000009320231B4A1C491C480EF0B7F8786032
:101530007B68002B05D01A4810F0DAF84FF0FF3323
:1015400024E0052303930A2302934FF4806301935D
:10155000144B00930023144A1449154811F05AFE05
:10156000134811F0A3FE052303930A2302934FF4BB
:10157000806301930F4B009300230F4A0F491048DB
:1015800011F048FE0E4811F091FE0023184608376E
:10159000BD4680BD700D0020A0470108380D002019
:1015A000A4470108F00D002055140008BC470108AD
:1015B000F011002088120020B5140008C44701086B
:1015C0008816002080B500AF4FF47A7011F0B6FF96
:1015D000FAE7000080B584B000AF78600023BB73E9
:1015E0000023FB7307F10E014FF0FF330122104877
:1015F0000FF046F80346002B07DDBB7B19460D486C
:1016000010F076F8FB7B132B06D0FB7B0133FB73CA
:10161000322011F093FFE5E700BF074810F068F8AB
:1016200003480EF00BFC00BF1037BD4680BD00BF65
:1016300020170020CC4701080048010880B586B07B
:1016400000AF78604123FB730023FB75FB7D082B03
:1016500014D107F10F03012219461D480EF0D8FDE1
:1016600038613B69002B03D01A4810F041F81FE0A5
:10167000FB7B1946184810F03BF819E0FB7D132B53
:1016800003D9164810F034F81DE007F10F030122CA
:1016900019460F480EF0AAFD38613B69002B02D0B5
:1016A0000F4810F025F8FB7B19460E4810F020F883
:1016B000FB7B0133DBB2FB73FB7D0133FB75052044
:1016C00011F03CFFC2E700BF1837BD4680BD00BF28
:1016D00020170020184801082C480108504801082C
:1016E000784801088848010880B586B004AF012316
:1016F00001934FF40063009301231C4A1C491D48C9
:101700000EF018FB78607B68002B05D01A480FF0AC
:10171000EFFF4FF0FF3324E00523039319230293D7
:101720004FF480630193154B00930023144A15492D
:10173000154811F06FFD144811F0B8FD052303930F
:10174000182302934FF480630193104B00930023FE
:101750000F4A1049104811F05DFD0F4811F0A6FD29
:10176000002318460837BD4680BD00BF641700201F
:10177000A448010820170020A8480108641F002081
:10178000D5150008C448010864230020FC2300206C
:101790003D160008CC480108FC27002080B582B027
:1017A00000AF78600D4B1B684FF0FF3118460DF00D
:1017B0005BFE0B4B1B780133DAB2094B1A700A201F
:1017C00011F0BCFE074B1B780133DAB2054B1A70DF
:1017D000024B1B6818460DF057FEE3E794280020E3
:1017E000982800209928002080B582B000AF78604A
:1017F0001B4B1B684FF0FF3118460DF035FE194B9F
:101800001A78194B1B789A4209D0164B1B78194647
:10181000154B1B781A4615480FF06AFF05E0114B6F
:101820001B78194612480FF063FF0E4B1B780133EB
:10183000DAB20C4B1A700C4B1B780133DAB20A4B3C
:101840001A70074B1B6818460DF01EFE054B1B78DF
:10185000312B00D8CCE700BF0837BD4680BD00BFA4
:10186000942800209828002099280020D4480108B6
:101870000049010880B584B004AF01211B480DF078
:10188000F7FB03461A4A1360194B1B68002B05D15E
:1018900018480FF02DFF4FF0FF3324E0052303938A
:1018A000082302934FF480630193134B00930023AA
:1018B000124A1349134811F0ADFC124811F0F6FC1E
:1018C00005230393072302934FF4806301930E4B88
:1018D000009300230D4A0E490E4811F09BFC0D4861
:1018E00011F0E4FC00231846BD4680BD28490108DC
:1018F00094280020304901089C2800209D170008EA
:10190000504901089C2C0020342D0020E9170008C4
:10191000584901083431002080B582B000AF7860AA
:10192000124B1B78642B1CD8104B1B780133DAB296
:101930000E4B1A700D4B1A780D4BA3FB0213D908EE
:101940000B469B000B445B00D31ADBB2002BE7D1A4
:1019500008480FF0CDFE084B1B6818460DF000FA42
:10196000DEE700BF0837BD4680BD00BF003B00205A
:10197000CDCCCCCC60490108CC31002080B582B000
:1019800000AF7860134B1B684FF0FF3118460DF025
:10199000D7F90346104A13600F4B1B68002B08D081
:1019A0000E480FF0A5FE0B4B1B6818460DF094F87F
:1019B0000CE00B4B1B780133DAB2094B1A70084B61
:1019C0001B78194607480FF093FEDBE70837BD4642
:1019D00080BD00BFCC310020043B002084490108B9
:1019E000083B0020AC49010880B584B004AF012257
:1019F00000211D480DF022F803461C4A13601B4BC2
:101A00001B68002B05D11A480FF072FE4FF0FF3310
:101A100027E018480FF06CFE052303931923029367
:101A20004FF480630193144B00930023134A14492D
:101A3000144811F0EFFB134811F038FC0523039311
:101A4000182302934FF4806301930F4B00930023FC
:101A50000E4A0F490F4811F0DDFB0E4811F026FC2D
:101A600000231846BD4680BDD8490108CC3100206E
:101A7000E0490108044A0108D03100201919000882
:101A8000304A0108D0350020683600207D19000852
:101A9000384A0108683A002080B584B000AF786009
:101AA0000023FB60FB685A1CFA60194603480FF0DC
:101AB0001FFE4FF4FA7011F041FDF3E7404A0108B0
:101AC00080B584B000AF78600023FB600023FB602A
:101AD00006E0F96807480FF00BFEFB680133FB6076
:101AE000FB68092BF5D904480FF002FE00BF103740
:101AF000BD4680BD544A0108684A010880B584B0DB
:101B000004AF05230193192300934FF400730022BF
:101B10001249134811F042FC0346124A1360114B5C
:101B20001B68002B04D00F4B1B68184611F0BEFB3E
:101B300005230393182302934FF4806301930A4B08
:101B400000930023094A0A490A4811F063FB094837
:101B500011F0ACFB00231846BD4680BD991A000861
:101B6000784A01080C3B0020103B0020C11A0008F5
:101B7000804A0108103F002080B582B000AF786035
:101B80004FF0FF3110480DF0DBF8104B1B684FF0A1
:101B9000FF3118460DF068FC0D4B1B780133DAB2AB
:101BA0000B4B1A700A4B1B7819460A480FF0A0FD20
:101BB000064B1B6818460DF067FC07480DF0D0F87F
:101BC000642011F0BBFCDBE70C400020B83F002094
:101BD00034400020884A0108BC3F002080B582B014
:101BE00000AF78604FF0FF3110480DF0A9F8104BAE
:101BF0001B684FF0FF3118460DF036FC0D4B1B787B
:101C00000133DAB20B4B1A700A4B1B7819460A489B
:101C10000FF06EFD064B1B6818460DF035FC0748AB
:101C20000DF09EF8642011F089FCDBE70C400020E9
:101C3000B83F0020354000209C4A0108E43F0020C6
:101C400080B582B000AF78604FF0FF3110480DF0E2
:101C500077F8104B1B684FF0FF3118460DF004FC6D
:101C60000D4B1B78013BDAB20B4B1A700A4B1B78F9
:101C700019460A480FF03CFD064B1B6818460DF04C
:101C800003FC07480DF06CF8642011F057FCDBE70B
:101C9000BC3F0020B83F002034400020B04A01087B
:101CA0000C40002080B582B000AF78604FF0FF316B
:101CB00010480DF045F8104B1B684FF0FF311846E7
:101CC0000DF0D2FB0D4B1B78013BDAB20B4B1A70B7
:101CD0000A4B1B7819460A480FF00AFD064B1B6891
:101CE00018460DF0D1FB07480DF03AF8642011F0CA
:101CF00025FCDBE7E43F0020B83F00203540002012
:101D0000C44A01080C40002080B582B002AF012116
:101D10003B480DF0ADF903463A4A13600123012216
:101D200039493A480CF048FE012300223849394825
:101D30000CF042FE01230022374938480CF03CFEEB
:101D400005230193182300934FF4007300223449B4
:101D5000344811F023FB0346334A1360324B1B68AF
:101D6000002B04D0304B1B68184611F09FFA052356
:101D70000193182300934FF4007300222B492C4841
:101D800011F00CFB03462B4A13602A4B1B68002BF7
:101D900004D0284B1B68184611F088FA05230193DC
:101DA000192300934FF4007300222349234811F0B4
:101DB000F5FA0346224A1360214B1B68002B04D01E
:101DC0001F4B1B68184611F071FA05230193192364
:101DD00000934FF4007300221A491B4811F0DEFAF9
:101DE00003461A4A1360194B1B68002B04D0174B8B
:101DF0001B68184611F05AFA00231846BD4680BDEC
:101E0000D84A0108B83F0020E04A01080C400020F1
:101E1000E84A0108BC3F0020F04A0108E43F0020E6
:101E2000791B0008F84A0108A83F0020DD1B0008C4
:101E3000FC4A0108AC3F0020411C0008004B01088F
:101E4000B03F0020A51C00080C4B0108B43F002047
:101E500080B483B000AF00237B60104B5B6C0F4AF3
:101E600043F4804353640D4B5B6C03F480437B600D
:101E70007B6800233B60094B1B6C084A43F080538E
:101E80001364064B1B6C03F080533B603B6800BF40
:101E90000C37BD465DF8047B704700BF0038024038
:101EA00080B489B000AF78607B681B683D4A93427C
:101EB0000ED10023FB613C4B5B6C3B4A43F00103BA
:101EC0005364394B5B6C03F00103FB61FB6962E017
:101ED0007B681B68B3F1804F0ED10023BB61324B8E
:101EE0001B6C314A43F0010313642F4B1B6C03F04E
:101EF0000103BB61BB694EE07B681B682B4A9342C0
:101F00000ED100237B61284B1B6C274A43F0020350
:101F10001364254B1B6C03F002037B617B693AE081
:101F20007B681B68224A93420ED100233B611E4B03
:101F30005B6C1D4A43F4802353641B4B5B6C03F4BE
:101F400080233B613B6926E07B681B68194A93420A
:101F50000ED10023FB60144B1B6C134A43F080032B
:101F60001364114B1B6C03F08003FB60FB6812E0F1
:101F70007B681B68104A93420DD10023BB600A4B5B
:101F80001B6C094A43F480731364074B1B6C03F406
:101F90008073BB60BB6800BF2437BD465DF8047B1F
:101FA000704700BF000001400038024000040040BC
:101FB00000480140001C00400020004080B485B073
:101FC00000AF78607B681B680B4A93420DD10023F9
:101FD000FB600A4B1B6C094A43F004031364074B74
:101FE0001B6C03F00403FB60FB6800BF1437BD46A5
:101FF0005DF8047B704700BF0008004000380240D5
:1020000080B58EB000AF786007F1240300221A601B
:102010005A609A60DA601A617B681B686B4A934267
:102020001FD100233B626A4B1B6B694A43F01003CC
:102030001363674B1B6B03F010033B623B6A4FF467
:1020400020537B620223BB620023FB6200233B63BD
:1020500001237B6307F1240319465E4803F086F9E8
:10206000AFE07B681B68B3F1804F1FD10023FB6199
:10207000574B1B6B564A43F002031363544B1B6BC5
:1020800003F00203FB61FB694FF440637B620223B0
:10209000BB620023FB6200233B6301237B6307F1E8
:1020A000240319464C4803F061F98AE07B681B68F9
:1020B0004A4A93423CD10023BB61454B1B6B444AC7
:1020C00043F001031363424B1B6B03F00103BB613D
:1020D000BB6900237B613E4B1B6B3D4A43F002030F
:1020E00013633B4B1B6B03F002037B617B69802313
:1020F0007B620223BB620023FB6200233B6302235B
:102100007B6307F124031946354803F02FF90223B6
:102110007B620223BB620023FB6200233B6302233A
:102120007B6307F1240319462B4803F01FF948E0AD
:102130007B681B682B4A93421FD100233B61244BD1
:102140001B6B234A43F008031363214B1B6B03F003
:1021500008033B613B694FF480537B620223BB62FF
:102160000023FB6200233B6302237B6307F124030C
:1021700019461D4803F0FAF823E07B681B681B4AE8
:1021800093421ED10023FB60114B1B6B104A43F09E
:10219000200313630E4B1B6B03F02003FB60FB68F3
:1021A0004FF400737B620223BB620023FB620023B7
:1021B0003B6309237B6307F1240319460C4803F0B2
:1021C000D5F800BF3837BD4680BD00BF00000140D4
:1021D00000380240001002400004024000040040A9
:1021E0000000024000080040000C024000200040B7
:1021F0000014024080B58CB000AF786007F11C037A
:1022000000221A605A609A60DA601A617B681B6863
:10221000364A934235D10023BB61354B5B6C344A5F
:1022200043F010035364324B5B6C03F01003BB614B
:10223000BB6900237B612E4B1B6B2D4A43F00103CE
:1022400013632B4B1B6B03F001037B617B694FF422
:10225000C063FB6102233B6201237B620323BB62F9
:102260000723FB6207F11C031946224803F07EF89E
:1022700000220021252002F05EFD252002F077FDDE
:1022800030E07B681B681C4A93422BD100233B61E2
:10229000174B1B6C164A43F400331364144B1B6C2E
:1022A00003F400333B613B690023FB60104B1B6B65
:1022B0000F4A43F0010313630D4B1B6B03F0010343
:1022C000FB60FB680C23FB6102233B6200237B6203
:1022D0000323BB620723FB6207F11C031946054871
:1022E00003F044F800BF3037BD4680BD0010014008
:1022F00000380240000002400044004080B582B037
:1023000000AF78607B681B68124A93420ED1124B73
:102310005B6C114A23F0100353644FF4C0610F4803
:1023200003F0C0F9252002F030FD0EE07B681B6849
:102330000B4A934209D1084B1B6C074A23F4003324
:1023400013640C21054803F0ADF900BF0837BD4602
:1023500080BD00BF00100140003802400000024074
:102360000044004080B598B000AF07F13003302240
:102370000021184611F07EFE07F11C0300221A60AE
:102380005A609A60DA601A6107F10C0300221A6041
:102390005A609A60DA600023BB60354B1B6C344A8C
:1023A00043F080531364324B1B6C03F08053BB60CB
:1023B000BB6800237B602F4B1B682E4A43F480438D
:1023C00013602C4B1B6803F480437B607B680D23F8
:1023D0003B634FF480337B630123BB6301237B6446
:1023E0000223BB644FF48003FB6404233B65A823F2
:1023F0007B650223BB650723FB6507F130031846A5
:1024000003F096FA0346002B03D027211A4802F066
:1024100081FA0F23FB6102233B6200237B624FF4AE
:10242000A053BB624FF48053FB6207F11C030521EC
:10243000184603F0F5FC0346002B03D034210E4868
:1024400002F068FA0223FB604FF48073BB6107F16E
:102450000C03184603F036FF0346002B03D03A2145
:10246000054802F057FA00BF6037BD4680BD00BF87
:102470000038024000700040104B010880B588B061
:1024800000AF786000237B610023FB6178680FF068
:1024900057F803463B613B69032B3CDD3B69052B49
:1024A00039DC7B681B78502B37D17B6802331B7873
:1024B0002E2B32D17B6801331B78402B2FD97B68C0
:1024C00001331B785A2B2AD87B6801331B78413B98
:1024D000FB600323BB6110E0FA6913469B001344C1
:1024E0005B00FB61BB697A6813441B78303BFA6977
:1024F0001344FB61BB690133BB61BA693B699A4212
:10250000EADBFB681B01DAB2FB6903F00F0313433C
:102510007B617B6909E000BF02E000BF00E000BF13
:1025200004480FF0E5F86FF0150318462037BD4654
:1025300080BD00BF204B010880B586B000AFF860B9
:10254000B9601346FB71BB681B11DBB203F00F03CC
:10255000082B17D8BB681B11DBB203F00F0303F580
:10256000801380339B027B61BB68DBB203F00F03F7
:10257000012202FA03F37B82FA797B8A1946786991
:1025800003F0A4F900BF1837BD4680BD80B586B002
:1025900000AF786039600023FB753B681B11DBB22C
:1025A00003F00F03082B1FD83B681B11DBB203F0AD
:1025B0000F0303F5801380339B023B613B68DBB262
:1025C00003F00F03012202FA03F3FB81FB89194692
:1025D000386903F063F90346FB75FB7D002B14BFDC
:1025E00001230023DBB201E06FF015031846183712
:1025F000BD4680BD80B58AB000AFF860B9601346B3
:10260000FB71BB681B11DBB203F00F03082B44D82E
:10261000BB68DBB203F00F03012202FA03F39BB2A3
:102620007B610123BB6102233B62FB79002B04D158
:102630000123BB610023FB611EE0FB79012B04D168
:102640000023BB610023FB6116E0FB79022B04D160
:102650000023BB610123FB610EE0FB79032B04D156
:102660000023BB610223FB6106E0FB79042B03D14D
:102670001123BB610023FB61BB681B11DBB203F0BC
:102680000F0303F5801380339B021A4607F11403EE
:102690001946104602F06AFE00E000BF2837BD462A
:1026A00080BD80B485B000AF78600023FB600BE094
:1026B0000122FB6802FA03F37A689A4201D1FB68AF
:1026C00007E0FB680133FB60FB681F2BF0DD4FF078
:1026D000FF3318461437BD465DF8047B7047000091
:1026E00080B584B000AF78607868FFF7DAFFF860F3
:1026F000FB68002B02DBFB680F2B01DD002303E0EE
:10270000FB689B00024A134418461037BD4680BD43
:10271000A07A010880B586B000AFF860B9603B6070
:102720001346FB714FF0FF337B61BB681B11DBB2BB
:1027300003F00F03082B02D96FF057036CE0BB685E
:10274000DBB203F00F03012202FA03F39BB2184637
:10275000FFF7A7FF78617B69002B02DB7B690F2BFA
:1027600002DD6FF0570357E0FDF72EFD38612C4A6C
:102770007B691B0113441B68BA689A421FD1284A1F
:102780007B691B01134408331B683A689A4216D1CF
:10279000234A7B691B01134404331B78FA799A425C
:1027A0000DD11F4A7B691B0113440C331B683A6A25
:1027B0009A4204D13869FDF70BFD00232CE0184A3A
:1027C0007B691B0113441B68B3F1FF3F05D03869D7
:1027D000FDF7FEFC6FF00F031EE0114A7B691B0141
:1027E0001344BA681A600E4A7B691B01134408330C
:1027F0003A681A600A4A7B691B0113440433FA7968
:102800001A70074A7B691B0113440C333A6A1A6039
:102810003869FDF7DDFC002318461837BD4680BD3A
:102820002C00002080B584B000AF786039604FF094
:10283000FF33FB603B681B11DBB203F00F03082B77
:1028400002D96FF0570344E03B68DBB203F00F039B
:10285000012202FA03F39BB21846FFF722FFF86049
:10286000FB68002B02DBFB680F2B02DD6FF05703C8
:102870002FE0FDF7A9FCB860184AFB681B01134460
:102880001B68B3F1FF3F04D1B868FDF7A1FC00233A
:102890001FE0124AFB681B0113444FF0FF321A601D
:1028A0000E4AFB681B011344083300221A600B4ACE
:1028B000FB681B011344043300221A70074AFB68AB
:1028C0001B0113440C3300221A60B868FDF780FC2A
:1028D000002318461037BD4680BD00BF2C000020E5
:1028E00080B58CB000AFF860B9601346FB714FF053
:1028F000FF33FB62BB681B11DBB203F00F03082B35
:1029000002D96FF05703F5E0FB79012B40F081808D
:10291000BB68DBB203F00F03012202FA03F39BB2A0
:102920001846FFF7BEFEF862FB6A002B02DBFB6A6B
:102930000F2B02DD6FF05703DCE0FDF745FC7862FA
:102940006E4AFB6A1B0113441B68B3F1FF3F05D1BC
:10295000786AFDF73DFC6FF05703CBE0FB6A9B0004
:10296000674A1344BB62BB68DBB203F00F0301226A
:1029700002FA03F39BB23B610223FB615F4AFB6AED
:102980001B01134404331B78022B12D0022B16DCDC
:10299000002B02D0012B06D011E00223BB614FF4C3
:1029A00088137B610BE00123BB614FF404137B614F
:1029B00005E00023BB614FF444137B6100BFBB689B
:1029C0001B11DBB203F00F0303F5801380339B026E
:1029D0001A4607F110031946104602F0C7FCBB6AFD
:1029E00093F9023000220521184602F0A4F9BB6ACF
:1029F00093F90230184602F0BAF9BB6A1B881A46EE
:102A0000404B1B6813433F4A1360786AFDF7E0FBB5
:102A10006FE0FB79002B69D1BB68DBB203F00F03D9
:102A2000012202FA03F39BB21846FFF759FEB8627F
:102A3000BB6A002B02D16FF057035BE0FDF7C4FBCC
:102A40007862BB681B11DBB203F00F0303F5801340
:102A500080339B021846BB68DBB203F00F030122F0
:102A600002FA03F39BB2194602F01CFEBB6A1B88F4
:102A7000DB431A46234B1B681340224A1360BB6A90
:102A80001B881F2B11D9BB6A1B88B3F5007F0CD89C
:102A90001C4B1B6803F47873002B23D1BB6A93F99A
:102AA0000230184602F071F91CE0BB6A1B88B3F5CE
:102AB000806F11D3BB6A1B88B3F5004F0CD8114B44
:102AC0001B6803F47C43002B0CD1BB6A93F90230E2
:102AD000184602F05AF905E0BB6A93F9023018462D
:102AE00002F053F9786AFDF773FB02E06FF05703C9
:102AF00000E0002318463037BD4680BD2C00002082
:102B0000A07A01083840002080B582B000AF78601C
:102B10000C4A7B681B01134408331B68002B0DD043
:102B2000084A7B681B01134408331B6805497A680F
:102B300012010A440C3212681046984700BF083749
:102B4000BD4680BD2C00002080B582B000AF03469A
:102B5000FB80FB881846FFF7A4FD03461846FFF7E5
:102B6000D3FF00BF0837BD4680BD80B500AF0DF074
:102B70009DFD012002F0C4FE0DF0ACFD00BF80BD44
:102B800080B500AF0DF092FD022002F0B9FE0DF00D
:102B9000A1FD00BF80BD80B500AF0DF087FD042012
:102BA00002F0AEFE0DF096FD00BF80BD80B500AF17
:102BB0000DF07CFD082002F0A3FE0DF08BFD00BFA0
:102BC00080BD80B500AF0DF071FD102002F098FEC1
:102BD0000DF080FD00BF80BD80B500AF0DF066FD3B
:102BE000202002F08DFE402002F08AFE802002F0BC
:102BF00087FE4FF4807002F083FE4FF4007002F005
:102C00007FFE0DF067FD00BF80BD80B500AF0DF009
:102C10004DFD4FF4806002F073FE4FF4006002F04F
:102C20006FFE4FF4805002F06BFE4FF4005002F044
:102C300067FE4FF4804002F063FE4FF4004002F064
:102C40005FFE0DF047FD00BF80BD000080B58AB07B
:102C500000AF00237B62434B1B6B424A43F00103EE
:102C60001363404B1B6B03F001037B627B6A002301
:102C70003B623C4B1B6B3B4A43F002031363394BF3
:102C80001B6B03F002033B623B6A0023FB61354B85
:102C90001B6B344A43F004031363324B1B6B03F08A
:102CA0000403FB61FB690023BB612E4B1B6B2D4AA8
:102CB00043F0080313632B4B1B6B03F00803BB614A
:102CC000BB6900237B61274B1B6B264A43F0100333
:102CD0001363244B1B6B03F010037B617B690023A0
:102CE0003B61204B1B6B1F4A43F0200313631D4BBA
:102CF0001B6B03F020033B613B690023FB60194B16
:102D00001B6B184A43F040031363164B1B6B03F015
:102D10004003FB60FB680023BB60124B1B6B114A36
:102D200043F0800313630F4B1B6B03F08003BB6006
:102D3000BB6800237B600B4B1B6B0A4A43F4807318
:102D40001363084B1B6B03F480737B607B6800226A
:102D50000549064807F0DEFC034618462837BD46FD
:102D600080BD00BF00380240E07A0108404B0108F6
:102D70002DE9B04386B000AF786007F1080207F193
:102D80000C031146184600F01DFD7B681B681A46AF
:102D9000104B9A420BD903F04FFA0246BB6802FB74
:102DA00003F3002298469146C7E904890AE003F03C
:102DB0002FFA0246FB6802FB03F300221C4615466D
:102DC000C7E90445D7E90423104619461837BD461C
:102DD000BDE8B083FFFF004080B586B000AFF8606B
:102DE000B9607A60BB681B68013B9B007B61BB6874
:102DF0005B69002B0CD17B68002B04D17969F868E2
:102E000003F0A8FC14E07969F86803F0DBFB0FE03D
:102E1000BB685B69002B0BD07B68002B04D1796900
:102E2000F86804F05BFA03E07969F86804F09CF94B
:102E3000002318461837BD4680BD00002DE9B04379
:102E400086B000AF786039603B681B68013B9B002F
:102E5000FB607868FFF78CFFC7E904017B681B689B
:102E60001B6803F44073B3F5807F0CD1D7E90401EC
:102E70004FF000024FF00003420842EAC1724B08D3
:102E8000C7E9042313E07B681B681B6803F44073E5
:102E9000B3F5007F0BD1D7E904014FF000024FF0EA
:102EA0000003820842EA81728B08C7E90423D7E94C
:102EB00004012E4A4FF00003FEF706F802460B46C7
:102EC000C7E904237B681B68DB6A01337A681268F0
:102ED000926A013202FB03F34FF47A7202FB03F3AE
:102EE000002298469146D7E9042340464946FDF71B
:102EF000EBFF02460B463B685A607B681B689B6A87
:102F00005A1CFB68002B04D17B681B685B6B013388
:102F100013E0FB68042B04D17B681B689B6B0133B7
:102F20000BE0FB68082B04D17B681B68DB6B01336B
:102F300003E07B681B681B6C013302FB03F34FF457
:102F40007A7202FB03F300221C461546D7E90423DC
:102F500020462946FDF7B8FF02460B463B689A60BB
:102F6000002318461837BD46BDE8B08340420F0025
:102F70002DE9B04F90B000AFF861B961BB691B6833
:102F8000013B9B007B63F869FFF7F2FEC7E90A018A
:102F9000D7E90A01584A4FF00003FDF795FF0246B2
:102FA0000B46C7E90A23BB695B6800229A46934631
:102FB000BB6A0BFB03F2FB6A0AFB03F31344BA6A16
:102FC000A2FB0A452B441D464FF47A724FF00003D2
:102FD00020462946FDF778FF02460B461346FB6361
:102FE000FB6B464AA2FB0323DB0B013300223B6051
:102FF0007A60D7E90034C7E90834FB6B00223B61F3
:103000007A61D7E90823D7E90401FDF75DFF02469D
:103010000B461346FB633A6AFB691B68013A9A62E6
:10302000FB6B022B01D80323FB63FB691B68FA6B64
:10303000013ADA62FB6B5A1EFB69DA60BB699B6876
:103040000022BB60FA60BB6AD7E902452A4602FB50
:1030500003F2FB6A214601FB03F31344BA6A2146DB
:10306000A2FB01894B449946D7E9082340464946CB
:10307000FDF72AFF02460B46104619464FF47A72B6
:103080004FF00003FDF720FF02460B461346BB63DB
:10309000BB6B012B02D80223BB6306E0BA6BFB6B50
:1030A0009A4202D3FB6B0133BB637B6B002B05D1D0
:1030B000FB691B68BA6B013A5A6316E07B6B042B01
:1030C00005D1FB691A68BB6B013B93630DE07B6B19
:1030D000082B05D1FB691A68BB6B013BD36304E085
:1030E000FB691A68BB6B013B136400231846403729
:1030F000BD46BDE8B08F00BF40420F000180008098
:103100002DE9B04F8AB000AFF860B960F868FFF7FA
:103110002FFEC7E90601D7E906012C4A4FF000034C
:10312000FDF7D2FE02460B46C7E90623BB685B6883
:10313000002298469146BB6909FB03F2FB6908FB34
:1031400003F31344BA69A2FB08452B441D464FF410
:103150007A724FF0000320462946FDF7B5FE02467D
:103160000B4613467B627B6A194AA2FB0323DB0BE7
:10317000013300229A469346C7E904AB7B6A0022DA
:103180003B607A60D7E90423D7E90001FDF79CFE94
:1031900002460B4613467B623A69FB681B68013A9C
:1031A0009A627B6A022B01D803237B62FB681B684F
:1031B0007A6A013ADA627B6A5A1EFB68DA60002397
:1031C00018462837BD46BDE8B08F00BF40420F000B
:1031D000018000802DE9B04F8CB000AF786139617B
:1031E0003B691B68013B9B00BB627869FFF7C0FD30
:1031F000C7E90801D7E908013C4A4FF00003FDF791
:1032000063FE02460B46C7E908237B691B68DB6A3D
:1032100001337A691268926A013202FB03F34FF4B8
:103220007A7202FB03F30022BB60FA60D7E908233D
:10323000D7E90201FDF748FE02460B461346FB6143
:103240003B699B6800229A4693467B691B68DB6A50
:10325000013300229846914608FB0BF20AFB09F362
:103260001344AAFB08452B441D46FB6900223B6022
:103270007A60D7E9002320462946FDF725FE02465D
:103280000B461346FB62FB6A012B02D80223FB624A
:1032900005E0FA6AFB699A4201D9FB69FB62BB6AE5
:1032A000002B05D17B691B68FA6A013A5A6316E064
:1032B000BB6A042B05D17B691A68FB6A013B9363E7
:1032C0000DE0BB6A082B05D17B691A68FB6A013BDC
:1032D000D36304E07B691A68FB6A013B1364002333
:1032E00018463037BD46BDE8B08F00BF40420F00E2
:1032F00080B586B000AFF860B9607A607B687B61AA
:10330000FB681B6C3B61BB68A3F5F053072B39D8F6
:1033100001A252F823F000BF3933000847330008F8
:1033200055330008793300088533000885330008D9
:10333000613300086D330008012279693869FFF7AD
:103340004BFD034620E0002279693869FFF744FD10
:10335000034619E079693869FFF70AFE034613E06E
:1033600079693869FFF7CCFE03460DE07969386961
:10337000FFF730FF034607E079693869FFF75EFD24
:10338000034601E06FF0150318461837BD4680BDAF
:1033900080B592B000AF786000237B6400233B646B
:1033A00007F1240300221A605A609A60DA601A61F9
:1033B0005A619A6107F11C0300221A605A6007F1F2
:1033C0000C0300221A605A609A60DA607B68002B56
:1033D00005D14FF4B972A549A5480EF09FFB7B6853
:1033E00048333B643B6C00225A603B6C00229A607D
:1033F0003B6C0022DA603B6C00221A61386C03F0EF
:1034000043F80346002B10D09A480EF071F97B6800
:10341000D3F89430194698480EF06AF997480EF0A0
:1034200067F96FF0FE037B641BE1386C00F00CFA67
:103430004FF48053FB6007F10C031946386C03F01E
:10344000BBFA0346002B10D08A480EF051F97B6876
:10345000D3F8943019468A480EF04AF987480EF09E
:1034600047F96FF0FE037B64FBE0386C03F05BF818
:103470000346002B10D07F480EF03AF97B68D3F852
:10348000943019467C480EF033F97C480EF030F940
:103490006FF0FE037B64E4E03B6C1B68794A934267
:1034A00022D03B6C1B68B3F1804F1DD03B6C1B6876
:1034B000754A934218D03B6C1B68744A934213D0F0
:1034C0003B6C1B68724A93420ED03B6C1B68714A7E
:1034D000934209D03B6C1B686F4A934204D03B6C0B
:1034E0001B686E4A93421DD10023FB6100233B629F
:1034F00007F11C031946386C03F04EFF0346002BFE
:1035000010D05C480EF0F4F87B68D3F8943019467C
:1035100063480EF0EDF859480EF0EAF86FF0FE033C
:103520007B649EE060237B620023BB620023FB621E
:1035300000237B630023FB630023BB637B6893F85A
:10354000903003F00103002B1AD007F1240300226E
:103550001946386C03F06EF90346002B10D045482D
:103560000EF0C6F87B68D3F8943019464D480EF03B
:10357000BFF842480EF0BCF86FF0FE037B6470E0C9
:103580007B6893F8903003F00203002B1AD007F108
:10359000240304221946386C03F04CF90346002B2F
:1035A00010D034480EF0A4F87B68D3F89430194654
:1035B0003D480EF09DF831480EF09AF86FF0FE038A
:1035C0007B644EE07B6893F8903003F00403002B9B
:1035D0001AD007F1240308221946386C03F02AF99F
:1035E0000346002B10D023480EF082F87B68D3F8F6
:1035F000943019462D480EF07BF820480EF078F8EC
:103600006FF0FE037B642CE07B6893F8903003F04E
:103610000803002B1AD007F124030C221946386C3A
:1036200003F008F90346002B10D012480EF060F8A2
:103630007B68D3F8943019461D480EF059F80F48AE
:103640000EF056F86FF0FE037B640AE0386CFEF76C
:10365000D7FC3B6C1B681A683B6C1B6842F0040289
:103660001A607B6C18464837BD4680BDFC7A01085D
:103670004C4B0108604B0108744B0108884B010852
:10368000904B010800000140000400400008004089
:10369000000C0040001000400014004000040140F5
:1036A000A84B0108C04B0108DC4B0108F84B01088E
:1036B000144C010880B400AF064B93F8903043F0EF
:1036C0000103DAB2034B83F8902000BFBD465DF8DA
:1036D000047B70472C01002080B582B000AF00232E
:1036E0007B6000233B60FFF7E5FF00237B6054E035
:1036F0007B68982202FB03F32C4A13441846FFF719
:1037000047FE0346002B15D029480DF0F1FF274A4C
:103710007B68982101FB03F3134494331B6819461B
:1037200024480DF0E5FF24480DF0E2FF6FF0FE03A2
:103730003B6036E07B68982202FB03F31B4A981833
:103740001A4A7B68982101FB03F3134494331968E8
:103750007B68982202FB03F34833144A1344174A48
:1037600006F0EAFB0346002B14D011480DF0C0FF11
:103770000E4A7B68982101FB03F3134494331B68C2
:1037800019460F480DF0B4FF0B480DF0B1FF6FF074
:10379000FE033B607B6801337B607B68002BA7D016
:1037A00000BF3B6818460837BD4680BD2C0100208D
:1037B000604B0108304C0108884B0108C40100200F
:1037C000404C010880B588B000AF786039600023B4
:1037D000FB6107F1080300221A605A609A60DA6000
:1037E0001A617B68002B04D15822154915480EF048
:1037F00095F97B68002B04D15922114911480EF02C
:103800008DF907F11C0207F108031146184602F072
:1038100027FD7B6801221A603B6801221A607B69E0
:10382000002B02D07B6802221A60BB69002B02D0F9
:103830003B6802221A6000BF2037BD4680BD00BF32
:10384000107B0108544C010880B590B000AF78603F
:103850007B68002B04D179228F4990480EF05EF9E5
:103860007B681B688E4A93420ED10023FB638D4B0D
:103870005B6C8C4A43F0010353648A4B5B6C03F02E
:103880000103FB63FB6B02E17B681B68B3F1804FB4
:103890000ED10023BB63834B1B6C824A43F00103B0
:1038A0001364804B1B6C03F00103BB63BB6BEEE046
:1038B0007B681B687C4A93420ED100237B63794B63
:1038C0001B6C784A43F002031364764B1B6C03F0C5
:1038D00002037B637B6BDAE07B681B68734A93426D
:1038E0000ED100233B636F4B1B6C6E4A43F0040305
:1038F00013646C4B1B6C03F004033B633B6BC6E02F
:103900007B681B686A4A93420ED10023FB62654BB9
:103910001B6C644A43F008031364624B1B6C03F096
:103920000803FB62FB6AB2E07B681B68614A934252
:103930000ED10023BB625B4B1B6C5A4A43F0100351
:103940001364584B1B6C03F01003BB62BB6A9EE010
:103950007B681B68584A93420ED100237B62514B0F
:103960001B6C504A43F0200313644E4B1B6C03F056
:1039700020037B627B6A8AE07B681B684F4A934224
:103980000ED100233B62474B5B6C464A43F0020377
:103990005364444B5B6C03F002033B623B6A76E08A
:1039A0007B681B68464A93420ED10023FB613D4B66
:1039B0005B6C3C4A43F4803353643A4B5B6C03F4D6
:1039C0008033FB61FB6962E07B681B683D4A934280
:1039D0000ED10023BB61334B5B6C324A43F400339E
:1039E0005364304B5B6C03F40033BB61BB694EE046
:1039F0007B681B68344A93420ED100237B61294BBC
:103A00005B6C284A43F480235364264B5B6C03F4BD
:103A100080237B617B693AE07B681B682B4A934279
:103A20000ED100233B611F4B1B6C1E4A43F0400329
:103A300013641C4B1B6C03F040033B613B6926E0A5
:103A40007B681B68224A93420ED10023FB60154B12
:103A50001B6C144A43F080031364124B1B6C03F07D
:103A60008003FB60FB6812E07B681B68194A934285
:103A70000DD10023BB600B4B1B6C0A4A43F48073CF
:103A80001364084B1B6C03F48073BB60BB6800BFFE
:103A90004037BD4680BD00BF2C7B0108704C01083B
:103AA00000000140003802400004004000080040CF
:103AB000000C0040001000400014004000040140D1
:103AC000004001400044014000480140001800400F
:103AD000001C00400020004080B483B000AF0346CB
:103AE000FB7197F90730002B12DBFB7903F01F0203
:103AF0000A4997F907305B09012000FA02F22033E6
:103B000041F82320BFF34F8F00BFBFF36F8F00BF7B
:103B100000BF0C37BD465DF8047B704700E100E054
:103B200080B485B000AF78603960FF23FB607B68AC
:103B3000002B08D13B68002B02D1FF23FB600FE074
:103B40007F23FB600CE07B68B3F5805F08D13B68A6
:103B5000002B03D140F2FF13FB6001E0FF23FB6069
:103B6000FB6818461437BD465DF8047B70470000BB
:103B700080B584B000AF786039607B68002B04D1D9
:103B80009A22664966480DF0C9FF3B68002B04D1B4
:103B90009B22624963480DF0C1FF7B68A3F58C73DB
:103BA000FB60FB685B6C5A68FB681A603B681A68CC
:103BB000FB685A60FB680C225A613B681B685A4AD2
:103BC000934202D94FF4004200E00022FB68DA6120
:103BD0003B68DB79C3F38003DBB2002B02D0012BFF
:103BE00004D008E0FB6800229A6108E0FB684FF40B
:103BF00040729A6103E0FB6800229A6100BF3B6853
:103C00001B79C3F30303DBB2082B02D0092B17D0B7
:103C10001BE03B681B7923F03F03DBB2402B06D04F
:103C20003B681B7923F03F03DBB2802B04D1FB6898
:103C30004FF480529A600CE0FB6800229A6008E022
:103C4000FB684FF480529A6003E0FB6800229A60A0
:103C500000BF3B681B79C3F30113DBB2002B02D01A
:103C6000012B04D008E0FB680022DA6008E0FB6862
:103C70004FF40052DA6003E0FB680022DA6000BF14
:103C80003B681B79C3F38113DBB2022B0FD0022BED
:103C900012DC002B02D0012B04D00DE0FB680022C7
:103CA0001A610DE0FB684FF4C0621A6108E0FB681E
:103CB0004FF480621A6103E0FB6800221A6100BFC2
:103CC0007B681B8B03F00803002B08D13B685B6803
:103CD000C3F38F239BB21A46FB68C3F8B020FB687E
:103CE000184603F0FAFB0346002B02D06FF0FE03E8
:103CF0000FE0FB689A68FB681B6919461046FFF7DE
:103D00000FFF0246FB689A64FB684FF4FA62DA64BC
:103D1000002318461037BD4680BD00BF587B010800
:103D2000904C0108A44C0108404B4C0080B58AB06F
:103D300000AFF860B9607A607B687B62FB68002B3B
:103D400004D1F822774978480DF0E8FEFB68A3F526
:103D50008C733B62BB68033B1D2B00F2D68001A233
:103D600052F823F0CD3E0008D73E00080B3F000874
:103D70008F3E0008DD3D00080B3F00080B3F0008A8
:103D80000B3F00080B3F00080B3F00080B3F0008EB
:103D90000B3F00080B3F00080B3F00080B3F0008DB
:103DA0000B3F00080B3F00080B3F00080B3F0008CB
:103DB0000B3F00080B3F00080B3F00080B3F0008BB
:103DC0000B3F00080B3F00080B3F00080B3F0008AB
:103DD0000B3F00080B3F0008F33E00083B6A5B6C9A
:103DE00093F908301846FFF777FE7B68BB61BB6923
:103DF000B3F5807F07D13B6A1B68DA683B6A1B68B2
:103E000022F02002DA607B6AB3F5007F24D13B6A9E
:103E10005B6CDB6893F90830184600F0B6FF3B6A2C
:103E20005033184601F030F90346002B05D04FF40B
:103E300088723C493D480DF071FE3B6A503318468C
:103E400001F06CF80346002B61D040F215123549A1
:103E500036480DF063FE5AE07B6AB3F5006F56D129
:103E60003B6A5B6C1B6993F90830184600F08DFFC4
:103E70003B6AB433184601F051F80346002B46D094
:103E800040F21D12274929480DF048FE3FE03B6AE9
:103E90005B6C93F9083000220121184600F04BFFBB
:103EA0003B6A5B6C93F90830184600F060FF7B6852
:103EB0007B617B69B3F5807F2BD13B6A1B68DA6835
:103EC0003B6A1B6842F02002DA6022E0796AF868F7
:103ED00000F064FA20E03B6A184603F04BFB03460F
:103EE000002B18D040F23F120E4910480DF016FE7C
:103EF00011E07B68FB61FB69002B03D03B6AFA6928
:103F0000DA6409E06FF0FE0307E000BF04E000BFE1
:103F100002E000BF00E000BF002318462837BD467E
:103F200080BD00BF687B0108904C0108B44C0108BB
:103F300080B584B000AF78600B46FB707B68002BC7
:103F400005D140F25B12164916480DF0E7FD7B687B
:103F5000A3F58C73BB60BB68DB6CFB60BB681B6844
:103F60006FF040021A60BB681B68FA785A6000BFA5
:103F7000BB681B681B6803F04003402B04D0FB6840
:103F80005A1EFA60002BF3D1FB68002B01D00123ED
:103F900001E04FF0FF3318461037BD4680BD00BF2B
:103FA000787B0108904C010880B584B000AF786040
:103FB0007B68002B05D14FF4B8720F490F480DF004
:103FC000ADFD7B68A3F58C73BB604FF0FF33FB60E6
:103FD000BB681B681B6803F02003202B06D1BB685D
:103FE0001B685A68BB689B6C1340FB60FB681846F3
:103FF0001037BD4680BD00BF847B0108904C01088E
:1040000080B586B000AFF860B9607A603B60FB684D
:10401000002B05D140F28512154916480DF07EFDA2
:10402000BB68002B05D14FF4C372114912480DF043
:1040300075FDFB68A3F58C737B617B68002B01D158
:10404000002311E03B68022B0DD17B697A6892B2A4
:10405000B968184603F0BEFA0346002B01D17B680D
:1040600002E0002300E0002318461837BD4680BD5B
:10407000907B0108904C0108B84C010880B586B0CF
:1040800000AF78600B46FB707B68002B05D140F2D7
:10409000A312374937480DF041FD7B68A3F58C73B7
:1040A0003B61FCF791F8F86000237B613B691B6D75
:1040B0005B68BB60FB78022B2ED0022B3FDC002B11
:1040C00002D0012B1BD03AE03B69D3F8B030BA687C
:1040D0009A4206D83B69D3F8B020BB68D31A7B61FB
:1040E00030E07B68DB6CC3F38F239BB21A463B69DD
:1040F000D3F8B0301A44BB68D31A7B6122E03B6925
:10410000D3F8B030BA689A421BD23B69D3F8B020DA
:10411000BB68D31A7B6114E03B69D3F8B030BA684E
:104120009A420CD37B68DB6CC3F38F239BB21A4695
:104130003B69D3F8B0301A44BB68D31A7B6100BF27
:1041400000E000BF7B69002B0BD03B69BA68C3F865
:10415000B0207B691B0243F003031946786807F01F
:104160009BFDF868FCF734F800BF1837BD4680BDEA
:10417000A47B0108904C010880B588B000AF78603E
:104180007B68002B05D14FF4EA72744974480DF036
:10419000C5FC7B68A3F58C73FB61FB691B681B681E
:1041A00003F02003202B0BD1FB691B68DB6803F0B5
:1041B0002003002B04D00121786807F06DFDC8E0D2
:1041C000FB691B681B6803F04003402B23D1FB698C
:1041D0001B68DB6803F04003002B1CD07B681B8B43
:1041E00003F40063002B04D0FB69184603F0A0FA27
:1041F0000BE0FB691B68DA68FB691B6822F0400270
:10420000DA600221786807F047FDFB691B686FF0F0
:1042100040021A609DE0FB69B3F81431002B1DD0F9
:10422000FB691B681B6803F01003102B16D1FB6998
:104230001B68DB6803F01003002B0FD000217868A7
:10424000FFF71CFF0023BB61FB691B681B68BB6198
:10425000FB691B685B68BB61BB697AE0FB691B6833
:104260001B6803F00803082B0AD100237B61FB695C
:104270001B681B687B61FB691B685B687B617B69F2
:10428000FB691B681B6803F00403042B0AD100239D
:104290003B61FB691B681B683B61FB691B685B68D2
:1042A0003B613B69FB691B681B6803F00203022B3F
:1042B0000AD10023FB60FB691B681B68FB60FB697C
:1042C0001B685B68FB60FB68FB691B681B6803F08D
:1042D0000103012B0AD10023BB60FB691B681B682B
:1042E000BB60FB691B685B68BB60BB68FB691B68E4
:1042F0001B6803F48073B3F5807F04D1FB691B68EE
:104300006FF480721A60FB691B681B6803F400730A
:10431000B3F5007F04D1FB691B686FF400721A606B
:10432000FB691B681B6803F08003802B04D1FB69C9
:104330001B686FF080021A60FB691B681B6803F042
:104340002003202B05D1FB691B686FF020021A6047
:10435000FFE700BF2037BD4680BD00BFB47B01082A
:10436000904C010880B500AF0CF0A0F90348FFF7AE
:1043700003FF0CF0AFF900BF80BD00BF5441002027
:1043800080B400AF044B0022A3F8142100BFBD4647
:104390005DF8047B704700BF3C40002080B588B0CA
:1043A00000AF786039607B68002B05D140F2244271
:1043B000744975480DF0B2FB3B68B3F5006F09D046
:1043C0003B68B3F5007F05D040F225426D496F4848
:1043D0000DF0A4FB7B68A3F58C737B613B68B3F5A0
:1043E000007F07D17B695033FB617B695B6CDB68C5
:1043F000BB6106E07B69B433FB617B695B6C1B6965
:10440000BB6100233B61624B1A6BBB695B6860490F
:1044100013430B635E4B1A6BBB695B6813403B61D4
:104420003B68B3F5007F09D17B6903F150027B69DA
:104430009A637A697B69C3F888200CE03B68B3F51E
:10444000006F08D17B6903F1B4027B695A637A6912
:104450007B69C3F8EC20BB691A68FB691A60BB6909
:10446000DA68FB695A60FB690022DA60FB694FF485
:1044700080621A61FB6900225A61FB6900229A611D
:104480003B68B3F5007F07D1FB6900229A60FB69A6
:104490004FF48072DA6109E03B68B3F5006F05D133
:1044A000FB6940229A60FB690022DA61FB694FF4E4
:1044B00080321A62FB6900225A62F86900F02EFD10
:1044C0000346002B05D040F279422E4931480DF0C9
:1044D00025FBF86900F074FC0346002B05D040F280
:1044E0007E4228492B480DF019FB3B68B3F5007F4D
:1044F00026D17B681B6DFB607869FB6819687B6857
:10450000DB6CC3F38F239BB21A4603F0E1F803463A
:10451000002B05D040F289421A491E480DF0FEFAE0
:104520007B691B685A697B691B6822F001025A612A
:104530007B691B68DA687B691B6842F01002DA60ED
:10454000BB6993F9083000220021184600F0F3FB04
:10455000BB6993F90830184600F009FC7B695B6C75
:1045600093F9083000220121184600F0E4FB7B6932
:104570005B6C93F90830184600F0F9FB00BF203758
:10458000BD4680BDC07B0108904C0108C84C0108A5
:1045900000380240B44C010880B584B000AF7860A8
:1045A0007B68002B05D140F2A342054905480DF078
:1045B000B5FA7B68FB6000BF1037BD4680BD00BF09
:1045C000D47B0108084D010880B584B000AF786045
:1045D0007B68002B05D140F2B342084908480DF032
:1045E0009DFA7B68FB60FB6803F58C73022118461B
:1045F000FFF744FD00BF1037BD4680BDEC7B0108CE
:10460000084D010880B584B000AF78607B68002B4E
:1046100005D140F2C242084908480DF07FFA7B6894
:10462000FB60FB6803F58C7301211846FFF726FD3C
:1046300000BF1037BD4680BD047C0108084D01084D
:1046400080B586B000AF78607B68002B05D140F262
:10465000CD420F490F480DF061FA7B68A3F58C73CA
:104660007B61FBF7B1FD38617B69D3F8B4305B68DF
:10467000FB603869FBF7ACFDFB68002B03D104211C
:10468000786807F009FB00BF1837BD4680BD00BF42
:10469000207C0108904C010880B584B000AF7860A0
:1046A0007B68002B05D140F2E442084908480DF030
:1046B00035FA7B68FB60FB6803F58C731846FFF7DF
:1046C000BFFF00BF1037BD4680BD00BF347C01086E
:1046D000084D010890B585B000AF394A3B4692E8D5
:1046E000030083E803000023FB60FFF749FE00237B
:1046F000BB605CE0BA6813469B0013449B00314AE0
:1047000099183148BA6813465B001344DB0103442F
:10471000443319602C49BA6813465B001344DB012B
:104720000B4403F5AE73294A1A602749BA68134649
:104730005B001344DB010B4403F5B0731A463B46A0
:1047400093E8030082E80300BA6813465B00134451
:10475000DB0103F58C731C4A98181B49BA68134691
:104760005B001344DB010B4444331B681968164C8F
:10477000BA6813465B001344DB01234403F58A73D4
:104780001B8843F4A06343F003039BB21A46002343
:1047900007F030FAF860FB68002B05D04FF4A162F7
:1047A0000B490C480DF0BAF9BB680133BB60BB681C
:1047B000002B9FD0FB6818461437BD4690BD00BF44
:1047C0002C4D0108C80100203C400020447B01081A
:1047D0004C7C0108184D010880B483B000AF03463B
:1047E0003960FB7197F90730002B0ADB3B68DAB2BE
:1047F0000C4997F907301201D2B20B4483F8002319
:104800000AE03B68DAB20849FB7903F00F03043B86
:104810001201D2B20B441A7600BF0C37BD465DF8C8
:10482000047B704700E100E000ED00E080B582B05D
:1048300000AF03463960FB7104F01CFB00BF083772
:10484000BD4680BD80B500AF00F0D4F80C4B1B68AE
:104850000C4AA2FB03239B09184600F0A4FAFF218F
:104860004FF0FF30FFF7B8FF074B01221A60064BED
:104870001B68002B02D1044B01221A6000BF80BDCF
:10488000E0010020D34D6210DC01002080B500AFB4
:104890000BF00CFF064B1B6803F48033002B01D098
:1048A00000F01AF809F086FC0BF014FF00BF80BD81
:1048B00010E000E080B500AF054B1B6803F48033C7
:1048C000002B01D000F008F8024B1B68184680BD91
:1048D00010E000E0BC41002080B400AF054B1A6836
:1048E000054B1B681344034A136000BFBD465DF8C7
:1048F000047B7047BC410020DC01002080B582B001
:1049000000AF7860FFF79EFF002318460837BD46CA
:1049100080BD000080B582B000AF78603960064885
:104920000CF0E6FE3A68796804480CF0E1FE0448B1
:104930000CF0DEFEFEE700BF344D01084C4D0108CF
:104940006C4D010880B500AF00F0D4F8FDF70AFD0A
:10495000074908480DF058F8FEF778F9FFF7BAFE56
:1049600005480CF075FE09F0A7FC00BF80BD00BF34
:1049700000000220A4490020744D0108DFF834D063
:104980000D480E490E4A002302E0D458C4500433A7
:10499000C4188C42F9D30B4A0B4C002301E013607E
:1049A0000432A242FBD300F013F803F089FF09F0B0
:1049B000B7FC70477C0C0020000000207C08002021
:1049C0003C880108800C0020A4490020FEE700007C
:1049D00080B400AF064BD3F88830054A43F4700327
:1049E000C2F8883000BFBD465DF8047B704700BF49
:1049F00000ED00E080B487B000AF00233B610023EE
:104A00007B610223FB600023BB6002237B60344B8D
:104A10009B6803F00C033B613B69082B11D03B6999
:104A2000082B44D83B69002B03D03B69042B04D0EE
:104A30003DE02C4B2C4A1A603DE02A4B2B4A1A6071
:104A400039E0274B5B689B0D03F00103BB60244BEF
:104A50005B6803F03F037B60BB68002B0CD0234AEC
:104A60007B68B2FBF3F31E4A52689209C2F3080254
:104A700002FB03F37B610BE01B4A7B68B2FBF3F3A1
:104A8000174A52689209C2F3080202FB03F37B61E2
:104A9000134B5B681B0C03F0030301335B00FB60EB
:104AA0007A69FB68B2FBF3F30E4A136003E00D4B27
:104AB0000D4A1A6000BF0A4B9B681B0903F00F03E5
:104AC0000B4AD35C3B61074B1A683B6922FA03F33C
:104AD000044A136000BF1C37BD465DF8047B704775
:104AE00000380240E00100200024F40000127A00A7
:104AF000787C010880B500AF0E4B1B680D4A43F46B
:104B0000007313600B4B1B680A4A43F48063136005
:104B1000084B1B68074A43F480731360032000F0BE
:104B2000FFF80020FFF7EAFEFDF792F90023184690
:104B300080BD00BF003C024080B485B000AF78600B
:104B40007B6803F00703FB600C4BDB68BB60BA6853
:104B50004FF6FF031340BB60FB681A02BB681343A8
:104B600043F0BF6343F40033BB60044ABB68D360C7
:104B700000BF1437BD465DF8047B704700ED00E0D0
:104B800080B400AF044BDB681B0A03F00703184630
:104B9000BD465DF8047B704700ED00E080B483B053
:104BA00000AF0346FB7197F90730002B0BDBFB7955
:104BB00003F01F02074997F907305B09012000FA4B
:104BC00002F241F8232000BF0C37BD465DF8047B9C
:104BD000704700BF00E100E080B483B000AF03463F
:104BE000FB7197F90730002B12DBFB7903F01F02F2
:104BF0000A4997F907305B09012000FA02F22033D5
:104C000041F82320BFF34F8F00BFBFF36F8F00BF6A
:104C100000BF0C37BD465DF8047B704700E100E043
:104C200080B483B000AF03463960FB7197F9073059
:104C3000002B0ADB3B68DAB20C4997F90730120106
:104C4000D2B20B4483F800230AE03B68DAB2084989
:104C5000FB7903F00F03043B1201D2B20B441A7626
:104C600000BF0C37BD465DF8047B704700E100E0F3
:104C700000ED00E080B489B000AFF860B9607A6000
:104C8000FB6803F00703FB61FB69C3F10703042B17
:104C900028BF0423BB61FB690433062B02D9FB69DF
:104CA000033B00E000237B614FF0FF32BB6902FA57
:104CB00003F3DA43BB681A407B699A404FF0FF3137
:104CC0007B6901FA03F3D9437B680B401343184611
:104CD0002437BD465DF8047B7047000080B582B084
:104CE00000AF78607B68013BB3F1807F01D3012383
:104CF0000FE00A4A7B68013B53600F214FF0FF3001
:104D0000FFF78EFF054B00229A60044B07221A60C2
:104D1000002318460837BD4680BD00BF10E000E004
:104D200080B582B000AF78607868FFF705FF00BFFC
:104D30000837BD4680BD80B586B000AF0346B96078
:104D40007A60FB7300237B61FFF71AFF78617A6852
:104D5000B9687869FFF78EFF024697F90F30114660
:104D60001846FFF75DFF00BF1837BD4680BD80B510
:104D700082B000AF0346FB7197F907301846FFF782
:104D80000DFF00BF0837BD4680BD80B582B000AFC3
:104D90000346FB7197F907301846FFF71DFF00BF68
:104DA0000837BD4680BD80B582B000AF78607868B6
:104DB000FFF794FF034618460837BD4680BD000044
:104DC00080B586B000AF786000237B61FFF772FD8D
:104DD00038617B68002B01D1012399E07B680222B6
:104DE00083F835207B68002283F834207B681B68B9
:104DF0001A687B681B6822F001021A600FE0FFF757
:104E000059FD02463B69D31A052B08D97B6820223D
:104E10005A657B68032283F83520032378E07B689A
:104E20001B681B6803F00103002BE8D17B681B683B
:104E30001B687B617A69384B13407B617B685A68D9
:104E40007B689B681A437B68DB681A437B681B6935
:104E50001A437B685B691A437B689B691A437B68CA
:104E6000DB691A437B681B6A13437A6913437B61CE
:104E70007B685B6A042B07D17B68DA6A7B681B6BF3
:104E800013437A6913437B617B681B687A691A60F4
:104E90007B681B685B697B617B6923F007037B612F
:104EA0007B685B6A7A6913437B617B685B6A042B6E
:104EB00017D17B689B6A7A6913437B617B68DB6AE5
:104EC000002B0ED0786800F0D5F90346002B08D0EF
:104ED0007B6840225A657B68012283F835200123D4
:104EE00016E07B681B687A695A61786800F08CF973
:104EF0000346FB607B68DB6D3F229A40FB689A604B
:104F00007B6800225A657B68012283F835200023E4
:104F100018461837BD4680BD3F8010F080B584B07C
:104F200000AF78607B68002B01D1012350E07B68E3
:104F300093F83530DBB2022B01D1022348E07B68C5
:104F40001B681A687B681B6822F001021A607B6884
:104F50001B6800221A607B681B6800225A607B680D
:104F60001B6800229A607B681B680022DA607B68FD
:104F70001B6800221A617B681B6821225A617868CD
:104F800000F042F90346FB607B680022DA637B682D
:104F900000221A647B6800225A647B6800229A64AB
:104FA0007B680022DA647B6800221A657B68DB6D0F
:104FB0003F229A40FB689A607B6800225A657B68B2
:104FC000002283F835207B68002283F834200023F8
:104FD00018461037BD4680BD80B586B000AFF8607A
:104FE000B9607A603B600023FB75FB689B6D3B6199
:104FF000FB6893F83430012B01D1022340E0FB68B9
:10500000012283F83420FB6893F83530DBB2012BA2
:105010002FD1FB68022283F83520FB6800225A65F5
:105020003B687A68B968F86800F0C0F8FB68DB6D27
:105030003F229A403B699A60FB681B681A68FB68CC
:105040001B6842F016021A60FB681B6C002B07D02D
:10505000FB681B681A68FB681B6842F008021A604C
:10506000FB681B681A68FB681B6842F001021A6043
:1050700005E0FB68002283F834200223FB75FB7DEA
:1050800018461837BD4680BD80B584B000AF786043
:105090007B689B6DFB60FFF70DFCB8607B6893F845
:1050A0003530DBB2022B08D07B6880225A657B68E2
:1050B000002283F83420012352E07B681B681A68C1
:1050C0007B681B6822F016021A607B681B685A69AD
:1050D0007B681B6822F080025A617B681B6C002B86
:1050E00003D17B689B6C002B07D07B681B681A6818
:1050F0007B681B6822F008021A607B681B681A68CC
:105100007B681B6822F001021A6013E0FFF7D2FBF4
:105110000246BB68D31A052B0CD97B6820225A653E
:105120007B68032283F835207B68002283F83420D3
:10513000032315E07B681B681B6803F00103002B49
:10514000E4D17B68DB6D3F229A40FB689A607B6804
:10515000012283F835207B68002283F83420002365
:1051600018461037BD4680BD80B483B000AF78606C
:105170007B6893F83530DBB2022B04D07B68802249
:105180005A6501230CE07B68052283F835207B6893
:105190001B681A687B681B6822F001021A600023F2
:1051A00018460C37BD465DF8047B704780B485B067
:1051B00000AFF860B9607A603B60FB681B681A68F2
:1051C000FB681B6822F480221A60FB681B683A683F
:1051D0005A60FB689B68402B08D1FB681B687A68A3
:1051E0009A60FB681B68BA68DA6007E0FB681B68B6
:1051F000BA689A60FB681B687A68DA6000BF143787
:10520000BD465DF8047B704780B485B000AF786020
:105210007B681B68DBB2103B144AA2FB03231B090B
:10522000FB60134AFB6813441B781A467B68DA65F7
:10523000FB68032B09D97B681B6823F47F7323F079
:1052400003031A1D7B689A6507E07B681B6823F4DB
:105250007F7323F003037A6893657B689B6D184620
:105260001437BD465DF8047B704700BFABAAAAAAFD
:10527000907C010880B485B000AF78600023FB7398
:105280007B689B6ABB607B689B69002B1FD1BB68F6
:10529000032B56D801A252F823F000BFAD520008EC
:1052A000BF520008AD520008435300087B68DB6A18
:1052B00003F08073002B46D00123FB7343E07B682F
:1052C000DB6AB3F1C07F40D10123FB733DE07B6813
:1052D0009B69B3F5005F21D1BB68032B37D801A2CE
:1052E00052F823F0F5520008FB520008F55200086E
:1052F0000D5300080123FB7330E07B68DB6A03F089
:105300008073002B25D00123FB7322E07B68DB6ACE
:10531000B3F1C07F1FD10123FB731CE0BB68022BDC
:1053200003D9BB68032B03D018E00123FB7315E0FE
:105330007B68DB6A03F08073002B0ED00123FB73C4
:105340000BE000BF0AE000BF08E000BF06E000BFBE
:1053500004E000BF02E000BF00E000BFFB7B184696
:105360001437BD465DF8047B704700BF80B489B038
:1053700000AF7860396000237B6100233B6100232C
:10538000BB610023FB616BE10122FB6902FA03F3BD
:105390007B613B681B687A6913403B613A697B69B2
:1053A0009A4240F05A813B685B6803F00303012B8B
:1053B00005D03B685B6803F00303022B30D17B68A8
:1053C0009B68BB61FB695B00032202FA03F3DB43CA
:1053D000BA691340BB613B68DA68FB695B0002FA9B
:1053E00003F3BA691343BB617B68BA699A607B684F
:1053F0005B68BB610122FB6902FA03F3DB43BA6914
:105400001340BB613B685B681B0903F00102FB6949
:1054100002FA03F3BA691343BB617B68BA695A6045
:105420003B685B6803F00303032B17D07B68DB68E2
:10543000BB61FB695B00032202FA03F3DB43BA6939
:105440001340BB613B689A68FB695B0002FA03F397
:10545000BA691343BB617B68BA69DA603B685B6811
:1054600003F00303022B23D1FB69DA087B680832BF
:1054700053F82230BB61FB6903F007039B000F2246
:1054800002FA03F3DB43BA691340BB613B681A6954
:10549000FB6903F007039B0002FA03F3BA691343A5
:1054A000BB61FB69DA087B680832B96943F82210EE
:1054B0007B681B68BB61FB695B00032202FA03F394
:1054C000DB43BA691340BB613B685B6803F00302CE
:1054D000FB695B0002FA03F3BA691343BB617B68A3
:1054E000BA691A603B685B6803F44033002B00F034
:1054F000B4800023FB60604B5B6C5F4A43F48043E5
:1055000053645D4B5B6C03F48043FB60FB685B4A58
:10551000FB699B08023352F82330BB61FB6903F03F
:1055200003039B000F2202FA03F3DB43BA69134023
:10553000BB617B68524A93422BD07B68514A9342AD
:1055400025D07B68504A93421FD07B684F4A9342D4
:1055500019D07B684E4A934213D07B684D4A9342E0
:105560000DD07B684C4A934207D07B684B4A9342EC
:1055700001D107230EE008230CE006230AE00523EF
:1055800008E0042306E0032304E0022302E00123F1
:1055900000E00023FA6902F0030292009340BA6926
:1055A0001343BB613549FB699B080233BA6941F873
:1055B00023203B4B1B68BB613B69DB43BA6913404B
:1055C000BB613B685B6803F48033002B03D0BA698E
:1055D0003B691343BB61324ABB691360304B5B6864
:1055E000BB613B69DB43BA691340BB613B685B68E5
:1055F00003F40033002B03D0BA693B691343BB614A
:10560000274ABB695360264B9B68BB613B69DB4300
:10561000BA691340BB613B685B6803F48013002BDD
:1056200003D0BA693B691343BB611D4ABB699360F0
:105630001B4BDB68BB613B69DB43BA691340BB6151
:105640003B685B6803F40013002B03D0BA693B6925
:105650001343BB61124ABB69D360FB690133FB6131
:10566000FB690F2B7FF690AE00BF00BF2437BD460D
:105670005DF8047B704700BF0038024000380140ED
:10568000000002400004024000080240000C0240FA
:10569000001002400014024000180240001C0240AA
:1056A000003C014080B487B000AF786039600023CF
:1056B0003B610023FB600023BB6000237B61CDE0E6
:1056C00001227B6902FA03F33B613A683B691340AC
:1056D000FB60FA683B699A4240F0BD80654A7B698D
:1056E0009B08023352F82330BB607B6903F003034D
:1056F0009B000F2202FA03F3BA681340BB607B6879
:105700005D4A93422BD07B685C4A934225D07B68EC
:105710005B4A93421FD07B685A4A934219D07B68F8
:10572000594A934213D07B68584A93420DD07B6804
:10573000574A934207D07B68564A934201D10723C8
:105740000EE008230CE006230AE0052308E004230A
:1057500006E0032304E0022302E0012300E000232B
:105760007A6902F0030292009340BA689A4232D1F9
:10577000494B1A68FB68DB43474913400B60464BB3
:105780005A68FB68DB43444913404B60424B9A68BC
:10579000FB68DB43404913408B603F4BDA68FB6892
:1057A000DB433D491340CB607B6903F003039B005F
:1057B0000F2202FA03F3BB602E4A7B699B08023377
:1057C00052F82310BB68DA432A487B699B080A40D9
:1057D000023340F823207B681A687B695B00032151
:1057E00001FA03F3DB431A407B681A607B69DA082D
:1057F0007B68083253F822107B6903F007039B0093
:105800000F2202FA03F3DB437A69D20819407B685E
:10581000083243F822107B68DA687B695B00032159
:1058200001FA03F3DB431A407B68DA607B685A684D
:1058300001217B6901FA03F3DB431A407B685A605C
:105840007B689A687B695B00032101FA03F3DB4301
:105850001A407B689A607B6901337B617B690F2BFF
:105860007FF62EAF00BF00BF1C37BD465DF8047B3E
:10587000704700BF003801400000024000040240B1
:1058800000080240000C02400010024000140240D8
:1058900000180240001C0240003C014080B485B06A
:1058A00000AF78600B467B807B681A697B88134069
:1058B000002B02D00123FB7301E00023FB73FB7B71
:1058C00018461437BD465DF8047B704780B483B03A
:1058D00000AF78600B467B8013467B707B78002B93
:1058E00003D07A887B689A6103E07B881A047B681E
:1058F0009A6100BF0C37BD465DF8047B704700001D
:1059000080B582B000AF0346FB80084B5A69FB8824
:105910001340002B06D0054AFB885361FB881846CC
:10592000FDF712F900BF0837BD4680BD003C0140BD
:1059300080B586B000AF78607B68002B01D1012371
:1059400067E27B681B6803F00103002B75D0884B6E
:105950009B6803F00C03042B0CD0854B9B6803F071
:105960000C03082B12D1824B5B6803F48003B3F560
:10597000800F0BD17E4B1B6803F40033002B5BD0F0
:105980007B685B68002B57D1012342E27B685B6830
:10599000B3F5803F06D1764B1B68754A43F48033DC
:1059A00013601DE07B685B68B3F5A02F0CD1704BD2
:1059B0001B686F4A43F4802313606D4B1B686C4A6D
:1059C00043F4803313600BE0694B1B68684A23F48F
:1059D00080331360664B1B68654A23F48023136091
:1059E0007B685B68002B13D0FEF764FF386108E02A
:1059F000FEF760FF02463B69D31A642B01D90323EB
:105A000007E25B4B1B6803F40033002BF0D014E07B
:105A1000FEF750FF386108E0FEF74CFF02463B6995
:105A2000D31A642B01D90323F3E1514B1B6803F410
:105A30000033002BF0D100E000BF7B681B6803F04F
:105A40000203002B63D04A4B9B6803F00C03002B2E
:105A50000BD0474B9B6803F00C03082B1CD1444B25
:105A60005B6803F48003002B16D1414B1B6803F0E5
:105A70000203002B05D07B68DB68012B01D00123DA
:105A8000C7E13B4B1B6823F0F8027B681B69DB0016
:105A9000374913430B603AE07B68DB68002B20D06A
:105AA000344B01221A60FEF705FF386108E0FEF76B
:105AB00001FF02463B69D31A022B01D90323A8E157
:105AC0002B4B1B6803F00203002BF0D0284B1B6804
:105AD00023F0F8027B681B69DB00254913430B6048
